:020000040001F9
:10B00000703F0020D5B00100EFB00100F1B00100A9
:10B010000000000000000000000000000000000030
:10B02000000000000000000000000000F3B001007C
:10B030000000000000000000F5B00100F7B00100C2
:10B04000FDB30100F9B00100A1B90100F9B00100A0
:10B05000F9B001000000000069B20100F9B0010080
:10B06000F9B00100F9B00100F9B00100F9B0010038
:10B07000F9B00100F9B00100F9B00100F9B0010028
:10B08000F9B001008DB60100F9B00100F9B001007E
:10B09000D9B80100F9B00100E1B80100F9B0010030
:10B0A000F9B00100F9B0010000000000000000004C
:10B0B0000000000000000000000000000000000090
:10B0C0000348854600F092F8004800475DEE010015
:10B0D000703F00200321094802680A4302600848C3
:10B0E00002680A4302600748804707480047FEE7B6
:10B0F000FEE7FEE7FEE7FEE7FEE70000240500406E
:10B100005405004001B90100C1B0010030B50B4643
:10B11000014600202022012409E00D46D5409D4231
:10B1200005D31D469540491B2546954040191546B7
:10B13000521E002DF1DC30BD70B5002425460028DC
:10B1400001DA01244042002901DA01254942FFF7D2
:10B15000DDFFAC4200D04042002C00D0494270BD1F
:10B1600003460B439B0703D009E008C9121F08C020
:10B17000042AFAD203E00B780370401C491C521ECB
:10B18000F9D27047D2B201E00270401C491EFBD2D6
:10B1900070470022F6E710B513460A4604461946E2
:10B1A000FFF7F0FF204610BD421E5378521C002BC3
:10B1B000FBD10B781370491C521C002BF9D170473E
:10B1C00030B504460020034600E05B1C934203D2E6
:10B1D000E05CCD5C401BF8D030BD03460A780270BD
:10B1E000401C491C002AF9D118467047064C01251D
:10B1F000064E05E0E36807CC2B430C3C984710341F
:10B20000B442F7D3FFF760FF6825020088250200EB
:10B2100070B58C180578401C6B075B0F01D1037863
:10B22000401C2A1106D10278401C03E006780E70FB
:10B23000401C491C5B1EF9D12B0705D40023521E6C
:10B240000DD40B70491CFAE70378401CCB1A921CF2
:10B2500003E01D780D70491C5B1C521EF9D5A142FC
:10B26000D8D3002070BD0000F0B50025FF268BB0BC
:10B27000013601242F460195304604F047F9002895
:10B2800007D048484068204203D0304604F036F9E1
:10B290002543361D64007F1CB6B2042FECD3FF2477
:10B2A0007D34204604F032F9002807D0204604F00F
:10B2B00025F9600705433C48006901903B4C28078D
:10B2C00014D0012700262F420CD03948B2001118A3
:10B2D00008690969C004C00E8903A258890F002AB1
:10B2E00000D090477F00761C042EECD3002D57DA57
:10B2F00000200590401E4DE0A119403108788506D8
:10B30000AD0E42B2521C39D00121A940089A0091D9
:10B31000114233D080090390284601F0ABFE800033
:10B3200020580490002802D10398032826D10398BE
:10B330000099032802D10598084305901D4AA800EA
:10B3400080180068019A8003800F114202D0022801
:10B3500002D013E0032811D10399032907D1022851
:10B360001CD00221284604F0B9F87F1CFFB20498D3
:10B37000002803D0049A284603999047761C042E8F
:10B38000BAD3002F0CD0084800690199884207D031
:10B390000190059800273E460890ADE70321E1E7BC
:10B3A0000BB0F0BD0063004000050050E028002015
:10B3B00000650040000700508307FF22DB0E9A4023
:10B3C0008907090E994000280BDA0007000F08389A
:10B3D000830808489B001818C36993430B43C36153
:10B3E0007047830804489B001B1818689043084363
:10B3F0001860704700ED00E000E400E0F8B5FF20C1
:10B40000013003F0E1FE002401250E4E0E4F00280E
:10B4100007D00E4804600120B0607D70002001F06C
:10B420006BFEFF20053003F0CFFE002808D0074850
:10B43000001D04600220B060BD70012001F05CFEC0
:10B44000F8BD000000030040CC28002000010040AF
:10B4500030B50E4B8BB00FCB6D46039309956B4601
:10B4600007C30A24684604850221017404A9012047
:10B4700070DF002801D000F069FE6846079504845B
:10B4800007A9232068DF0BB030BD0000982302001D
:10B49000F0B58BB00AA838DF08A8027A43A10020D3
:10B4A00000F044F9642700247D25474E2D0109A8AA
:10B4B00039DF08A8007902281AD8BC4205D143A177
:10B4C000002000F033F90BB0F0BD4A49326828463D
:10B4D00000BF00BF00BF00BF00BF00BF00BF00BF74
:10B4E0008A4200D000BF401EF2D1641CE4B2DEE705
:10B4F00008A8027963004049002000F017F90321F1
:10B5000007A83ADF6846807F00906846437F027F45
:10B510003AA1002000F00AF9002007A904AA022499
:10B52000231ACB5C1354401C0328F9D36846807C53
:10B5300000906846437C027C35A1002000F0F6F8BC
:10B540006846807C41084900214368468174009127
:10B55000437C027C33A1002000F0E8F808AA04A98B
:10B560003A4802F0BDFD08A88078009008A843780A
:10B57000027837A1002000F0D9F8032208A905A815
:10B58000FFF7EEFD04A90322C81DFFF7E9FD684699
:10B59000437E027EC17D807D6D460FC56846437D3A
:10B5A000027D32A1002000F0C1F88CE752616E6488
:10B5B0006F6D20706F6F6C20636170616369747967
:10B5C000203A2025750A000030210020556E616266
:10B5D0006C6520746F2067657420656E6F75676891
:10B5E0002072616E646F6D206E756D626572730A94
:10B5F000000000000024F40018250200686578208F
:10B600007072616E64203A202578257825780A00CA
:10B610007072616E645F6C65203A2025782578250C
:10B62000780A00007072616E645F6C6520616674F8
:10B6300065722073657474696E6720626974732023
:10B640003A202578257825780A0000009823020002
:10B6500047656E6572617465642068617368203A3D
:10B66000202578257825780A0000000047656E655A
:10B67000726174656420525041203A202578257803
:10B6800025782578257825780A00000010B5064928
:10B690000020086048608860C8600349403908603D
:10B6A000486006F03FFB10BD4011014070B5074BEC
:10B6B0000646187814460D46002801D100F07AF9A4
:10B6C00022462946304600F003F870BDF82E0020CF
:10B6D00070B50E4618214843134914464518E86AC8
:10B6E0001835002804D001280FD0022805D113E016
:10B6F000284600F095F9A04201D2002411E022462C
:10B700003146284600F0B7FA0BE0284600F088F9E9
:10B71000A042F4D20446F2E73146284600F07BFA14
:10B720000446204670BD0000F82E00200FB408B576
:10B7300004A900916A46039900F004F801B008BC1E
:10B7400004B01847F7B598B007A80290402000252C
:10B750000495039018980C46059506902178641C72
:10B76000002977D0252907D002A800F035FA0598DE
:10B770000028F3DA1BB0F0BD012200210227134696
:10B780000826207823281BD02B2816D02D2802D05D
:10B79000302806D101E0194300E03943641C002A37
:10B7A000EFD1002220780346303B0A2B0AD20A232D
:10B7B0005A431218303A641CF4E704200143EDE7C1
:10B7C0003143EBE70023C7B22E2F0AD1641C207847
:10B7D0000746303F0A2F04D20A277B431B18303B11
:10B7E000F4E76C280DD068280BD0702852D00BDC01
:10B7F00025285AD058282ED063280CD0642858D138
:10B8000010E02078641CECE7732832D0752817D03C
:10B8100078284ED11FE01A981A9A0068011D11600D
:10B82000017843E01A981A9F0068061D3E60006880
:10B830000191009201460A2202A800F0FCF838E0CB
:10B840001A981A9F0068061D3E60006800920191D8
:10B850000A2209E02FE01A981A9F0068061D3E6030
:10B860000068009201911022014602A800F048F9F8
:10B870001FE01A981A9A0068011D11600668317855
:10B88000761C002915D002A800F0A6F9059800281A
:10B89000F5DA0EE01A981A9A00680823011D116063
:10B8A0000168102200960195DFE7252102A800F02B
:10B8B00093F9641C5BE70598002800DC5AE70498BC
:10B8C000002804D0024607A91898FFF7EFFE049954
:10B8D0000598401805904DE710B506F095F910BD94
:10B8E00010B506484068002805D08047002801D0E0
:10B8F00000F02CFC10BD02F055FF10BD1C210020F3
:10B9000010B502F09DFF002805D01F491D48486072
:10B91000C8131E4988611E48018CC9B201290BD188
:10B92000828C120708D1028D1206120F042A03D14D
:10B93000828D1206120F0AD0012921D1818C0907AC
:10B940001ED1018D0906090F0A2904D007E0114A0A
:10B9500001219160F5E7828D1206120F05D00D29A5
:10B960000ED1808D0006000F0AD10B480168012915
:10B9700004D00A49016001680129FCD1C02141615C
:10B9800010BD0000DFFF07C000050040006C004054
:10B99000C00F00F00006004000EC06407593000068
:10B9A00010B50249024806F026FA10BD28290020E9
:10B9B0000020004010B5124C02202061606111A0EF
:10B9C000A0611348E0610120800220620020A06293
:10B9D00060620CA1A1642146E0621039E16410218B
:10B9E0002165A0656065E0650AA1E01DFFF7F5FB34
:10B9F00009A12046FFF7F1FB2020A07110BD000037
:10BA0000F82E00205465726D696E616C00000000B4
:10BA1000E82A00205254540053454747455200003D
:10BA20000269C1688A4203D88068401A801800E021
:10BA3000501A401E7047FFB583B00E4670420D9FEE
:10BA40000C9C0090002900DB0846012502E0FFF76E
:10BA500073FB6D1C05998842F9DA0698A84200D953
:10BA60000546002C04D0002E01DB780700D5641EAB
:10BA7000B80702D50698002810D0F8070ED1002C80
:10BA80000CD0A5420AD22021641E039800F0A4F82D
:10BA90000398C0680028F2DA07B0F0BD0398C068C8
:10BAA0000028F9DB002E02DA2D21009E02E0780743
:10BAB00007D52B21039800F08FF80398C068002861
:10BAC000EADBB807800F022810D1069800280DD1B4
:10BAD000002C0BD0A54209D23021641E039800F03F
:10BAE0007BF80398C0680028F2DAD5E70197009444
:10BAF0003146069B059A039800F002F8CCE7000057
:10BB0000FFB581B001261F4634460A9D029802E027
:10BB1000FFF7FCFA641C03998842F9D2A74200D9C6
:10BB20003C460B98C00718D1002D16D00B98800703
:10BB300001D5002F02D0202000900CE03020FBE740
:10BB40006D1E0099019800F047F80198C068002820
:10BB50003DDB002D01D0AC42F2D30198C068002833
:10BB600035DB012F01D97F1E06E031460298FFF731
:10BB7000CDFA0399884202D303984643F1E7154F63
:10BB800031460298FFF7C2FA0146029A7143511AF0
:10BB90000291395C019800F01FF80198C0680028F4
:10BBA00005DB30460399FFF7B1FA0600E8D10B98A0
:10BBB000C0070CD0002D0AD0AC4208D220216D1E47
:10BBC000019800F009F80198C0680028F2DA05B081
:10BBD000F0BD00000825020010B5044680686368C7
:10BBE000421C934205D323681954A260E068401CAC
:10BBF000E060A2686068824209D121682069FFF78D
:10BC000055FDA168884203D00020C043E06010BD0C
:10BC10000020A06010BDF7B5064682B0002000905D
:10BC2000F46817463069A04201D9051B02E0B168EB
:10BC3000201A0D1AB0686D1E001BA84200D80546D8
:10BC4000BD4200D33D4670682A4600190399FFF7AC
:10BC500087FA00987F1B40190090039864194019D7
:10BC60000390B068A04200D10024F460002FD9D125
:10BC7000009805B0F0BDF7B5C66817460446806861
:10BC8000851B6068BD4206D980190199FFF768FAE3
:10BC9000F019E060FEBD2A4680190199FFF760FAAD
:10BCA00001987E1B411932466068FFF759FAE66039
:10BCB000FEBD30B47446641E2578641CAB4200D2CD
:10BCC0001D46635D5B00E31830BC184702E008C8FE
:10BCD000121F08C1002AFAD170477047002001E006
:10BCE00001C1121F002AFBD170470000202804DA8E
:10BCF000012181400348014201D00120704700200A
:10BD000070470000FC06FFBC10B500280CD00029CD
:10BD10000AD002780B789A4206D10622401C491CB0
:10BD2000FFF74EFA002801D0002010BD012010BD01
:10BD3000F7B584B00646002517881580203002909C
:10BD4000407B1446002806D03A462146059800F06C
:10BD500043FE050009D1B078002823D00598864617
:10BD60002088001DB84202D90C2007B0F0BD6846FB
:10BD700079DF0028F9D121880320724650542088A9
:10BD80001921401C80B22080115420887146401C2B
:10BD900080B2208041186846008806F0C0F82188EB
:10BDA00040182080F078002817D0218803230A4605
:10BDB000F356C91C0598B942D6D80221815421886E
:10BDC0000122491C89B2218042542188491C89B230
:10BDD000218043542088401C20807068002817D0A0
:10BDE00021880023C3560A46C91C0598B942BBD80E
:10BDF0000221815421880A22491C89B2218042549F
:10BE00002188491C89B2218043542088401C20800D
:10BE1000308900280AD0009430460197062202217A
:10BE20000830059B06F0A2F805009ED1308A002854
:10BE30000AD0009430460197072203211030059B59
:10BE400006F094F8050090D1308B00280AD00094B9
:10BE500030460197152214211830059B06F086F80C
:10BE6000050082D1306A002806D03B46224605995B
:10BE700001F0D6F90500D8D1706A002806D03B46FB
:10BE80002246059903F0D4F80500CED10298007B34
:10BE9000002807D03B4622463046059905F048FB6E
:10BEA0000500C2D13078002807D03B4622463046F4
:10BEB000059903F0F1F80500B7D1284655E70000D1
:10BEC000174A0021535C002B01D0012203E0491CDA
:10BED0000629F7D300221349012806D002280BD0E7
:10BEE000032810D0042818D112E04878002803D085
:10BEF000002A01D0012070478878002803D0002A4A
:10BF000001D002207047C878002801D00320704774
:10BF10000879002801D004207047002070470000F5
:10BF2000312000208822002010B5012202210020AB
:10BF300000F0CCFE002801D0072812D107220221F0
:10BF4000012000F0C3FE002801D0072809D10021FC
:10BF50000A22084600F0BAFE002801D0072800D1C6
:10BF6000002010BD30B58DB00C4605463021684626
:10BF7000FFF70FF9164B0FCB03936B4607C3294608
:10BF800004A810220546FFF7EBF81022694611A01D
:10BF900004F0BEFD1022294613A004F0D9FD1022A2
:10BFA000294617A004F0B4FD68464DDF002801D0F3
:10BFB00000F0CCF808A910220D462046FFF7D0F873
:10BFC0001022294614A004F0A3FD0DB030BD0000DE
:10BFD00088230200656362206B6579202868657894
:10BFE00029203A200000000065636220636C6561CF
:10BFF0007274657874202873747229203A200000C6
:10C0000065636220636C656172746578742028686A
:10C01000657829203A2000006563622063697068B2
:10C02000657274657874202868657829203A200044
:10C03000F0B50F468DB0002116466D460F24621AEA
:10C04000825C6A54491C1029F9D328460D2110300E
:10C05000FFF79FF80020221A395C5219401C117416
:10C060000328F8D368464DDF0020211A49192031F2
:10C0700009783154401C0328F7D30DB0F0BD0000FF
:10C08000044842680121C9050B46934383600A4076
:10C09000C26070470005005070B50024064D06E0F0
:10C0A0006968E000085C012103F01CF9641C287831
:10C0B0008442F5D3002070BDC0200020F8B515469D
:10C0C0000C460646052A01D20720F8BD03F0E0F928
:10C0D000002803D103F0AEF90028F6D11049002062
:10C0E0004E600C70C8608D6008610E4D0DE0E00080
:10C0F00069688019009181786A46517000780A4A0F
:10C10000694603F03BF90028DFD12046641EE4B203
:10C110000028ECD1054A0021024800F023F8F8BDC0
:10C12000C0200020EC24020099E10100B5D30100F9
:10C13000BFF34F8F04490348C860BFF34F8F00BF60
:10C14000FDE700000400FA0500ED00E00EB5002157
:10C15000029000916A4601910148FFF7E9FF0EBD88
:10C1600001400000094B5B68002B07D0002A07D074
:10C17000002805D00068037C002B03D008207047FE
:10C18000072070474174426100207047E42000207E
:10C19000FFB507469007002581B01E4614460028CB
:10C1A00025D1002C23D004F03BFF3046114EF06027
:10C1B000304610300570457002998170446075609A
:10C1C000357001240C487570240504600321142087
:10C1D000FFF7F2F809480460094CA7600321112019
:10C1E000FFF7EAF86068B060002005B0F0BD0720F6
:10C1F000FBE70000D420002080E200E000E100E046
:10C2000000150140FEB51F4B5B68002B30D00028A5
:10C210002ED0052901D20720FEBD4369002B27D06F
:10C22000437C012B26D00027029104460025694655
:10C2300016460D70684600F03DF801A805F080FE36
:10C24000002819D0012101700F49446049688160BC
:10C25000029907614661C16068460A4900794870E1
:10C260006846007800F044F805F010FD2846FEBD51
:10C270000820FEBD0F46D7E768460425007800F089
:10C2800037F8F3E7E42000200015014010B5084915
:10C29000496800290AD0002808D04169002905D042
:10C2A00000210174022105F019FD10BD082010BD08
:10C2B000E420002030B5EFF3108172B6094A5468CB
:10C2C0000123002C04D00370002900D162B630BDD8
:10C2D0005360054B1D68054C254015601C6000220D
:10C2E0000270F1E7F820002080E100E0FC06FFBCCE
:10C2F00008494A68002A0CD000280AD1EFF31080C0
:10C3000072B60A68044B1A6000224A60002800D105
:10C3100062B67047F820002000E100E0F0B5044666
:10C320008BB0008800F0F4FA0590208802F0A8F99C
:10C330000646A0680090657A684605741E4F2088FE
:10C340000022397800F034FB0598002831D060795C
:10C35000400710D50721304603F086FC002813D093
:10C36000082269460A7422884A828E82069004A8AE
:10C3700001F010F908E02088B97800F007FB0028E8
:10C3800002D0304602F066F9032168460171218827
:10C39000C18060794007C10F68460172A0794007EB
:10C3A000C10F6846417201788172C57201A801F01F
:10C3B000F1F80BB0F0BD0000A4200020F0B50C4651
:10C3C00093B01F216A46118007260027918000281C
:10C3D00009D0C17849070DD502A9FFF7A9FC0028AB
:10C3E00009D102AD01E000251780002C0ED0E078C5
:10C3F000002802D0304613B0F0BD01AA0AA9204699
:10C40000FFF796FC0028F6D10AAA02E0684600224F
:10C41000878068468088C3B268460088C1B22846D3
:10C4200072DFE8E7FFB581B01E460A9F134604009D
:10C4300047D0002B45D0504D012028700020E870D7
:10C44000202219464D48FEF78BFE00206F61C04345
:10C450002E612881284607211830FEF79AFE4748AA
:10C4600038212030FEF795FE4448217820300170B5
:10C47000A1788170E178C170617841703F4A656947
:10C4800023695563114613632031E368A268CB60CA
:10C490008A603A49E369A269CB638A63616A0029C9
:10C4A0001AD0014638310246443241628A60636ADA
:10C4B0001B880B80616A436A898899800021436ADE
:10C4C00007E00E2005B0F0BD656AAD686D5C55549F
:10C4D000491C9D888D42F7D8A16A00291CD0274AA3
:10C4E000903211460C398A608162A36A9B888B80E6
:10C4F000A16A836A098819800021836A04E0A56A19
:10C50000AD686D5C5554491C9D888D42F7D82C212F
:10C510000A5D1A4940310A73216A002909D0164977
:10C520000A310162226A52884A80216A026A0988B5
:10C5300011806168002900D04160104A0E49002036
:10C54000AF322031C3001B1A85009B180C68401CB9
:10C5500063510828F6DB094A0020E7320301850011
:10C560009B188C68401C63510828F7DB034802992C
:10C570002030FFF723FFA5E71820002088220020A5
:10C5800010B50188134C102915D0112919D01B2979
:10C5900010D1007A00280DD1E0780521401CFEF76B
:10C5A000B5FD084600F04EF8002803D06169002967
:10C5B00000D0884710BD817D0129FBD18088208172
:10C5C00010BD00216171808821898842F8D1012045
:10C5D000E8E700001820002010B5022801D0032849
:10C5E0000ED1084C607800280AD000206070E078F6
:10C5F00000F028F8002803D06169002900D088479E
:10C6000010BD00001820002010B574DF0B4C012075
:10C6100060710B490620C87000210948FFF7CEFE63
:10C62000002809D1E07800F00DF8002803D06169F6
:10C63000002900D08847002010BD000018200020ED
:10C64000A8220020F1B53F4C88B0207800280AD0FD
:10C650000898E07006A801F0C3FA069801250028A2
:10C6600004D065706AE0082009B0F0BD35480027A5
:10C6700007211830FEF78DFD334E7078002802D068
:10C68000E078012807D0B07800280CD0E0780128A5
:10C6900001D0022807D12169002903D02571082083
:10C6A000884700E027710898FFF70AFCE0702169CD
:10C6B000002909D0032801D0042805D130780028AA
:10C6C00002D06079002811D0A77118216846FEF7C2
:10C6D00060FD684607700772E1781A480B00183051
:10C6E000FFF7E7FA052E080F191D2000A571072096
:10C6F0008847EAE7A570019068460570478207827F
:10C7000013E00221A170019068460570B189418251
:10C710003189018209E0684604F052FF02E0684670
:10C7200004F07AFFE078002803D0684673DF002821
:10C730009AD12169002901D0A0788847002093E789
:10C74000A770F6E71820002088220020F8B5214CB9
:10C750000146028800261E48E589102A13D01E4F84
:10C76000112A1FD0122A2BD0502A1AD1881DC9880D
:10C77000A94216D14189022913D10C3000F06FF97A
:10C7800000280CD112E08A88044642801048082212
:10C790000C301831FEF7E4FC6670002D01D100F07A
:10C7A00083FDF8BD0021C943418046703868FFF71A
:10C7B0006DFD0028F5D0A1690029F2D08847F8BDA9
:10C7C000034808220C300831FEF7CAFCE7E70000F6
:10C7D00048200020502400205824020010B50349AE
:10C7E0000A7D091D04F0F1FC10BD00006C2400203E
:10C7F000034B10B50246D97D181D04F0D3FC10BDC3
:10C800006C240020034B10B50246197E181D04F05D
:10C81000C9FC10BD6C240020F0B5044602883A48DB
:10C820008DB0014615310191102A09D0112A50D03E
:10C830001A2A4AD1217A090901294ED901234DE04A
:10C84000027D417D05468A43011D07A804F0BDFC19
:10C85000142207A902A8FEF783FC00262A483746BF
:10C86000143008900AE0710002A8081883881D227D
:10C870000097281D089904F055FC761C0298B042D8
:10C88000F1D8287DA688C043C0B204F06FFC1F49D0
:10C89000884217D040004019868001233246281D67
:10C8A000019904F0B5FC01233246281D089904F0D3
:10C8B000AFFCA07D02280AD000231349A2881631BC
:10C8C000281D1DE00420FFF741FC0DB0F0BD012341
:10C8D000F3E70023A288001D12E000230A49054661
:10C8E000A2881731001D04F093FC207A0009022869
:10C8F00001D9012300E000230349A2881831281D33
:10C9000004F086FCE1E700006C240020FFFF00003B
:10C9100070B50B4E05460024317D2A46301D04F0CB
:10C9200041FC002809D0B17D2A46301D04F03AFCB4
:10C93000002801D0022400E00124204670BD000040
:10C940006C24002010B50024204605F0EDFA0028E4
:10C9500005D0641CE4B2182CF6D3182010BD04488E
:10C9600001220168A24011430160204610BD000071
:10C970006C24002010B5044605F0D6FA002802D039
:10C9800001480019407E10BD6C24002070B505469A
:10C990000C46084605F0C8FA002806D003482A4687
:10C9A0000119497E001D04F0FDFB70BD6C240020C0
:10C9B00070B5064615460C46084605F0B5FA00283F
:10C9C00007D004482B4601193246001D193104F0E6
:10C9D0001FFC70BD6C2400207CB5054608880C4601
:10C9E0000930904201D90C207CBD684671DF0028D7
:10C9F000FAD121880820685420881B21401C80B26D
:10CA000020802954208800A9401C80B22080401931
:10CA100006220131FEF7A4FB20886946801D80B202
:10CA200020800978002900D0012129542088401C49
:10CA3000208000207CBD10B50446FFF7EDFE2046A7
:10CA400003F00AFE2046FFF781FE204600F070F852
:10CA5000204602F083FD2046FFF792FD10BD41788D
:10CA6000027808021043C007C00F704700B517488E
:10CA700087B00068059000234822154905A805F0F5
:10CA80007BF8002801D0FFF761FB6A4601210020F6
:10CA900005F05AF8002801D0FFF758FB684605F06A
:10CAA00049F8002801D0FFF751FB0A4805F038F893
:10CAB000002801D0FFF74AFB074805F08FF800284F
:10CAC00001D0FFF743FB07B000BD00008423020044
:10CAD000C421002037CA0100F11B02007CB5134EAF
:10CAE00000250C463060002918D06946002000F06F
:10CAF000B5F8002819D101A9012000F0AFF80028ED
:10CB000013D1684601790020002901D0022004E0F9
:10CB100069460978002900D00B2020707068002831
:10CB200002D1FFF701FA054628467CBD10200020FF
:10CB300010B51C4C0188606810290DD011290AD14C
:10CB4000401E606007D1FFF7EFF9002803D021688D
:10CB5000002900D0884710BD00281ED100210122E5
:10CB6000084600F0B3F8002801D0072811D10722A9
:10CB70000221012000F0AAF8002801D0072808D1DE
:10CB800004220221002000F0A1F8002805D0072887
:10CB900003D02168002900D088476068401C60608D
:10CBA00010BD00001020002010B5032000F00CFA8A
:10CBB000002801D0062800D1002010BDF8B5074696
:10CBC0000024234802E0641C042C1AD2A2008258DC
:10CBD000BA42F8D1042C14D21D481E4E0C3800293C
:10CBE00029D001290ED002290BD16000201880190C
:10CBF0004578002D05D018480169002901D0284644
:10CC00008847F8BD61006118755C8E19717800293C
:10CC10000CD011490A224968806851430E4A521CBF
:10CC2000FFF7F0FA002801D10B4847700A48B178A5
:10CC300014300155DDE78068FFF728FB06486100E6
:10CC4000611814308919005D8D78A842D1D0F8BDE3
:10CC5000282402005C220020F81F002004280CD2A7
:10CC6000074A1269074B80001B5C012098409043E3
:10CC700000D001200870002070470020FAE7000073
:10CC80000005005028240200014610B50D48042973
:10CC9000008806D007290CD00A2901D104F0E6FC4F
:10CCA00010BD132176DF09E00028F9D0FFF74EFA16
:10CCB00010BD05498842FBD1FFF7A6FC0828F3D137
:10CCC00010BD0000E81F0020FFFF000070B500232A
:10CCD000042811D2440004190D4D012A02D1012962
:10CCE0000DD0002246008019094E801900290CD071
:10CCF000012906D0022906D00723184670BD0D3041
:10CD0000C2B22A55F9E74270F7E78270F5E70000F2
:10CD10005C22002010B5054A0146127A0020D20795
:10CD200002D0084600F054F810BD0000F81F0020A3
:10CD300070B50E46204905464E608D6000200A61A0
:10CD4000A9071ED50024012211462046FFF7BEFF89
:10CD5000641C042C02D20028F5D012E0002810D167
:10CD6000720804211548FFF7A9F9002809D1FFF737
:10CD700093F9002805D11148114A00211438FFF712
:10CD8000F1F9E90706D00F220E4952058A60002307
:10CD9000CB608A6100280DD108480B4A00211C385D
:10CDA000FFF7E0F9002805D10448084A01211838A6
:10CDB000FFF7D8F970BD0000F81F002038240200EA
:10CDC00005D0010000050050ADE8010081C0010060
:10CDD000FEB57A4D0722EB6892059A4302936B6881
:10CDE00000939C0006461B19002001210193490570
:10CDF0000746734C3300FEF75CFF180D15153747D7
:10CE000055677C887F8891DE9E9E9E9E9EC8CED16F
:10CE1000D8DEDE140F21029A49059143A160E76034
:10CE20002F70FEBDA260E76060680F22520550407F
:10CE3000800209D5A160E760022E02D1E120C00086
:10CE40000AE07D20400107E0E160A760022E01D1E9
:10CE5000C82001E0FF2091302E706421FEF756F9C2
:10CE60000099414300223FE0A260E76060680F2222
:10CE700052055040800204D5A160E76019204001AE
:10CE8000EAE7E160A760E3E7A260E76060680F227D
:10CE900052055040800202D5A160E760D1E7E16011
:10CEA000A760D7E7A260E76060680F225205504094
:10CEB000800202D5A160E76001E0E160A7602E700A
:10CEC0000098410000220FE0A260E76060680F2236
:10CED00052055040800202D5A160E76001E0E160A8
:10CEE000A7602E700099002236480068FFF78AF983
:10CEF000FEBDA260E7601BE061680120800502467C
:10CF00008A43A2600140E16010E060680121890568
:10CF10000A468243A2600840E060E3E760680121BE
:10CF200089050A468243A2600840E0600199C9E78A
:10CF3000E160A7602DE023484068FFF7A7F91121C1
:10CF40008A1B01D0002807D00F22E9685205114042
:10CF5000A160E760EF60FEBD0121C905E960012A1B
:10CF60000CD91046C82148436421FEF7CFF8696800
:10CF70000022414313484068FFF744F90F22E96853
:10CF800052051140E160A760FEBD0F214905A16077
:10CF9000E7602E70FEBD07229205AAE70D21490524
:10CFA000A160E76001218905C2E70321C905A160ED
:10CFB000E7608910BCE70F214905B9E7F81F002099
:10CFC000000500501C240200F0B500210B4C0C4D54
:10CFD00003273F048A00A2589200561932680123A1
:10CFE0008B40034000D00323BA431B041343336038
:10CFF000491C0429EED30020F0BD000028240200C3
:10D000000007005010B500780221FFF7D7FD10BDD2
:10D010000022D243830004490428CA5002D30818CE
:10D020002030027770470000E0280020F0B500258E
:10D03000ED43002A02D00023042601E00423082641
:10D040000B4C04E09F00E7597F1C04D05B1CB342EB
:10D05000F8D32846F0BD26185DB2203635709E0004
:10D06000A151002AF5D1E11820310877F1E700003D
:10D07000E0280020024909182020085670470000C7
:10D08000E0280020002807D00449814204D8044940
:10D09000814201D901207047002070473C210020C7
:10D0A0004C210020044A0168914201D0083101E07E
:10D0B0000149383901607047402A002070B50D4D94
:10D0C00004460A462846AC4208D1FF2401342146D2
:10D0D000104603F07FFAA0420AD070BDFF2CFCD8A6
:10D0E0002146104603F068FA002801D0204670BDA2
:10D0F000284670BDFFFF000070B5084C050009D040
:10D1000010342168002907D0086820604968284643
:10D110008847F6E70834F4E770BD0000CC2800200B
:10D12000F8B52348416800293ED00E6821494C6873
:10D1300087688078E11B0D022D0AED1C002814D1B0
:10D1400001201D4A000450601B4A403A50601B49B0
:10D15000400008601A4908601A49012008602F2021
:10D1600002F03AF8124901208870B54200D23546E3
:10D17000E81900020F4B000A403318600D4A51684D
:10D18000001B091B0902090A0002000AC91C81428E
:10D1900009D9506818602F2002F01EF801200749B5
:10D1A000400480390860F8BD03F03AFFF8BD000084
:10D1B000D4200020001501404013014080E200E02F
:10D1C00000E100E0001001400748064901600748FF
:10D1D0000022027002710122427181600449C16023
:10D1E00070470000983A0000EC1F00200C2200203D
:10D1F00040420F00074806490160074801220270BB
:10D20000002202714271054A8260C16070470000CD
:10D21000983A0000EC1F00200C220020A08601009C
:10D22000F8B50646108814468446801D0D4698427F
:10D2300001D90C20F8BD32880720062AFAD3192715
:10D24000FF01184BBA4201D99A42F3D171880629DD
:10D25000F0D3B94201D99942ECD19A4203D0994214
:10D2600001D08A42E6D8052160462954208812213F
:10D27000401C80B2208029542088401C80B220802D
:10D280004119308804F04BFE2188401880B220807C
:10D290004119708804F043FE218840182080002046
:10D2A000F8BD0000FFFF0000F8B5164801F0BAFA1B
:10D2B000144D00260C3D144C002807D0616900294C
:10D2C0001CD001206A461070684616E028780028B5
:10D2D00005D06169002911D0684606700DE06878B4
:10D2E00000280DD0A168094800220068FEF78AFFD7
:10D2F000002803D0A169002900D088472E70F8BD0E
:10D300006168F0E7542000205024002058240200D7
:10D31000F0B585B00C46002802D0012005B0F0BD64
:10D32000207900270126002806D01F4D012820D093
:10D3300002282CD00F20F1E702970397E0680190B4
:10D34000694601A803F080FD00280ED0029881886C
:10D35000E18000882081029803F0F0FD6946098889
:10D360000A01124951188E7300E00A20022121712E
:10D37000D4E70F4B6A460021A01D03F023FD0028CF
:10D3800007D00B4908398F60CF600A28C6D12846DC
:10D39000C4E7019803F0D2FD054989880A010349D1
:10D3A00051188E73F1E700001D1D0000502A002067
:10D3B00008210020F8B500260124154D23E06968F6
:10D3C000F0004718387821462A698140114218D068
:10D3D0008A432A6102F024F83A782146EB689140AA
:10D3E00019400346934099420BD17978012901D025
:10D3F000012100E000217B684140002B01D0104654
:10D400009847761CF6B228788642D8D3F8BD00003B
:10D41000C020002010B50E4900230A784C78A242A3
:10D4200012D0521CD2B20A70022A00D10B700A78B4
:10D43000074B920018339A5802608868101800024F
:10D44000000A8860012010BD0360002010BD0000AC
:10D45000D42000203EB5094D38CD009302950194AB
:10D460006B46588099809A71054900220978FFF728
:10D470009FFA684600F08EF83EBD0000DC240200F2
:10D48000A420002010B5047800222300FEF711FC30
:10D49000070605070D1D262C06000A7010BD012287
:10D4A0000A7002898A81828814E002220A70028945
:10D4B0008A818288CA81C2688A60007C062802D07C
:10D4C0000020087410BD0120FBE703220A70C28807
:10D4D0008A810289CA81C068886010BD04230B70EC
:10D4E000C0888881CA8110BD0520087010BD000069
:10D4F00070B5064D06460024A0002958002901D029
:10D5000030468847641C082CF6D370BD7029002073
:10D510000EB5002910D011290ED0002200920292DF
:10D520006A46508001910D2907D0042907D00920AF
:10D530001070104600F03CF80EBD0B20F8E70A20F2
:10D54000F6E7000001490968084700006420002050
:10D5500070B5054D06460024A0002958304688477E
:10D56000641C022CF8D370BD74240200F8B5074681
:10D570000024064E064D04E0A00031583846884786
:10D58000641CE8788442F7DBF8BD000080280020A6
:10D590009420002070B5054D06460024A0002958AF
:10D5A00030468847641C022CF8D370BDA4240200C6
:10D5B0000149096808470000E82402007FB50446D5
:10D5C000406800280BD00020039020780026414DB1
:10D5D0000300FEF76EFB066D0606304E7B6D0120E4
:10D5E000F2E7A08900F0DCF9002804D1E08903F01B
:10D5F000BDFC00285CD0A08900F0CCF9014668464B
:10D600004180E08903F0ACFC014668460171207856
:10D610000128606807D0002809D0042069460870F6
:10D620006068039020E00028F8D00320F6E701208E
:10D63000F4E708463AE0A08900F0B2F9002804D1E6
:10D64000E08903F093FC002832D0A08900F0A2F911
:10D6500069464880E08903F083FC69460871606888
:10D66000002804D005200870A0680290E1E702209D
:10D67000F9E7A08900F094F9002819D0E089002882
:10D6800016D1A08900F086F969464880E08903F048
:10D6900067FCFF2069460871606800280FD00720EA
:10D6A00008706E70AE7002F0B9FC684602F074FB50
:10D6B0006878002802D06E7002F0B0FC7FBD0621B1
:10D6C00068460170408802F037FDEAE708206946A5
:10D6D0000870AEE78020002000B5104987B00978B7
:10D6E000890702D4022007B000BD0D49884201D14C
:10D6F0000420F8E7052269460A7001220A71C880F1
:10D7000000221146684601F0A5FF002803D003F06F
:10D71000FFFA0020E7E70820E5E7000000210020ED
:10D72000FFFF000000B50F4887B00078800702D4E3
:10D73000022007B000BD062069460870002211468D
:10D74000684601F087FF002809D0074801780029C2
:10D7500001D00121017303F0DBFA0020E9E7082082
:10D76000E7E7000000210020702A002000B58DB0FE
:10D7700014216846FDF70DFD1E480078810703D58A
:10D780006846FFF7B5FE32E0C00730D1012000F057
:10D790002DF900F0CFF901F0EFFF00280ED0062898
:10D7A0000FD001216A4611750300FEF782FA0C19A9
:10D7B0001119111918191819131613190B200DB076
:10D7C00000BD022000F012F9012000F0F5F8D7E7C3
:10D7D000002000E00320107602E00220FBE7117633
:10D7E0000022114605A801F035FF03F091FA002050
:10D7F000E5E700000021002038B5040014D0694698
:10D8000003F022FB002813D0684600880101094874
:10D8100009188889002809D0A27A002A06D0401E5B
:10D8200088810020A07238BD052038BD062038BD93
:10D830000A2038BD502A00201FB501A9684603F010
:10D84000C1FA04B010BD07B513460A466946002068
:10D8500003F0B8FA0EBD07B513460A460021684624
:10D8600003F0B0FA0EBD002805D0002903D00068EF
:10D8700008600020704705207047000038B50D464D
:10D88000040017D0002D15D0694603F0DDFA0028FA
:10D8900012D0684600886168020108481218908911
:10D8A000401C9081296060680C3068600120A07283
:10D8B000002038BD052038BD0A2038BD502A002080
:10D8C00010B5002804D00323002204F029FC10BD69
:10D8D000052010BD10B50223002204F021FC10BD6C
:10D8E00010B5002A03D0022304F01AFC10BD052055
:10D8F00010BD000010B5064A5178082906D08B00EB
:10D90000044C491CE0505170002010BD0C2010BD8B
:10D91000002100207029002038B504460A480D4631
:10D920000078800701D4022038BD002C0AD0694657
:10D93000284604F001FD0028F6D1694609882180B7
:10D94000658038BD052038BD0021002010B5044693
:10D950000E480078800701D4022010BD002C10D0A2
:10D96000218802290FD80A4A080180184289608854
:10D97000121A032A07D404F0D5FC0020208060800E
:10D9800010BD052010BD042010BD000000210020A6
:10D99000502A002003218903401A80B270470000FA
:10D9A00003218903401A0349884201D801207047A6
:10D9B00000207047FE3F000002490A7882430A7047
:10D9C000704700000021002010B504460078182898
:10D9D00002D1FEF7B7FF207010BD10B504460078E5
:10D9E000182802D1FEF7AEFF207010BD02490A7858
:10D9F00002430A70704700000021002070B50646FF
:10DA000000200546042906D0112902D0002903D0A0
:10DA100070BD012500E001200E4C002A02460FD007
:10DA200061793046FEF7C4FF2A4621793046FEF779
:10DA3000BFFF002261783046FEF7BAFF002204E003
:10DA400061783046FEF7B4FF2A4621783046FEF76B
:10DA5000AFFF70BDA820002010B5002823D0124BC6
:10DA60000022001F196803E0814203D80A46496872
:10DA70000029F9D1002A0AD01368841A9C4204D1E3
:10DA8000006818181060104602E0506000E018604E
:10DA9000002907D002680B1A934203D10B68D218F1
:10DAA00002604968416010BD34210020F8B5064687
:10DAB0001C481F46007815460C46C0070AD0304661
:10DAC000FFF7E0FA002807D0002C07D0A00507D008
:10DAD0000620F8BD0120F8BD0220F8BD0320F8BDE6
:10DAE0003068A04204D8A80271680019884201D9A0
:10DAF0000520F8BD002D10D0684603F05BF8002823
:10DB00000DD000980221C0C00170A101090C8180D4
:10DB1000058103F00BF90020F8BD0420F8BD0720B3
:10DB2000F8BD00001821002010B5084603F05EF88B
:10DB300010BD0000F0B52648264C001B03092648FE
:10DB400019464069421C03D1012000074069800248
:10DB5000224A12789646D2070CD00020F0BD1D4C08
:10DB600015012C192568002D03D06468002C00D005
:10DB7000491E521C9A42F2D3002420E0E2B2002552
:10DB800094462A460FE0134E1701BE193768002F3E
:10DB900002D07768002F05D1767BAE4202D9354698
:10DBA000D6B2B446521C9A42EDD362461501094AD8
:10DBB000AA185060157BAD02401B641C10608C429B
:10DBC000DCD306487146012211430170C5E700000D
:10DBD0004C2100203C2100200010001018210020C2
:10DBE000002804D00349496E0160002070470320DB
:10DBF00070470000802A0020F8B507461E481E46E0
:10DC0000007815460C46C0070ED03846FFF73AFAA2
:10DC100000280BD0002D0BD0002C09D02846204323
:10DC2000800707D00620F8BD0120F8BD0220F8BD0E
:10DC30000320F8BD3868A04204D8B10078680919FB
:10DC4000884201D20520F8BD002E11D0684602F0AE
:10DC5000B1FF00280ED000980699076041600121AD
:10DC60000172C5600461868203F060F80020F8BD8F
:10DC70000420F8BD0720F8BD1821002070B5174B0F
:10DC80000446186E182148431549C0180A789507AC
:10DC900015D5022C02D0032C1CD102E001F0B0FCFF
:10DCA00018E04A78521CD2B24A70032A12D90022D4
:10DCB0004A70082103F07EFB02F066FF0AE050077D
:10DCC00008D5FB2002400A70586E002802D00220BE
:10DCD00002430A7002F0E6FF70BD0000802A0020B7
:10DCE0001821002070B5002801D0012070BD164C0D
:10DCF0000025207B002801D0257301E000F09CF86E
:10DD000020780300FDF7D5FF081E05080B0E1E1135
:10DD10001A1E00F01BF870BD00F07EF870BD00F018
:10DD200061F870BD00F038F870BD608806490001E8
:10DD300020394018406801F0FFFC70BD656001F0BB
:10DD400009FD70BD0F2070BD702A002070B510490C
:10DD500000208A1C0D460346203D0C18A67A002E92
:10DD600008D0A37204016419A689002E02D1A47BF5
:10DD7000012C08D0401C80B20228EED30B704B80DF
:10DD800004484B6070BD108000F046F870BD000084
:10DD9000702A00201D1D000010B50F4C6088010185
:10DDA000204620380818818900290BD005202070D2
:10DDB0000A48022181800168002301220848FFF7F8
:10DDC00075FE10BD4168002301220548FFF76EFE75
:10DDD0000421217010BD0000702A002010210020B5
:10DDE0003C21002038B50A4908480B6889884268F8
:10DDF000890059185388032404700020DB1C00900C
:10DE00009BB20448FFF7F8FE38BD0000702A0020DE
:10DE1000102100203C21002010B506494888091D2A
:10DE200003F062F8002802D0FFF7DCFF10BDFFF717
:10DE3000B3FF10BD702A0020F0B51D481D490778BA
:10DE40000246012502268C88203A3B00FDF731FF6F
:10DE5000080517171A212C2C16170189491C018156
:10DE60000021418001730B01D35C002B08D00023FB
:10DE70004418491C89B2A3720229F4D30570F0BD7D
:10DE80000123F5E742685288D21CA2188A800670E6
:10DE9000F0BD45880B682D01AA1855680D605360C8
:10DEA00014818E80062100E007210170F0BD000082
:10DEB000702A002010210020F0B504460088384D5B
:10DEC0008DB050281DD0522802D0542826D103E00E
:10DED000A08800F031FF21E0062069460870A08884
:10DEE00000F0CEFB69464880A2888A8000F07CF969
:10DEF000A0880022E978FEF75BFD6846FFF722FB69
:10DF00000CE0207B012809D1A07A012806D12089C4
:10DF10002449884202D1A08800F04AFFA878FEF781
:10DF200029FD002819D008A8FEF758FC142208A9DA
:10DF300003A8FDF715F9002403AE0BE06000871974
:10DF4000B888A978FEF722FD002802D0B88800F032
:10DF5000F3FE641C0398A042F0D86878FEF70AFD2F
:10DF6000002819D008A8FEF739FC142208A903A834
:10DF7000FDF7F6F8002403AE0BE060008719B888BF
:10DF80006978FEF703FD002802D0B88800F010FF82
:10DF9000641C0398A042F0D803F030FA0DB0F0BD35
:10DFA0005C200020022900003EB5044640886946F6
:10DFB00048802078002814D001281DD002280FD1D5
:10DFC000207900280CD0608800F08EFA0E49884233
:10DFD00006D00E490122C978FEF7EAFC03F00EFADA
:10DFE0003EBD002008700846FFF7ACFA608800F0DC
:10DFF0007BFA00F0A1FE3EBD012168460170A188B8
:10E000008180FFF79FFA3EBDFFFF00005C200020EB
:10E0100010B50446007801280DD1608800F08CFE10
:10E02000608800F0A5F9002805D003496088012226
:10E03000C978FEF7BDFC10BD5C20002010B5104C67
:10E0400000202070FEF77EFC6070FEF77BFCA07065
:10E05000FEF778FCE070FEF775FC207161781829F6
:10E060000BD0A178182908D0E178182905D01828F4
:10E0700003D001202070002010BD032010BD00003F
:10E080005C200020F0B585B000F0C6F86846FEF7C9
:10E09000A5FB00246D460C4F0EE060004619B088C9
:10E0A00000F0EEFAB84205D10849B0880122C978DB
:10E0B000FEF77EFC641CA4B20098A042EDD803F0E9
:10E0C0009DF905B0F0BD0000FFFF00005C200020BE
:10E0D00010B50178072902D1408800F069FE10BD13
:10E0E000F0B50F468DB0002116466D460F24621A1A
:10E0F000825C6A54491C1029F9D328460D2110303E
:10E10000FDF747F80020221A395C5219401C11749F
:10E110000328F8D368464DDF0020211A4919203121
:10E1200009783154401C0328F7D30DB0F0BD00002E
:10E1300010B504460A4841782046FEF727FC00281F
:10E140000CD0084800210C224A4312185288A242DF
:10E1500001D1C8B210BD491C0829F4D3FF2010BD5D
:10E1600074200020A024002070B5094D094E002421
:10E170000C206043401940887178FEF707FC0028A6
:10E1800004D0641C082CF3D3FF2070BDE0B270BD36
:10E19000A024002074200020F8B50746104E012569
:10E1A000BD403068FEF772F800280DD10D4C206993
:10E1B000284207D1384601F033F90028E06804D03E
:10E1C000284303E0A8432061F8BDA843E06020692C
:10E1D000002228432061A1683068FEF713F8F8BDDB
:10E1E000EC240200C02000201CB5054A9168D268CA
:10E1F000019200910022694601F096FC1CBD0000CE
:10E200006024020003480021C9438180012101707C
:10E21000002070476820002010B5044801F0B0FBD2
:10E220000349888003F016F910BD0000FFFF0000CD
:10E2300068200020F1B582B0029800F021FA002495
:10E240001649032501272646884209D06A46082137
:10E2500001F040FC002803D1019886880568841DE0
:10E260002B46324621460298A9DF042804D008280C
:10E2700004D00B2807D002E0112000E00020002F7E
:10E2800000D10B20FEBD0027A80701D50125E7E737
:10E290003443F6D0002426460325E1E7FFFF0000C3
:10E2A000F1B582B0029800F0EBF907461B488742AF
:10E2B00001D11B48FEBD01252A466D1C0026ADB2CA
:10E2C0006B460821384601F035FC040002D0072CCB
:10E2D00021D021E0019903230B600A1D891D0298BA
:10E2E000AADF040004D00C2C08D0052C08D008E0CC
:10E2F0000821384601F0B8FC04460DE0012600E094
:10E3000000240821384601F099FC002800D003249D
:10E31000002ED1D100E00C242046FEBDFFFF0000FE
:10E32000023000001FB504460078012813D120797F
:10E33000012810D1608802AA012101F0CBFB00283E
:10E3400009D1022168460170618841800121017173
:10E350000549096888470448044908388088884284
:10E3600001D003F077F81FBD70200020FFFF0000F0
:10E370001CB500F085F96A46012101F0ABFB0028CD
:10E3800001D000201CBD019800781CBDF8B5074ED7
:10E39000074C084D0746324661883846A7DFA84239
:10E3A00003D16088401C6080F5E7F8BDFFFF0000E6
:10E3B00068200020033000008188054A914204D083
:10E3C0000088002801D0012070470020704700001D
:10E3D000FFFF00003EB5044600780D46022815D127
:10E3E0000322611C6846FCF7BBFE0322211D02A824
:10E3F000FCF7B6FE01AA02A92846FDF719FE032282
:10E4000001A96846FCF7DCFE002801D000203EBDD3
:10E4100001203EBD10B50C46FFF78AFEFF280AD04A
:10E420000C2148430549072241182046091DFCF7E5
:10E4300097FE002010BD052010BD0000A024002084
:10E4400070B5018890B0102949D1011D2C2202A875
:10E45000FCF786FE6846234E007B344602AD032857
:10E460002AD001F009FD6846007B00280ED0012863
:10E470000CD0022820D118E00E99281D1131FDF78B
:10E4800043FC002802D06846048815E00DAA6946BE
:10E49000072001F0C7FC0028EED10DE00E99281DE1
:10E4A000491CFFF797FF0028EDD10DAA6946072008
:10E4B00001F0B8FC0028F1D168460089291D00F060
:10E4C0003BFEB4420BD068460089214600F086F836
:10E4D00068460189418001210170FFF739F810B0C9
:10E4E00070BD0000FFFF0000084A00210C234B43D1
:10E4F000D35A834204D10C20414388184088704786
:10E50000491C0829F2D3024870470000A0240020CB
:10E51000FFFF000010B50E4C182060700D4A0E4928
:10E5200000200C2343435B18401C5A800828F8D372
:10E53000FEF708FA6070182804D00548C01C71DF87
:10E54000002801D0032010BD01202070002010BD44
:10E5500074200020FFFF0000A024002070B50446B6
:10E560000D46401C00F090F9002810D01022691CC4
:10E57000601CFCF725FE00280AD00026294620460C
:10E5800011311130FDF7C0FB01463046084370BD24
:10E590000126F3E70188002903D142189278002A66
:10E5A00001D001207047491C0829F6D3002070478C
:10E5B00010B50C460346FFF7EDFF00280BD0188876
:10E5C0002188884206D10822A11C981CFCF7F8FD7E
:10E5D000002801D0002010BD012010BD10B501F0B1
:10E5E00007FE10BD10B50446007888B0002826D17B
:10E5F0002079072823D1608801AA072101F06AFA4F
:10E6000000281CD101F038FC1BE0694660880988AD
:10E61000884216D004990298FFF7A0FF002810D076
:10E620006088FFF761FF01466846C18200210175DD
:10E63000618801830188418305A8FEF789FF08B03E
:10E6400010BD03AA6946072001F0ECFB0028DCD1CD
:10E65000F5E7000070B50446FFF746FF0546204683
:10E6600001F03DFA054904468D4204D0002C02D148
:10E67000284601F0BDFD204670BD0000FFFF0000F0
:10E6800010B5FFF755FDFF2804D00C21484302497F
:10E69000085A10BD014810BDA0240020FFFF000053
:10E6A0003EB5044601F0E8FB10E0019920464631F2
:10E6B000FFF77EFF002806D1019920462A31FFF797
:10E6C00077FF002802D0684600893EBD6A4602A94D
:10E6D000072001F0A7FB0028E7D101483EBD00005C
:10E6E000FFFF0000F8B50F46002804D00120FFF717
:10E6F00063F90120F8BD397900290AD00026254D9B
:10E7000001290BD0244C022920681FD003293BD1BA
:10E7100025E001F01FF80121397133E000200101EB
:10E72000695C02290BD0401C80B20228F7D302207A
:10E73000FFF75CF90120FFF73FF91848F8BD040125
:10E740006019406800F0F8FF2E551BE001460023D9
:10E7500001221348FFF7AAF90221A18011E000F07D
:10E76000EBFF0C492368203149880A0109495118F7
:10E770004D6825604B60A3880B810221A18005496B
:10E780008E543E710028D9D00120FFF715F90E20D4
:10E79000F8BD0000502A0020102100201D1D00009F
:10E7A0003C210020F8B51E4C2078002836D0E068C7
:10E7B000002600280CD00025607800282ED168465D
:10E7C00052DF052806D0002806D0FDF7BFFC0BE07D
:10E7D0000125F1E7012607E0009800F04DFD2169D1
:10E7E000002901D000988847002D13D160780028B7
:10E7F00014D1608869460880A06861DF052804D0CC
:10E80000002804D0FDF7A2FC04E0012502E0E16845
:10E81000A0688847002ECFD0002DE5D0F8BD0000BD
:10E820001C210020418805480288914204D3408879
:10E83000814201D801207047002070474C20002001
:10E840001048018CC9B2012917D1818C090714D154
:10E85000018D09060A0F03D1828D1206120F0ED008
:10E86000090F012903D1828D1206120F07D0032947
:10E8700003D1808D0006000F01D0002070470120D9
:10E8800070470000C00F00F00021425C002A01D058
:10E8900001207047491C1029F7D3002070478007DA
:10E8A00001D00020704701207047000010B50448D7
:10E8B000017AC90702D00078FEF78AFA10BD00007D
:10E8C000F81F0020FFB5244D81B0287A1F460E4660
:10E8D000084304D0039A002E04D0002104E0052050
:10E8E00005B0F0BD1C491031019803F01BF8044637
:10E8F000014600220198FFF781F8002F03D021463E
:10E900000198FEF705FE0D2C0DD006DC002C0AD078
:10E91000042C16D0082C05D105E0112C05D00F4889
:10E92000C44200D003242046DAE73246E978019851
:10E93000FEF73EF8A978039A0198FEF739F800240B
:10E94000F1E73246E9780198FEF732F8A978039AA0
:10E950000198FEF72DF8E6E7A8200020FECFFFFF84
:10E96000FEB517460C00064604D02078C00704D038
:10E97000012003E000217EDFFEBD02206946087110
:10E980003046FFF77DFE17490546884208D001A8AA
:10E9900000902B463A462146304600F025F806E026
:10E9A00020782146C007304603D000F081F80446A5
:10E9B0000BE07EDF044600200090002C08D00022EF
:10E9C00001232946304602F0C1FC002C02D006E0AB
:10E9D0000122F5E768460179304602F0DDFC204669
:10E9E000FEBD0000FFFF0000FFB585B000252E46EC
:10E9F00001AA07210E9F089801F06CF8040008D1C5
:10EA0000029D4420405D1835C607F60F01D0029DD7
:10EA100034350798204312D1002D10D0002E05D197
:10EA200028461230FFF7B6FD002808D029462A46AE
:10EA30001231059885DF04460020387023E0002C51
:10EA400001D0052C1FD106980078C0070DD003AB6C
:10EA500001220721089801F06DF804000AD107216E
:10EA6000089801F065F9040004D1069905987EDF45
:10EA7000040008D00721089801F0E0F8002802D02F
:10EA8000052800D00324002000903878002801D009
:10EA9000012300E00023002C07D0002208990598EC
:10EAA00002F054FC204609B0F0BD0122F6E7000058
:10EAB000FEB50F46064601F001F8054618488542A6
:10EAC00020D001AB01220721284601F033F80400D1
:10EAD0000AD10721284601F02BF9040004D1394658
:10EAE00030467EDF040008D00721284601F0A6F852
:10EAF000002802D0052800D0032401200090002C1B
:10EB00000BD002E0032400200090002201232946BC
:10EB1000304602F01BFC2046FEBD0122F6E7000055
:10EB2000FFFF0000F7B5114D0F46164629780098F3
:10EB3000FDF72CFF002812D00098FFF7A1FD044636
:10EB40000B4884420BD069780098FDF71FFF00281E
:10EB500006D033463A462146009800F085FEFEBDB9
:10EB6000324639460098FEF775FCFEBDA420002011
:10EB7000FFFF0000F1B586B00698FDF7FBFE002808
:10EB800021D06846FDF72AFE00246E4618E060009A
:10EB90008519A8880699FDF7F9FE00280FD00B4FBC
:10EBA000A888B978FDF7F2FE0590A888F978FDF7F6
:10EBB000EDFE0146A8880123059AFFF783FE641C39
:10EBC0000098A042E3D807B0F0BD0000A8200020C4
:10EBD000F0B5284C2146103948688B682278864663
:10EBE0009C46CF78667836E0182353436168521C00
:10EBF000C918A378D2B2934200D100220B78022B1D
:10EC000002D0032B27D123E003464D68194603E0C9
:10EC1000A94204D00B46C96900291CD0F8E7002995
:10EC200019D08B4208D1C069002805D1124F0125A7
:10EC3000BD600025AC4601270D68C969D96100296E
:10EC400009D00B685B190B6005E00174C06900E036
:10EC500000210028F9D19642C6D1064962461039F2
:10EC60008A604860CF70704501D00120F0BD00205F
:10EC7000F0BD0000E420002000100140F8B52C4E4B
:10EC8000044670680025009041E0002C02D0204628
:10EC9000E46920E0264818231030017842684B438D
:10ECA000491CC9B2D21801708378994200D105700D
:10ECB0001178506801292CD1017C002929D1916853
:10ECC0004160D16881601169C16051698161F178E9
:10ECD000002900D045604368B268164F991A0902AE
:10ECE000090AB94202D28268891806E0D11A0902DB
:10ECF0008268090A8A4202D9511A016000E005605F
:10ED00004560012185600174C56102F0C7FF002CD8
:10ED1000BBD107481030017840788142BAD1716880
:10ED20000098814201D00120F8BD0020F8BD00000C
:10ED3000D4200020FFFF7F00FEB5044619480026BE
:10ED400084422DD02046FFF775FA050012D00B2D16
:10ED500014D0112D10D01448C5421BD0092168468B
:10ED600001702046FFF78CFC014668464180848094
:10ED700002950DE0022102E001260BE00321684626
:10ED800001702046FFF77CFC014668464180848084
:10ED9000FEF7D8FB0548324681782046FDF708FE8D
:10EDA000FEBD0000FFFF0000FECFFFFF5C20002043
:10EDB000FEB504460026FFF773FA05460C281AD064
:10EDC00004DC002D13D0042D05D127E0112D10D027
:10EDD0001348C5421BD00921684601702046FFF741
:10EDE0004FFC014668464180848002950DE0012178
:10EDF00002E001260BE0072168460170848020466E
:10EE0000FFF73EFC014668464180FEF79BFB054844
:10EE1000324641782046FDF7CBFDFEBD0821EBE7E9
:10EE2000FECFFFFF5C200020F8B5054600780C46B9
:10EE3000002620420FD10020694608706846FDF781
:10EE400039FA2878204202D12043287001266846EA
:10EE50000078FDF74DFA3046F8BD0000002398B069
:10EE60003B4A05211846FDF793F9002801D0FDF72C
:10EE70006DF9384A38490320FDF75AFF002801D0C0
:10EE8000FDF764F969460020FDF728FE002801D04F
:10EE9000FDF75CF968460078022850D000216846EA
:10EEA0000171FDF7E3FD02F07DFF6846007901F096
:10EEB000B3F9012001461031684601730F2227A1E2
:10EEC00003A87CDF002801D0FDF740F9002400945E
:10EED0005021684601940180A0214180FF21848057
:10EEE0009131C1807ADF002801D0FDF72FF9FCF7BE
:10EEF000AFFA382101A8FCF74CF906216846C17128
:10EF000020210FA8FCF745F9012108A8C17717486F
:10EF10001390B420149001A800F062F8144B0FAACB
:10EF2000002101A80094FDF77DFA002801D0FDF72B
:10EF30000DF9FCF7ADFA0320FDF784FB02E0012197
:10EF4000ADE748DF0028FCD0FDF700F9F9E7000045
:10EF50004C21002089CC0100CD0C00004E6F726462
:10EF600069635F54656D706C61746500B80B000077
:10EF70003BF50100F0B50B30C108C900144F002665
:10EF8000144A0FE003688B420BD38B4205D95C1AFD
:10EF90004318456830C3083B00E04368136002C073
:10EFA00004E0021D10680028ECD13046002803D18F
:10EFB0003868002801D00020F0BD064A06481060DD
:10EFC000064A121AD208D20044C001203860D7E79E
:10EFD0003821002034210020742F002070370020B9
:10EFE00010B5124B04460FCBA4B0079304AB07C374
:10EFF00000200090019002900390694604A8FCF75D
:10F00000B1FF0A49642210310BA8FCF7A9F8694640
:10F010000BA8FCF7C9F859206946088410200A910A
:10F02000888408A8606224B010BD0000A8230200F4
:10F0300070B5144682880E4605462088111D411879
:10F04000921C994201D8FE2A01D90C2070BD521C95
:10F0500032542088FF21401C80B220803154208807
:10F06000401C80B220808119288802F058FF218836
:10F07000401880B22080AA88002A09D0A9680029F7
:10F0800008D08019FCF76CF82088A98840182080E7
:10F09000002070BD072070BDF8B50F4601781446FA
:10F0A0000546012902D16878002806D02088821CF4
:10F0B0009A422DD8012902D006E00720F8BD6978D0
:10F0C0004118891C994223D8181A801E86B26846B6
:10F0D00006802188B81C081869467DDF0028EDD11C
:10F0E0002878022805D169460988B14201D809214A
:10F0F0000AE00821012805D16878B04202D86A46A2
:10F10000108001E06846068068460088FE2801D924
:10F110000C20F8BD2288401CB8542088401C80B2C6
:10F120002080395420886946401C20800988401876
:10F1300020800020F8BD0000F8B5FF240F460546EA
:10F1400000291FD0104EB5421CD010480122417832
:10F150002846FDF72DFC2846FEF7EAFF0446FF2867
:10F1600004D1FFF701F80446FF280BD00C214843D7
:10F1700007490246401845808E5207223946001D35
:10F18000FBF7EEFF2046F8BDFFFF000074200020D3
:10F19000A024002070B50B4D0E46A84201D10020DE
:10F1A00000E0401C84B209E02146304601F02CFA10
:10F1B000002801D0204670BD641CA4B2FF2CF3D9F6
:10F1C000284670BDFFFF0000012189074018006834
:10F1D000002800D00120704700280FD00849094AB4
:10F1E000096800BF00BF00BF00BF00BF00BF00BF75
:10F1F00000BF914200D000BF401EF2D17047000016
:10F20000302100200024F40010B50C4C2078002898
:10F2100001D0852010BD0020A06060602061E0600A
:10F22000032100F02FF802F0D3FC0121002801D1C6
:10F23000034881612170002010BD0000CC2800200F
:10F240000005004038B50020694608706846FDF7A3
:10F2500031F8084C2078002801D1FFF7D5FFE0688D
:10F26000401CE0600120A07068460078FDF740F87F
:10F2700038BD0000CC28002010B5002801D1FDF7D2
:10F280003BFF10BD8207D30EFF229A408907090E6B
:10F2900010B5994000280BDA03071B0F083B9C08A8
:10F2A0000C4BA400E318DC6994430C43DC6107E0D9
:10F2B0008408094BA400E418236893430B4323609C
:10F2C000C106C90E0120884004490860044908604D
:10F2D00010BD000000ED00E000E400E080E200E08E
:10F2E00000E100E0F3B581B00F46019800F0D0FFD7
:10F2F000012400281D4E019817D0FDF7BBFE801990
:10F300002030007F8009032802D0012806D007E0C2
:10F310001748006901998C40204201D1022100E088
:10F320000321019800F0DAF8FEBD00F0BDFF0028CF
:10F33000FAD00198FDF79EFE05468100C81D0D4AD2
:10F34000F93089180A6980B222430A6100F0D6F8C0
:10F35000002FE9D00198FDF78DFE8000305800287D
:10F36000E2D00548AC404460FEBD0000E02800202B
:10F37000000500500065004000630040FEB50446F3
:10F3800023480E460019202141560027C81713466E
:10F39000401C01D0082738E0F27819462046FDF7D6
:10F3A00045FE0546401C2FD0B078002807D01948EC
:10F3B000A1000918086802229043086007E00021B4
:10F3C0007378204600910A46019100F075F8F078B4
:10F3D000002810D01048AA001018317802690F4B8D
:10F3E0001A400261E206D20C8907890B0A430169BF
:10F3F0000A43026109E00648327840192030017F53
:10F4000092011143017700E004273846FEBD000059
:10F41000E02800200007005000650040FFE0FCFFEE
:10F4200003490969C140C807C00F00D001207047D7
:10F430000005005070B5144D2879002801D008202F
:10F4400070BD114900204039421E0B182033401C6A
:10F45000C0B21A702028F8D300242046FDF7D8FD4A
:10F46000641CE4B2082CF8D303210620FFF70AFF3E
:10F47000FF207D3000F042F801200449C0074860B9
:10F4800001202871002070BD202900200063004069
:10F4900002480079002800D0012070472029002070
:10F4A00010B5001F012805D801F0A4FD002801D0E7
:10F4B000FCF74CFE10BD000030B552000A43990025
:10F4C000039C0A432102049D0A4329040A4302497A
:10F4D00080004018026030BD0007005082000648DE
:10F4E0001018026803231B049A430260026809048F
:10F4F0000A430260704700000007005002494018AC
:10F50000002101607047000000600040034940187E
:10F510000068012800D00020704700000060004013
:10F520004058002800D001207047032212028018A2
:10F530004068084000D00120704710B5002809D06D
:10F54000032806D10220FDF7E5FB002801D0FCF7D7
:10F55000FDFD10BD02F08AF810BD000010B5044694
:10F56000008888B03A2821D009DC022824D010284D
:10F5700011D011280DD10020FDF7CCFB19E0512846
:10F580001ED0552805D1A088132176DF11E0FCF7A5
:10F59000DDFD08B010BD0720FDF7BCFB002801D041
:10F5A000FCF7D4FD1549A0880880F2E7A088132154
:10F5B00076DF0028EBD1ECE7A088002167DFF8E7D1
:10F5C0001022A11D04A8FBF7CBFD6846017C002991
:10F5D000DFD0007E042803D0062801D00528D8D12A
:10F5E000022908D0012069460870FF2083308880F6
:10F5F000A088A8DFDDE70220F5E70000E81F002073
:10F6000010B5134A00215170017A012911D0022945
:10F610000ED18189491C8181C189491C89B2C1816E
:10F62000028A914204D1002101F0C4FE01F0ACFA3B
:10F6300010BD838AC28A991AFF2901DC89B201E0D0
:10F64000FF210131511889B2C1829942EBD010BD1E
:10F6500018210020F7B51C4D0E4601466A6F0020A8
:10F6600082B0032A2DD82C4678340827636CBF1B40
:10F67000BB4226D8286F10188007800F1C225043E9
:10F680004019FBF76DFD686F401C6867002E17D0AE
:10F69000216C606C40184007800E00190023009018
:10F6A00009E00498D9000A1806CA009806C06846FE
:10F6B000FDF7F8FC5B1CB342F3D3606C8019606407
:10F6C000012005B0F0BD0000902900200389CA1C6C
:10F6D0009A1802814289511AC91E4181704700005F
:10F6E000F7B50D4601218902471804460026083463
:10F6F0000220288012E02046FEF75EFE002817D088
:10F700000C48A1684268914200D94160608881003C
:10F710000C1929880818C01C28800C34BC4202D25D
:10F720002068401CE7D10298002800D00670FEBD7A
:10F730000126EBE70021002008B5002100910146D9
:10F740000223024A0248FEF757FA08BD00250200CC
:10F750003C21002008B500200090044802230168E5
:10F76000034A0448FEF748FA08BD000010210020B3
:10F77000F82402003C210020F8B50025354F2C4626
:10F780002E4600953448B102006840180168B9421D
:10F7900005D1324A4168891830D001290CD00021A6
:10F7A0008A0082580346521C36D003202C4922017D
:10F7B0008854641CA4B21BE0009900290CD0284B8B
:10F7C000022221015A54274A1368254A8918022225
:10F7D0004B60641C0A81A4B2224900220860091D02
:10F7E000FFF77EFF1F488088022831D0082005439C
:10F7F000761CB6B2032EC5D3E8B2F8BD1849002373
:10F8000022018B5451180A4648600E320831FFF726
:10F8100067FF02200543CCE7491CFF29C0D91149E5
:10F820000A68002A0CD00E4A02212301D1549A18EA
:10F8300050600B48118120304480641CA4B204E065
:10F8400002200B6088800120009001200543CFE753
:10F850000420CCE7DEC0ADDE3C21002002FEE10E3C
:10F86000502A00201021002070B5184D0E46044685
:10F8700023CD86B002950090019168464480828035
:10F880008371134D2046A978FDF780F8002803D036
:10F890003046FEF7DFFE0FE00721304600F0CEF9DC
:10F8A000002809D0052807D1092269460A73CC81AE
:10F8B000049003A8FDF76EFE002229782046FDF78C
:10F8C00077F86846FDF766FE06B070BDD0240200EA
:10F8D000A4200020F0B585B00746FDF74BF80028BE
:10F8E00014D06846FCF77AFF00246D460BE06000F8
:10F8F0004619B0883946FDF749F8002802D0B0888B
:10F9000002F0B0F8641C0098A042F0D805B0F0BD39
:10F9100070B5054D06460024A0002958304688479A
:10F92000641C052CF8D370BD802402003EB50F4D39
:10F93000002414206043401902F0CCFB641C082C06
:10F94000F7D30821502001910A490124C2000290F6
:10F95000074B0094881800F0E2FC002801D0032037
:10F960003EBD0348447000203EBD0000A02700209B
:10F970008C2000201025002010B500F04BFA10BD9F
:10F9800010B500F04BFA10BDF0B5002585B000951C
:10F990000195029503950446418868464180217986
:10F9A00001712E462179608802F06EFB22780421D5
:10F9B000404F1300FCF77DF90A0606361C1C383E42
:10F9C00043484B4D00280DD0417CC9070AD002F0B6
:10F9D00093FB684606702078012800D00020694615
:10F9E00008722AE0012069460870A068029024E0AD
:10F9F00000280ED08268A3689A420AD1427CD307BD
:10FA000007D07B6852085B1C52000A437B6042743B
:10FA10001FE0022069460870E06803900DE0FFF7E0
:10FA200077FF16E0032006E068460170E068029068
:10FA30006846F4E70520694608700846EFE70620A7
:10FA400069460870E068D1E701250720F3E7E06820
:10FA500002907868002824D0174E002414202746EE
:10FA60004743B819417C4A0703D48907C90F294283
:10FA70001CD08178F05B00F0F7F8002816D0142134
:10FA80004C43325B69464A80B9198A7869460A71E3
:10FA9000042808D009216A46117002906846FFF7D1
:10FAA00037FF05B0F0BD08200870F7E7641C082C8C
:10FAB000D4D3F6E78C200020A027002010B500F05A
:10FAC00071FA10BD08B513889B0000936B4600F0D7
:10FAD000DBF908BD10B5002300F0D6F910BD38B52C
:10FAE0000546002420460AE08178284600F0A6F862
:10FAF000002802D0052800D003240098401C009064
:10FB00006946284602F0D2FA0028EDD1002C07D130
:10FB1000284600F04FFA002802D0072802D003241C
:10FB2000204638BD0724FBE710B51346002200F03D
:10FB3000E3F910BDFFB581B0049815460E460028C4
:10FB400004D0072E05D0082E19D102E00E2005B0F2
:10FB5000F0BD002D13D0082D11D8019800F035FA12
:10FB600000280CD0002000903146019802F08CFA59
:10FB7000041E26D0E068A84212D2002709E0072020
:10FB8000E5E7207CC019C1B22A4800F000FC7F1CC8
:10FB9000FFB2E068B842F4D8204602F09BFA10E0C9
:10FBA000A84217D9EFB207E0207CC019C1B22148A2
:10FBB00000F0EDFB7F1CFFB2E068B842F4D8002CE7
:10FBC00008D1FF211C48019F02F05EFA041E05D0F7
:10FBD0000780A670207CFF2802D00AE01120B6E73B
:10FBE0002946144800F06CFB2074FF2813D0012034
:10FBF0000090E560217C0F4800F0B2FB02000ED0BF
:10FC0000ABB23146049800F071FA009800280FD08A
:10FC1000082E06D00CE0204602F05CFADEE7032056
:10FC200095E704980499008849688000801F8880BF
:10FC300000208CE790270020FFFF000070B5002413
:10FC400002F022FA05000CD06868002804D000F009
:10FC5000D8F9040000D00324284602F04DFA2046CB
:10FC600070BD052070BD00007CB50D460646072915
:10FC700003D0082D01D007207CBD0020009001900A
:10FC8000684685702946304602F0FEF9040004D02B
:10FC9000607CC00703D000207CBD05207CBD217C9A
:10FCA000214800F05DFB020025D029466846E36844
:10FCB00000F0AFF9684602F0D5F9234608336946EB
:10FCC0003046626800F018F90246607C1749430725
:10FCD00004D5830702D54B685B1E4B60FB25FD23D3
:10FCE000002A0AD0112A0DD0042A14D0072A00D0E5
:10FCF000032210467CBD03207CBD0121084328401F
:10FD000018400EE04A68521C4A600421084318401B
:10FD100060740022EDE74B6828405B1C4B600221B9
:10FD200008436074E5E70000902700208C20002045
:10FD30007CB50D46072903D0082D01D007207CBDD6
:10FD4000002602F0A1F9040003D06068002802D068
:10FD50001BE005207CBD217C0E4800F001FB024623
:10FD600000200090019068468570002A0FD0294637
:10FD7000E36800F04EF9684602F074F9211D684608
:10FD800000F027F90646092801D030467CBD032043
:10FD90007CBD000090270020014909680847000049
:10FDA0007C24020070B588B01748FDF7A3FD002839
:10FDB00002D0032008B070BDFDF7D8FC002801D0A8
:10FDC0000420F7E700F0E8F90020104C0290E61F4D
:10FDD00003900DE0694604A8FDF750FD0098808867
:10FDE000801B85B204A8FDF707FD284600F088F9BE
:10FDF00002AA04A92046FDF726FD0028EAD00449FE
:10FE0000012008700020D5E7BDD5010007C0000023
:10FE10008020002010B500F09DF910BD10B500F055
:10FE2000A1F910BD70B505460320800386B01446C5
:10FE30000E46281880B20F4A6946FDF704FD0028D7
:10FE400005D103A96846FDF719FD002802D000205E
:10FE500006B070BDA570039840882080049860604B
:10FE600003988088FDF796FD30806846FDF7C4FC56
:10FE70000120EDE7842000200248002141608160DC
:10FE80007047000080200020F0B587B01D46144662
:10FE900007460E46FF280CD8084600F017F9002840
:10FEA00007D003AA3146384600F0F8F8002809D1F7
:10FEB00002E0072007B0F0BD01A903A8FDF7DEFCB2
:10FEC000002801D00520F5E7A6700198002D408894
:10FED00020800AD082002868904204D80299606885
:10FEE000FBF73EF903E00420E4E70298606003A812
:10FEF000FDF782FC0020DDE77FB588B01D460C468B
:10FF00000646FF2831D8A07800F0E0F800282CD071
:10FF100060680690208869468883304600F076F94C
:10FF200069460880A0780321890340186946488003
:10FF300006A8019001200881A17803AA304600F0AC
:10FF4000ADF8052813D00AA8FDF700FD694603A8FF
:10FF5000FDF7B6FC002818D0072820D008281CD0B0
:10FF60000E281AD003200CB070BD0720FBE70A98BA
:10FF7000002805D00AAA694603A8FDF7B1FCE9E705
:10FF8000694603A8FDF7A6FCE4E7002D03D0294647
:10FF900003A8FDF768FC0020E5E71120E3E7042053
:10FFA000E1E7000010B5024800F0AAF810BD00001B
:10FFB000FFFF000010B5FF2801D9072010BD00F099
:10FFC000A7F800F02BF8002010BD10B500F0F8F8ED
:10FFD00010BD70B504460D46807800F077F8002813
:10FFE0000BD021882846FDF797FC002804D007286D
:10FFF00005D0092800D0032070BD072070BD042063
:020000040002F8
:1000000070BD01B56846FDF7A1FC002800D00320B3
:1000100008BD10B59BB200F069F810BDF0B589B00D
:1000200000261C4F04963846059603E0204600F053
:1000300083F8204600F08EF80446B84207D000F05E
:10004000E5F804AA06A9FDF706FC0A28EED0124D31
:10005000A878002819D1BC4217D0032080030127BB
:100060002018AF7080B2FDF737FB08280FD00028AA
:100070000BD0AE70092269460A704C80FF220A71CB
:10008000039002966846FFF787FE09B0F0BD6F70D7
:10009000FBE70000FFFF0000802000207CB5054644
:1000A00016460C46084600F011F800200321009087
:1000B000890301906818611880B289B26B46324694
:1000C000FDF7BAFB002800D005207CBD07280BD027
:1000D000012809D0082807D0052805D0062803D014
:1000E000042801D0002070470120704710B550242B
:1000F00063439BB28170DB1C99084260018010BD94
:1001000010B50249FCF7DAFF10BD000040280020BE
:1001100010B504460648844207D006492046FCF73D
:10012000CDFFA04201D1012010BD002010BD000074
:10013000FFFF00006028002010B50446044900F0CD
:100140004FFF03492046203100F04AFF10BD000058
:100150004028002010B50249FFF71CF810BD000030
:100160006028002070B50A49FFF714F80446094DCD
:1001700008E000F031F8002807D005492046FFF7D5
:1001800009F80446AC42F4D170BD204670BD0000B1
:1001900040280020FFFF000010B508484021FAF772
:1001A000F8FFFF2401342146044800F0FDF903481C
:1001B0002146203000F0F8F910BD00004028002052
:1001C00010B5FF2804D80146024800F01DFA10BD02
:1001D000002010BD4028002010B5FF2804D801469B
:1001E000024800F011FA10BD002010BD6028002068
:1001F00010B50C46FDF79CFFFF2803D00C214843A7
:1002000001490C5210BD0000A024002003218903E5
:10021000401880B2704700001CB5044600F082F917
:10022000002801D0FBF792FF002C05D000F088FBDE
:10023000002801D0FBF78AFF00200090019068465B
:100240000078012210438121084030304106490ED8
:10025000684601700721417010218170C178022326
:1002600011431943C170017911431943017100F021
:100270009DFB002801D0FBF769FF044800F07EFBDE
:10028000002801D0FBF762FF1CBD0000D90302006B
:100290000449081820214156042901DB0120704738
:1002A00000207047E028002004490818202141560A
:1002B000042901D20120704700207047E028002067
:1002C000F8B50F46060028D03068002825D07068A1
:1002D000002822D0FF2400251CE02946706800F089
:1002E0006BF9002808D0FF2C00D12C46281B401C9D
:1002F000B8420DD12046F8BDFF2C06D108E02146BA
:10030000304600F044F8641CE4B2AC42F7D3FF245A
:100310006D1CEDB2B068A842DFD8FF20F8BDF8B57B
:100320000400069E089D079818D0002916D0002BBF
:1003300014D007466F43974210D8C21DD208B2426C
:100340000CD800280AD0002D08D0E560A0600AC4AF
:1003500081B2184600F028F90020F8BD0720F8BD4A
:1003600070B504000D4610D0206800280DD06068DC
:1003700000280AD0FF2D08D000F046F9002804D04C
:10038000E06821686843081870BD002070BD70B532
:1003900004000D460FD0206800280CD060680028AB
:1003A00009D0FF2D07D000F02FF9002803D02946EF
:1003B000606800F035F970BD10B501F075F910BD39
:1003C00010B5044A1278002A02D001F0A3F910BD3A
:1003D000082010BD9420002008B501780B00FBF721
:1003E00068FC0F091209131E2532122C12322E320C
:1003F00012341200808800F0EBF9112803D0002895
:1004000001D0FBF7A3FE08BD4189114AD142FAD1C0
:1004100040880121FFF7D4FF0828F0D108BD002152
:10042000009140886946FFF7C7FF08BDFDF77AF9DC
:100430000E28FAD00828F8D0E1E70020E1E70320F1
:10044000FCF700F9DBE78068D9E700F0A3F808BD06
:10045000FAEFFFFF70B586B0044614216846FAF73C
:1004600098FE608869468880FEF73EF869464880B5
:10047000267800200822072105253300FBF719FC08
:100480000A06060B0D0F1416281A1D256B46197047
:1004900058721A7219E00D2009E00E2007E06A4632
:1004A00011705072157210E00F2000E010206946A4
:1004B00008700AE06846057007E00621684601708A
:1004C000A0680290A188684641806846FDF74EF812
:1004D00006B070BD10B50446007886B000281AD06A
:1004E000012816D10E49608801224979FCF760FA8B
:1004F00014216846FAF74DFE608869464880608896
:10050000FEF7BEF869468880002008706846FDF74F
:100510002DF806B010BDE08800F04EF9F9E70000B4
:100520009420002070B5FFF73DFC00282ED1FFF786
:10053000FDF900282AD101F0C5F8002826D101F0E4
:10054000D3F9002822D1FDF779FD00281ED1FDF74F
:1005500059FE00281AD1FDF7DDFF002816D10C4CFA
:10056000401EE08000251820A56020716071FCF716
:10057000E9F92071182809D0FCF7E4F9607118280E
:1005800004D0657001202070002070BD032070BD74
:100590009420002010B503480078002801D0FDF712
:1005A00071FD10BD9420002010B5002803D0C91D96
:1005B000C908FAF7EEFD10BD10B5002809D04B07A9
:1005C0005B0F01229A40C908D2B208181146FEF703
:1005D0002BFC10BDF8B50D46060013D000240127F2
:1005E0000EE06107490F38468840C1B2E008801923
:1005F000FEF71AFC002801D02046F8BD641CA4B206
:10060000AC42EED32846F8BD002807D0CA08805C6B
:100610004A07520F01219140084000D00120704745
:10062000F8B504464805050E4907490F01208840E2
:10063000C6B2002C0ED0605D30420BD0002168465F
:100640000170FBF737FE605DB04360556846007887
:10065000FBF74EFEF8BD000010B5044606480078D2
:10066000002808D02046FDF7EBFE204601F012F8E6
:100670002046FDF721FC10BD94200020F0B58BB082
:10068000044614216846FAF784FD6088694688802C
:10069000FDF72AFF694648802778012008220721B4
:1006A0000026434D3B00FBF704FB0A060E20353BBA
:1006B000435F80787A806A46117021791172567290
:1006C000039690726EE06A4611702179117256722B
:1006D000A16803919072A868002863D0A168814244
:1006E00060D1AE609088E88012E06846027021799F
:1006F00001724672A0680390E0680490A868002820
:1007000050D0A16881424DD1AE60E868401EE860DB
:10071000039647E06A461170217911725072F7E72B
:1007200069460A7022790A724872A068049039E01A
:10073000092069460870A878002833D01D4C20464F
:10074000FFF71EF9A0422DD12046FFF715F9A04270
:1007500028D1AE70142105A8FAF71BFD0B216846BD
:1007600001750483C48214E00A2069460870A068F9
:100770000290A878002815D0AE70142105A8FAF7C9
:1007800008FD0C20694608750A480883C882A068DD
:10079000079005A8FCF7EAFE04E0052000E006202B
:1007A000694608706846FCF7E1FE0BB0F0BD00003A
:1007B00094200020FFFF000010B5044909780029AB
:1007C00002D0FDF747FF10BD082010BD9420002087
:1007D000F0B52D4C0646207887B0002808D02B496C
:1007E0008868C968069105906078002803D00FE0FA
:1007F000082007B0F0BD244900230C311A46881F99
:1008000000F046F8002801D0052801D101206070D1
:100810006078A168401E084301D0112531E0E088CE
:100820000027864219D1E068002816D0002514213F
:100830006846FAF7AEFC0721684601703046FDF7BE
:1008400053FE014668464180868006210172477248
:1008500003978772FCF78AFE13E0E0680A4A401C9F
:10086000E060083205A93046FFF75EF9050008D0C0
:10087000A760E068401EE060112D02D0042D00D07A
:1008800003252846B5E700009420002094240200A8
:10089000FFB5284885B00078002816D0264E30468F
:1008A000FFF76EF8009000200390244801AA00682A
:1008B000019003A8029006210098FFF703F9002594
:1008C0006C1E3746072803D016E0082009B0F0BD9B
:1008D0000520FBE700200390A84201D3009F0546B6
:1008E000A04201D2009E04460098FFF749F801AAF1
:1008F00006210090FFF7E6F8002817D00528E9D078
:100900000D490098884213D105990020002900D094
:100910000F800699002900D00D600799002900D0AA
:100920000E8008990029D1D00C60CFE70398D3E757
:100930000320CBE794200020FFFF00009424020056
:1009400070B50C480178002904D001210A4D81704E
:10095000284608E0082070BDFFF72EFF002801D0D0
:10096000032070BD2046FFF70BF80446A842F3D1E0
:10097000002070BD94200020FFFF000010B5094A40
:100980001178002904D0D178032903D3042010BDA5
:10099000082010BD8B00044C491CE050D170002091
:1009A00010BD0000942000208028002010B50449CC
:1009B0000978002902D000F0CFFE10BD082010BD3C
:1009C00094200020F0B585B0044601261421684625
:1009D000FAF7DFFB6088694648804B4F2078002596
:1009E00039797A790300FBF764F90D828D081C30A0
:1009F000424C5159646A6C7E820001206A46107034
:100A00002079002801D0012200E00022012806D030
:100A100000256088FBF7CCFF60882A4611E001259D
:100A2000F7E702206A4610702079002801D00120E3
:100A300000E00220107260880122FBF7B9FF2279E2
:100A400060887979FBF7B4FF52E0032069460870AB
:100A500060881146FBF79AFF002801D0012100E0D1
:100A6000022168460172A1790173A18839E060888A
:100A7000FBF78CFF002845D10220694608700D72F3
:100A800036E00321684601700572ECE707206946ED
:100A90000870A2888A8008724D7230E0082168468A
:100AA0000170A1888180072101724572A0680490BD
:100AB00025E00620694608706068029018E005206D
:100AC00012E003206946087060881146FBF75EFF5C
