:020000040001F9
:10B00000583F0020D5B00100EFB00100F1B00100C1
:10B010000000000000000000000000000000000030
:10B02000000000000000000000000000F3B001007C
:10B030000000000000000000F5B00100F7B00100C2
:10B04000E5B30100F9B00100FDB50100F9B0010060
:10B05000F9B001000000000051B20100F9B0010098
:10B06000F9B00100F9B00100F9B00100F9B0010038
:10B07000F9B00100F9B00100F9B00100F9B0010028
:10B08000F9B001007DB40100F9B00100F9B0010090
:10B0900035B50100F9B001003DB50100F9B001007E
:10B0A000F9B00100F9B0010000000000000000004C
:10B0B0000000000000000000000000000000000090
:10B0C0000348854600F086F800480047E9E701009C
:10B0D000583F00200321094802680A4302600848DB
:10B0E00002680A4302600748804707480047FEE7B6
:10B0F000FEE7FEE7FEE7FEE7FEE70000240500406E
:10B10000540500405DB50100C1B0010030B50B46EB
:10B11000014600202022012409E00D46D5409D4231
:10B1200005D31D469540491B2546954040191546B7
:10B13000521E002DF1DC30BD03460B439B0703D0AC
:10B1400009E008C9121F08C0042AFAD203E00B78EC
:10B150000370401C491C521EF9D27047D2B201E064
:10B160000270401C491EFBD270470022F6E710B562
:10B1700013460A4604461946FFF7F0FF204610BD65
:10B18000421E5378521C002BFBD10B781370491CC4
:10B19000521C002BF9D17047421C0178401C002939
:10B1A000FBD1801A704730B504460020034600E00A
:10B1B0005B1C934203D2E05CCD5C401BF8D030BDF9
:10B1C00003460A780270401C491C002AF9D118462F
:10B1D00070470000064C0125064E05E0E36807CCE9
:10B1E0002B430C3C98471034B442F7D3FFF76CFF65
:10B1F000741D0200941D020070B58C180578401C67
:10B200006B075B0F01D10378401C2A1106D102782D
:10B21000401C03E006780E70401C491C5B1EF9D1EF
:10B220002B0705D40023521E0DD40B70491CFAE7DE
:10B230000378401CCB1A921C03E01D780D70491C4A
:10B240005B1C521EF9D5A142D8D3002070BD00006E
:10B25000F0B50025FF268BB0013601242F4601955D
:10B26000304603F009FE002807D0484840682042D5
:10B2700003D0304603F0F8FD2543361D64007F1CE3
:10B28000B6B2042FECD3FF247D34204603F0F4FD46
:10B29000002807D0204603F0E7FD600705433C483F
:10B2A000006901903B4C280714D0012700262F424B
:10B2B0000CD03948B200111808690969C004C00EE1
:10B2C0008903A258890F002A00D090477F00761C7E
:10B2D000042EECD3002D57DA00200590401E4DE0DF
:10B2E000A119403108788506AD0E42B2521C39D002
:10B2F0000121A940089A0091114233D0800903909E
:10B30000284601F0D1FB800020580490002802D18B
:10B310000398032826D103980099032802D10598A1
:10B32000084305901D4AA80080180068019A800310
:10B33000800F114202D0022802D013E0032811D15D
:10B340000399032907D102281CD00221284603F0C3
:10B350007BFD7F1CFFB20498002803D0049A284686
:10B3600003999047761C042EBAD3002F0CD00848BE
:10B3700000690199884207D00190059800273E4650
:10B380000890ADE70321E1E70BB0F0BD006300409A
:10B3900000050050C4280020006500400007005050
:10B3A0008307FF22DB0E9A408907090E9940002887
:10B3B0000BDA0007000F0838830808489B001818AC
:10B3C000C36993430B43C3617047830804489B00E0
:10B3D0001B181868904308431860704700ED00E0A0
:10B3E00000E400E0F8B5FF20013003F0AFFB0024DB
:10B3F00001250E4E0E4F002807D00E480460012094
:10B40000B0607D70002001F091FBFF20053003F05B
:10B410009DFB002808D00748001D04600220B06092
:10B42000BD70012001F082FBF8BD00000003004068
:10B43000B02800200001004010B50E4B8AB00FCBA1
:10B4400002AC08940FC40A2168468184022101706D
:10B4500001206946103C70DF002801D000F090FB0D
:10B460000548069440886946888306A9232068DF3A
:10B470000AB010BD041C0200E81F002010B50649E8
:10B480000020086048608860C8600349403908604F
:10B49000486006F08BF810BD4011014070B5074BB5
:10B4A0000646187814460D46002801D100F0B0F881
:10B4B00022462946304600F003F870BDDC2E0020FD
:10B4C00070B50E4618214843134914464518E86ADA
:10B4D0001835002804D001280FD0022805D113E028
:10B4E000284600F0CBF8A04201D2002411E0224609
:10B4F0003146284600F0FDF80BE0284600F0BEF883
:10B50000A042F4D20446F2E73146284600F0C1F8E2
:10B510000446204670BD0000DC2E002070B50546B4
:10B520000C460846FFF738FE024621462846FFF73C
:10B53000B5FF70BD10B505F0ABFF10BD10B50648E6
:10B540004068002805D08047002801D000F018FB93
:10B5500010BD02F0EDFD10BD1021002010B502F06D
:10B5600035FE002805D01F491D484860C8131E49F4
:10B5700088611E48018CC9B201290BD1828C120747
:10B5800008D1028D1206120F042A03D1828D1206F1
:10B59000120F0AD0012921D1818C09071ED1018DFA
:10B5A0000906090F0A2904D007E0114A0121916018
:10B5B000F5E7828D1206120F05D00D290ED1808D70
:10B5C0000006000F0AD10B480168012904D00A497E
:10B5D000016001680129FCD1C021416110BD00005A
:10B5E000DFFF07C000050040006C0040C00F00F006
:10B5F0000006004000EC06407593000010B50249BB
:10B60000024806F02EF810BD0C2900200020004052
:10B6100010B5124C02202061606111A0A061134896
:10B62000E0610120800220620020A06260620CA123
:10B63000A1642146E0621039E16410212165A06512
:10B640006065E0650AA1E01DFFF7BAFD09A120468B
:10B65000FFF7B6FD2020A07110BD0000DC2E0020F9
:10B660005465726D696E616C00000000CC2A002088
:10B670005254540053454747455200000269C1687F
:10B680008A4203D88068401A801800E0501A401E91
:10B690007047F7B5064682B000200090F468174660
:10B6A0003069A04201D9051B02E0B168201A0D1AC9
:10B6B000B0686D1E001BA84200D80546BD4200D3ED
:10B6C0003D4670682A4600190399FFF735FD00983A
:10B6D0007F1B401900900398641940190390B068CB
:10B6E000A04200D10024F460002FD9D1009805B009
:10B6F000F0BDF7B5C668174604468068851B6068CC
:10B70000BD4206D980190199FFF716FDF019E060D6
:10B71000FEBD2A4680190199FFF70EFD01987E1B98
:10B72000411932466068FFF707FDE660FEBD30B4A0
:10B730007446641E2578641CAB4200D21D46635DCE
:10B740005B00E31830BC184702E008C8121F08C1AC
:10B75000002AFAD170477047002001E001C1121F92
:10B76000002AFBD170470000202804DA0121814023
:10B770000348014201D001207047002070470000BB
:10B78000FC06FFBC10B500280CD000290AD00278B6
:10B790000B789A4206D10622401C491CFFF703FD94
:10B7A000002801D0002010BD012010BDF7B584B0E5
:10B7B000064600251788158020300290407B1446ED
:10B7C000002806D03A462146059800F01FFE0500E5
:10B7D00009D1B078002823D0059886462088001D1E
:10B7E000B84202D90C2007B0F0BD684679DF0028C6
:10B7F000F9D1218803207246505420881921401C19
:10B8000080B22080115420887146401C80B2208074
:10B8100041186846008805F0B8FF2188401820804C
:10B82000F078002817D0218803230A46F356C91C54
:10B830000598B942D6D80221815421880122491C99
:10B8400089B2218042542188491C89B22180435405
:10B850002088401C20807068002817D02188002391
:10B86000C3560A46C91C0598B942BBD80221815467
:10B8700021880A22491C89B2218042542188491C0E
:10B8800089B2218043542088401C208030890028C0
:10B890000AD0009430460197062202210830059B09
:10B8A00005F09AFF05009ED1308A00280AD0009446
:10B8B00030460197072203211030059B05F08CFFCD
:10B8C000050090D1308B00280AD0009430460197B3
:10B8D000152214211830059B05F07EFF050082D14A
:10B8E000306A002806D03B462246059901F086F9C9
:10B8F0000500D8D1706A002806D03B46224605993B
:10B9000003F058F80500CED10298007B002807D03C
:10B910003B4622463046059905F052FA0500C2D151
:10B920003078002807D03B4622463046059903F080
:10B9300075F80500B7D1284655E70000174A0021E1
:10B94000535C002B01D0012203E0491C0629F7D3E8
:10B9500000221349012806D002280BD0032810D05A
:10B96000042818D112E04878002803D0002A01D01A
:10B97000012070478878002803D0002A01D00220D7
:10B980007047C878002801D0032070470879002844
:10B9900001D00420704700207047000025200020BF
:10B9A0006C22002010B501220221002000F0A8FE28
:10B9B000002801D0072812D107220221012000F01F
:10B9C0009FFE002801D0072809D100210A2208463D
:10B9D00000F096FE002801D0072800D1002010BDFD
:10B9E00030B58DB00C46054630216846FFF7BDFBEB
:10B9F000124B0FCB03936B4607C3294604A81022B2
:10BA00000546FFF799FB69460DA004F037FD29466E
:10BA10000DA004F033FD68464DDF002801D000F092
:10BA2000AFF808A910220D462046FFF785FB2946EE
:10BA300008A004F023FD0DB030BD0000F41B02008F
:10BA40006563625F6B657900636C656172746578CC
:10BA500074000000656E63727970746564206461BF
:10BA600074610000F0B50F468DB0002116466D469A
:10BA70000F24621A825C6A54491C1029F9D32846A3
:10BA80000D211030FFF771FB0020221A395C52198A
:10BA9000401C11740328F8D368464DDF0020211A9A
:10BAA0004919203109783154401C0328F7D30DB0CF
:10BAB000F0BD0000044842680121C9050B469343CC
:10BAC00083600A40C26070470005005070B50024D2
:10BAD000064D06E06968E000085C012103F0C4F847
:10BAE000641C28788442F5D3002070BDB420002067
:10BAF000F8B515460C460646052A01D20720F8BDC2
:10BB000003F088F9002803D103F056F90028F6D194
:10BB1000104900204E600C70C8608D6008610E4DA9
:10BB20000DE0E00069688019009181786A465170E3
:10BB300000780A4A694603F0E3F80028DFD120467E
:10BB4000641EE4B20028ECD1054A0021024800F04E
:10BB500023F8F8BDB4200020581D020025DB0100A9
:10BB600091CD0100BFF34F8F04490348C860BFF374
:10BB70004F8F00BFFDE700000400FA0500ED00E074
:10BB80000EB50021029000916A4601910148FFF72D
:10BB9000E9FF0EBD01400000094B5B68002B07D098
:10BBA000002A07D0002805D00068037C002B03D0B2
:10BBB0000820704707207047417442610020704799
:10BBC000D8200020FFB507469007002581B01E460B
:10BBD0001446002825D1002C23D004F069FE3046FD
:10BBE000114EF0603046103005704570029981703A
:10BBF00044607560357001240C487570240504603C
:10BC000003211420FFF7CCFB09480460094CA7600E
:10BC100003211120FFF7C4FB6068B060002005B06D
:10BC2000F0BD0720FBE70000C820002080E200E014
:10BC300000E100E000150140FEB51F4B5B68002BE2
:10BC400030D000282ED0052901D20720FEBD43693F
:10BC5000002B27D0437C012B26D0002702910446DD
:10BC60000025694616460D70684600F03DF801A8AB
:10BC700005F09CFD002819D0012101700F49446096
:10BC800049688160029907614661C16068460A4956
:10BC9000007948706846007800F044F805F03AFCF6
:10BCA0002846FEBD0820FEBD0F46D7E7684604259E
:10BCB000007800F037F8F3E7D820002000150140A5
:10BCC00010B50849496800290AD0002808D0416900
:10BCD000002905D000210174022105F043FC10BDAC
:10BCE000082010BDD820002030B5EFF3108172B6C7
:10BCF000094A54680123002C04D00370002900D1A4
:10BD000062B630BD5360054B1D68054C254015607B
:10BD10001C6000220270F1E7EC20002080E100E0CE
:10BD2000FC06FFBC08494A68002A0CD000280AD14A
:10BD3000EFF3108072B60A68044B1A6000224A6062
:10BD4000002800D162B67047EC20002000E100E03E
:10BD5000F0B504468BB0008800F0F4FA0590208816
:10BD600002F054F90646A0680090657A68460574AA
:10BD70001E4F20880022397800F034FB05980028F7
:10BD800031D06079400710D50721304603F022FCFE
:10BD9000002813D0082269460A7422884A828E82BB
:10BDA000069004A801F0E4F808E02088B97800F0D3
:10BDB00007FB002802D0304602F012F90321684642
:10BDC00001712188C18060794007C10F6846017206
:10BDD000A0794007C10F6846417201788172C5722F
:10BDE00001A801F0C5F80BB0F0BD000098200020BC
:10BDF000F0B50C4693B01F216A4611800726002734
:10BE00009180002809D0C17849070DD502A9FFF714
:10BE1000CDFC002809D102AD01E000251780002CDF
:10BE20000ED0E078002802D0304613B0F0BD01AA51
:10BE30000AA92046FFF7BAFC0028F6D10AAA02E0B8
:10BE400068460022878068468088C3B268460088BA
:10BE5000C1B2284672DFE8E7FFB581B01E460A9FEF
:10BE60001346040047D0002B45D0504D01202870C8
:10BE70000020E870202219464D48FFF75DF90020A8
:10BE80006F61C0432E612881284607211830FFF7D3
:10BE90006CF9474838212030FFF767F9444821788A
:10BEA00020300170A1788170E178C17061784170B3
:10BEB0003F4A656923695563114613632031E3687E
:10BEC000A268CB608A603A49E369A269CB638A635E
:10BED000616A00291AD00146383102464432416273
:10BEE0008A60636A1B880B80616A436A89889980CB
:10BEF0000021436A07E00E2005B0F0BD656AAD6819
:10BF00006D5C5554491C9D888D42F7D8A16A002963
:10BF10001CD0274A903211460C398A608162A36A8C
:10BF20009B888B80A16A836A098819800021836AB3
:10BF300004E0A56AAD686D5C5554491C9D888D422E
:10BF4000F7D82C210A5D1A4940310A73216A002969
:10BF500009D016490A310162226A52884A80216A50
:10BF6000026A098811806168002900D04160104A86
:10BF70000E490020AF322031C3001B1A85009B18E8
:10BF80000C68401C63510828F6DB094A0020E732A0
:10BF9000030185009B188C68401C63510828F7DB5F
:10BFA000034802992030FFF723FFA5E70C2000206B
:10BFB0006C22002010B50188134C102915D01129CE
:10BFC00019D01B2910D1007A00280DD1E078052165
:10BFD000401CFFF79BF8084600F04EF8002803D0FD
:10BFE0006169002900D0884710BD817D0129FBD1FE
:10BFF0008088208110BD002161718088218988425C
:10C00000F8D10120E8E700000C20002010B502283C
:10C0100001D003280ED1084C607800280AD00020F7
:10C020006070E07800F028F8002803D061690029EA
:10C0300000D0884710BD00000C20002010B574DF30
:10C040000B4C012060710B490620C8700021094883
:10C05000FFF7CEFE002809D1E07800F00DF80028A7
:10C0600003D06169002900D08847002010BD00007E
:10C070000C2000208C220020F1B53F4C88B02078A5
:10C0800000280AD00898E07006A801F097FA0698F0
:10C090000125002804D065706AE0082009B0F0BDD1
:10C0A0003548002707211830FFF75FF8334E7078C6
:10C0B000002802D0E078012807D0B07800280CD002
:10C0C000E078012801D0022807D12169002903D096
:10C0D00025710820884700E027710898FFF72EFC9B
:10C0E000E0702169002909D0032801D0042805D176
:10C0F0003078002802D06079002811D0A77118216B
:10C100006846FFF732F8684607700772E1781A4808
:10C110000B001830FFF70BFB052E080F191D200030
:10C12000A57107208847EAE7A57001906846057069
:10C130004782078213E00221A170019068460570D2
:10C14000B18941823189018209E0684604F080FEAC
:10C1500002E0684604F0A8FEE078002803D06846B4
:10C1600073DF00289AD12169002901D0A07888477F
:10C17000002093E7A770F6E70C2000206C22002037
:10C18000F8B5214C0146028800261E48E589102A90
:10C1900013D01E4F112A1FD0122A2BD0502A1AD189
:10C1A000881DC988A94216D14189022913D10C30B2
:10C1B00000F06FF900280CD112E08A880446428012
:10C1C000104808220C301831FEF7B6FF6670002DBB
:10C1D00001D100F057FDF8BD0021C94341804670F0
:10C1E0003868FFF76DFD0028F5D0A1690029F2D06D
:10C1F0008847F8BD034808220C300831FEF79CFF41
:10C20000E7E700003C20002034240020C41C02008A
:10C2100010B503490A7D091D04F01FFC10BD000084
:10C2200050240020034B10B50246D97D181D04F0A0
:10C2300001FC10BD50240020034B10B50246197EAE
:10C24000181D04F0F7FB10BD50240020F0B5044683
:10C2500002883A488DB0014615310191102A09D063
:10C26000112A50D01A2A4AD1217A090901294ED916
:10C2700001234DE0027D417D05468A43011D07A84B
:10C2800004F0EBFB142207A902A8FEF755FF0026D5
:10C290002A483746143008900AE0710002A80818AE
:10C2A00083881D220097281D089904F083FB761CC3
:10C2B0000298B042F1D8287DA688C043C0B204F0ED
:10C2C0009DFB1F49884217D04000401986800123FA
:10C2D0003246281D019904F0E3FB01233246281D54
:10C2E000089904F0DDFBA07D02280AD00023134941
:10C2F000A2881631281D1DE00420FFF741FC0DB077
:10C30000F0BD0123F3E70023A288001D12E0002303
:10C310000A490546A2881731001D04F0C1FB207AA6
:10C320000009022801D9012300E000230349A28863
:10C330001831281D04F0B4FBE1E700005024002070
:10C34000FFFF000070B50B4E05460024317D2A46E4
:10C35000301D04F06FFB002809D0B17D2A46301D46
:10C3600004F068FB002801D0022400E001242046EC
:10C3700070BD00005024002010B50024204605F0B8
:10C3800009FA002805D0641CE4B2182CF6D3182052
:10C3900010BD044801220168A240114301602046FB
:10C3A00010BD00005024002010B5044605F0F2F93D
:10C3B000002802D001480019407E10BD5024002002
:10C3C00070B505460C46084605F0E4F9002806D08D
:10C3D00003482A460119497E001D04F02BFB70BD5D
:10C3E0005024002070B5064615460C46084605F058
:10C3F000D1F9002807D004482B4601193246001D08
:10C40000193104F04DFB70BD502400207CB5054669
:10C4100008880C460930904201D90C207CBD684642
:10C4200071DF0028FAD121880820685420881B2158
:10C43000401C80B220802954208800A9401C80B272
:10C440002080401906220131FEF776FE20886946D9
:10C45000801D80B220800978002900D00121295454
:10C460002088401C208000207CBD10B50446FFF7CA
:10C47000EDFE204603F0A6FD2046FFF781FE204694
:10C4800000F070F8204602F01FFD2046FFF792FDF5
:10C4900010BD4178027808021043C007C00F7047F2
:10C4A00000B5174887B00068059000234822154959
:10C4B00005A804F0A9FF002801D0FFF761FB6A4638
:10C4C0000121002004F088FF002801D0FFF758FB6D
:10C4D000684604F077FF002801D0FFF751FB0A48B7
:10C4E00004F066FF002801D0FFF74AFB074804F07C
:10C4F000BDFF002801D0FFF743FB07B000BD0000DF
:10C50000F01B0200B82100206BC40100811402005E
:10C510007CB5134E00250C463060002918D06946C2
:10C52000002000F0B5F8002819D101A9012000F081
:10C53000AFF8002813D1684601790020002901D006
:10C54000022004E069460978002900D00B20207001
:10C550007068002802D1FFF725FA054628467CBD01
:10C560000420002010B51C4C0188606810290DD0F3
:10C5700011290AD1401E606007D1FFF713FA002885
:10C5800003D02168002900D0884710BD00281ED1A3
:10C5900000210122084600F0B3F8002801D0072846
:10C5A00011D107220221012000F0AAF8002801D0B1
:10C5B000072808D104220221002000F0A1F8002859
:10C5C00005D0072803D02168002900D0884760687B
:10C5D000401C606010BD00000420002010B5032046
:10C5E00000F00CFA002801D0062800D1002010BD70
:10C5F000F8B507460024234802E0641C042C1AD234
:10C60000A2008258BA42F8D1042C14D21D481E4E02
:10C610000C38002929D001290ED002290BD1600045
:10C62000201880194578002D05D018480169002987
:10C6300001D028468847F8BD61006118755C8E19E5
:10C64000717800290CD011490A2249688068514349
:10C650000E4A521CFFF7F0FA002801D10B48477030
:10C660000A48B17814300155DDE78068FFF728FBF0
:10C6700006486100611814308919005D8D78A84260
:10C68000D1D0F8BD941C020040220020EC1F0020F5
:10C6900004280CD2074A1269074B80001B5C01205A
:10C6A0009840904300D0012008700020704700207F
:10C6B000FAE7000000050050941C0200014610B586
:10C6C0000D480429008806D007290CD00A2901D179
:10C6D00004F014FC10BD132176DF09E00028F9D026
:10C6E000FFF74EFA10BD05498842FBD1FFF7A6FCC3
:10C6F0000828F3D110BD0000E81F0020FFFF000054
:10C7000070B50023042811D2440004190D4D012AEC
:10C7100002D101290DD0002246008019094E80194E
:10C7200000290CD0012906D0022906D0072318467B
:10C7300070BD0D30C2B22A55F9E74270F7E782703A
:10C74000F5E700004022002010B5054A0146127AA4
:10C750000020D20702D0084600F054F810BD0000B7
:10C76000EC1F002070B50E46204905464E608D60D6
:10C7700000200A61A9071ED5002401221146204687
:10C78000FFF7BEFF641C042C02D20028F5D012E093
:10C79000002810D1720804211548FFF7A9F90028D4
:10C7A00009D1FFF793F9002805D11148114A00215A
:10C7B0001438FFF7F1F9E90706D00F220E495205A8
:10C7C0008A600023CB608A6100280DD108480B4A9B
:10C7D00000211C38FFF7E0F9002805D10448084A79
:10C7E00001211838FFF7D8F970BD0000EC1F0020B8
:10C7F000A41C020039CA01000005005039E2010002
:10C80000B5BA0100FEB57A4D0722EB6892059A434E
:10C8100002936B6800939C0006461B1900200121BF
:10C82000019349050746734C3300FEF780FF180D4E
:10C830001515374755677C887F8891DE9E9E9E9EA2
:10C840009EC8CED1D8DEDE140F21029A490591434D
:10C85000A160E7602F70FEBDA260E76060680F22F4
:10C8600052055040800209D5A160E760022E02D136
:10C87000E120C0000AE07D20400107E0E160A76000
:10C88000022E01D1C82001E0FF2091302E706421DA
:10C89000FEF73CFC0099414300223FE0A260E760C4
:10C8A00060680F2252055040800204D5A160E76005
:10C8B00019204001EAE7E160A760E3E7A260E760D2
:10C8C00060680F2252055040800202D5A160E760E7
:10C8D000D1E7E160A760D7E7A260E76060680F2258
:10C8E00052055040800202D5A160E76001E0E1609E
:10C8F000A7602E700098410000220FE0A260E76060
:10C9000060680F2252055040800202D5A160E760A6
:10C9100001E0E160A7602E700099002236480068AF
:10C92000FFF78AF9FEBDA260E7601BE061680120A5
:10C93000800502468A43A2600140E16010E0606821
:10C94000012189050A468243A2600840E060E3E7CE
:10C950006068012189050A468243A2600840E060C0
:10C960000199C9E7E160A7602DE023484068FFF71F
:10C97000A7F911218A1B01D0002807D00F22E968EE
:10C9800052051140A160E760EF60FEBD0121C905BD
:10C99000E960012A0CD91046C82148436421FEF7FA
:10C9A000B5FB69680022414313484068FFF744F92A
:10C9B0000F22E96852051140E160A760FEBD0F211A
:10C9C0004905A160E7602E70FEBD07229205AAE727
:10C9D0000D214905A160E76001218905C2E7032116
:10C9E000C905A160E7608910BCE70F214905B9E7D7
:10C9F000EC1F002000050050881C0200F0B500214B
:10CA00000B4C0C4D03273F048A00A2589200561984
:10CA1000326801238B40034000D00323BA431B0438
:10CA200013433360491C0429EED30020F0BD0000FD
:10CA3000941C02000007005010B500780221FFF797
:10CA4000D7FD10BD0022D243830004490428CA50F8
:10CA500002D308182030027770470000C428002055
:10CA6000F0B50025ED43002A02D00023042601E0A2
:10CA7000042308260B4C04E09F00E7597F1C04D0D8
:10CA80005B1CB342F8D32846F0BD26185DB22036B1
:10CA900035709E00A151002AF5D1E11820310877A8
:10CAA000F1E70000C4280020024909182020085698
:10CAB00070470000C4280020002807D004498142A4
:10CAC00004D80449814201D90120704700207047F1
:10CAD0003021002040210020044A0168914201D009
:10CAE000083101E00149383901607047242A0020EB
:10CAF00070B50D4D04460A462846AC4208D1FF24C5
:10CB000001342146104603F01BFAA0420AD070BD42
:10CB1000FF2CFCD82146104603F004FA002801D06F
:10CB2000204670BD284670BDFFFF000070B5084C60
:10CB3000050009D010342168002907D0086820605A
:10CB4000496828468847F6E70834F4E770BD0000D6
:10CB5000B0280020F8B52348416800293ED00E686F
:10CB600021494C6887688078E11B0D022D0AED1C75
:10CB7000002814D101201D4A000450601B4A403A8D
:10CB800050601B49400008601A4908601A4901209A
:10CB900008602F2001F0E2FF124901208870B542A1
:10CBA00000D23546E81900020F4B000A40331860E6
:10CBB0000D4A5168001B091B0902090A0002000AFC
:10CBC000C91C814209D9506818602F2001F0C6FFA6
:10CBD00001200749400480390860F8BD03F068FE71
:10CBE000F8BD0000C820002000150140401301409E
:10CBF00080E200E000E100E000100140F8B50646E8
:10CC0000108814468446801D0D46984201D90C2098
:10CC1000F8BD32880720062AFAD31927FF01184BDE
:10CC2000BA4201D99A42F3D171880629F0D3B942A8
:10CC300001D99942ECD19A4203D0994201D08A425B
:10CC4000E6D805216046295420881221401C80B274
:10CC5000208029542088401C80B2208041193088CF
:10CC600004F093FD2188401880B22080411970881B
:10CC700004F08BFD2188401820800020F8BD0000C2
:10CC8000FFFF0000F8B5164801F092FA144D002697
:10CC90000C3D144C002807D0616900291CD00120EC
:10CCA0006A461070684616E02878002805D0616949
:10CCB000002911D0684606700DE0687800280DD074
:10CCC000A168094800220068FEF7B6FF002803D0DB
:10CCD000A169002900D088472E70F8BD6168F0E78F
:10CCE0004820002034240020C41C0200F0B585B088
:10CCF0000C46002802D0012005B0F0BD20790027A5
:10CD00000126002806D01F4D012820D002282CD053
:10CD10000F20F1E702970397E0680190694601A8A8
:10CD200003F0F0FC00280ED002988188E180008892
:10CD30002081029803F060FD694609880A011249C2
:10CD400051188E7300E00A2002212171D4E70F4BA5
:10CD50006A460021A01D03F093FC002807D00B4970
:10CD600008398F60CF600A28C6D12846C4E70198E9
:10CD700003F042FD054989880A01034951188E7361
:10CD8000F1E700001D1D0000342A0020FC200020D7
:10CD9000F8B500260124154D23E06968F000471816
:10CDA000387821462A698140114218D08A432A6185
:10CDB00001F0F8FF3A782146EB68914019400346AC
:10CDC000934099420BD17978012901D0012100E0EB
:10CDD00000217B684140002B01D010469847761C0B
:10CDE000F6B228788642D8D3F8BD0000B4200020DF
:10CDF00010B50E4900230A784C78A24212D0521C7A
:10CE0000D2B20A70022A00D10B700A78074B920046
:10CE100018339A580260886810180002000A886067
:10CE2000012010BD0360002010BD0000C8200020BC
:10CE30003EB5094D38CD0093029501946B4658805C
:10CE400099809A71054900220978FFF7CBFA684664
:10CE500000F08EF83EBD0000481D02009820002022
:10CE600010B5047800222300FEF761FC07060507D1
:10CE70000D1D262C06000A7010BD01220A700289C1
:10CE80008A81828814E002220A7002898A8182885B
:10CE9000CA81C2688A60007C062802D0002008741B
:10CEA00010BD0120FBE703220A70C2888A81028933
:10CEB000CA81C068886010BD04230B70C088888157
:10CEC000CA8110BD0520087010BD000070B5064D68
:10CED00006460024A0002958002901D03046884782
:10CEE000641C082CF6D370BD542900200EB500290F
:10CEF00010D011290ED00022009202926A46508072
:10CF000001910D2907D0042907D00920107010467F
:10CF100000F03CF80EBD0B20F8E70A20F6E7000011
:10CF200001490968084700005820002070B5054DE8
:10CF300006460024A000295830468847641C022C6D
:10CF4000F8D370BDE01C0200F8B507460024064E79
:10CF5000064D04E0A000315838468847641CE87844
:10CF60008442F7DBF8BD0000642800208820002000
:10CF700070B5054D06460024A00029583046884764
:10CF8000641C022CF8D370BD101D02000149096811
:10CF900008470000541D02007FB504464068002881
:10CFA0000BD00020039020780026414D0300FEF7AF
:10CFB000BEFB066D0606304E7B6D0120F2E7A089B0
:10CFC00000F0DCF9002804D1E08903F02DFC0028F2
:10CFD0005CD0A08900F0CCF9014668464180E08928
:10CFE00003F01CFC01466846017120780128606846
:10CFF00007D0002809D004206946087060680390B3
:10D0000020E00028F8D00320F6E70120F4E70846E6
:10D010003AE0A08900F0B2F9002804D1E08903F0D9
:10D0200003FC002832D0A08900F0A2F969464880AC
:10D03000E08903F0F3FB694608716068002804D0BA
:10D0400005200870A0680290E1E70220F9E7A089B6
:10D0500000F094F9002819D0E089002816D1A089A1
:10D0600000F086F969464880E08903F0D7FBFF208D
:10D0700069460871606800280FD0072008706E703C
:10D08000AE7002F081FC684602F03CFB6878002834
:10D0900002D06E7002F078FC7FBD062168460170F8
:10D0A000408802F0FFFCEAE7082069460870AEE716
:10D0B0007420002000B5104987B00978890702D490
:10D0C000022007B000BD0D49884201D10420F8E7D5
:10D0D000052269460A7001220A71C88000221146A1
:10D0E000684601F06DFF002803D003F0ADFA002080
:10D0F000E7E70820E5E70000F4200020FFFF00003C
:10D1000000B50F4887B00078800702D4022007B02E
:10D1100000BD06206946087000221146684601F0ED
:10D120004FFF002809D007480178002901D00121CC
:10D13000017303F089FA0020E9E70820E7E700001F
:10D14000F4200020542A002000B58DB01421684638
:10D15000FEF70BF81E480078810703D56846FFF7F5
:10D16000B5FE32E0C00730D1012000F02DF900F00B
:10D17000CFF901F0B7FF00280ED006280FD001210B
:10D180006A4611750300FEF7D2FA0C19111911192C
:10D1900018191819131613190B200DB000BD022011
:10D1A00000F012F9012000F0F5F8D7E7002000E0C8
:10D1B0000320107602E00220FBE7117600221146E0
:10D1C00005A801F0FDFE03F03FFA0020E5E70000AE
:10D1D000F420002038B5040014D0694603F092FA18
:10D1E000002813D068460088010109480918888979
:10D1F000002809D0A27A002A06D0401E888100208B
:10D20000A07238BD052038BD062038BD0A2038BDC3
:10D21000342A00201FB501A9684603F031FA04B092
:10D2200010BD07B513460A466946002003F028FAE8
:10D230000EBD07B513460A460021684603F020FAE2
:10D240000EBD002805D0002903D00068086000202A
:10D25000704705207047000038B50D46040017D010
:10D26000002D15D0694603F04DFA002812D068460B
:10D27000008861680201084812189089401C90815A
:10D28000296060680C3068600120A072002038BD01
:10D29000052038BD0A2038BD342A002010B50028EA
:10D2A00004D00323002204F071FB10BD052010BD43
:10D2B00010B50223002204F069FB10BD10B5002A4E
:10D2C00003D0022304F062FB10BD052010BD000056
:10D2D00010B5064A5178082906D08B00044C491C29
:10D2E000E0505170002010BD0C2010BDF420002033
:10D2F0005429002038B504460A480D4600788007B6
:10D3000001D4022038BD002C0AD06946284604F01A
:10D3100049FC0028F6D1694609882180658038BD1E
:10D32000052038BDF420002010B504460E480078D2
:10D33000800701D4022010BD002C10D021880229C2
:10D340000FD80A4A0801801842896088121A032AF5
:10D3500007D404F01DFC00202080608010BD052053
:10D3600010BD042010BD0000F4200020342A00204D
:10D3700003218903401A80B270470000032189030A
:10D38000401A0349884201D80120704700207047A5
:10D39000FE3F000002490A7882430A70704700008D
:10D3A000F420002010B504460078182802D1FEF7BA
:10D3B000E3FF207010BD10B504460078182802D194
:10D3C000FEF7DAFF207010BD02490A7802430A70A6
:10D3D00070470000F420002070B506460020054686
:10D3E000042906D0112902D0002903D070BD0125DF
:10D3F00000E001200E4C002A02460FD06179304631
:10D40000FEF7F0FF2A4621793046FEF7EBFF0022B7
:10D4100061783046FEF7E6FF002204E0617830468E
:10D42000FEF7E0FF2A4621783046FEF7DBFF70BDAD
:10D430009C20002010B5002823D0124B0022001F92
:10D44000196803E0814203D80A4649680029F9D1E6
:10D45000002A0AD01368841A9C4204D10068181864
:10D460001060104602E0506000E01860002907D00C
:10D4700002680B1A934203D10B68D2180260496804
:10D48000416010BD28210020F8B506461C481F4603
:10D49000007815460C46C0070AD03046FFF70CFB53
:10D4A000002807D0002C07D0A00507D00620F8BD23
:10D4B0000120F8BD0220F8BD0320F8BD3068A0426D
:10D4C00004D8A80271680019884201D90520F8BD66
:10D4D000002D10D0684603F009F800280DD0009800
:10D4E0000221C0C00170A101090C8180058103F0F7
:10D4F000B9F80020F8BD0420F8BD0720F8BD0000F1
:10D500000C21002010B5084603F00CF810BD0000F7
:10D51000F0B52648264C001B0309264819464069E9
:10D52000421C03D10120000740698002224A127880
:10D530009646D2070CD00020F0BD1D4C15012C19C9
:10D540002568002D03D06468002C00D0491E521CB1
:10D550009A42F2D3002420E0E2B2002594462A4603
:10D560000FE0134E1701BE193768002F02D07768FD
:10D57000002F05D1767BAE4202D93546D6B2B446ED
:10D58000521C9A42EDD362461501094AAA1850600E
:10D59000157BAD02401B641C10608C42DCD3064836
:10D5A0007146012211430170C5E7000040210020AF
:10D5B00030210020001000100C210020002804D091
:10D5C0000349496E01600020704703207047000046
:10D5D000642A0020F8B507461E481E460078154606
:10D5E0000C46C0070ED03846FFF766FA00280BD06D
:10D5F000002D0BD0002C09D028462043800707D0EF
:10D600000620F8BD0120F8BD0220F8BD0320F8BDBA
:10D610003868A04204D8B10078680919884201D25C
:10D620000520F8BD002E11D0684602F05FFF0028EB
:10D630000ED0009806990760416001210172C56013
:10D640000461868203F00EF80020F8BD0420F8BDC6
:10D650000720F8BD0C21002070B5174B0446186E4A
:10D66000182148431549C0180A78950715D5022C8A
:10D6700002D0032C1CD102E001F078FC18E04A78BB
:10D68000521CD2B24A70032A12D900224A700821D1
:10D6900003F0D8FA02F014FF0AE0500708D5FB2087
:10D6A00002400A70586E002802D0022002430A701D
:10D6B00002F094FF70BD0000642A00200C210020BD
:10D6C00070B5002801D0012070BD164C0025207BCC
:10D6D000002801D0257301E000F09CF820780300B9
:10D6E000FEF725F8081E05080B0E1E111A1E00F085
:10D6F0001BF870BD00F07EF870BD00F061F870BDE1
:10D7000000F038F870BD60880649000120394018E3
:10D71000406801F0C7FC70BD656001F0D1FC70BDD0
:10D720000F2070BD542A002070B5104900208A1CBB
:10D730000D460346203D0C18A67A002E08D0A37291
:10D7400004016419A689002E02D1A47B012C08D003
:10D75000401C80B20228EED30B704B8004484B6013
:10D7600070BD108000F046F870BD0000542A002003
:10D770001D1D000010B50F4C6088010120462038A7
:10D780000818818900290BD0052020700A48022141
:10D7900081800168002301220848FFF775FE10BD53
:10D7A0004168002301220548FFF76EFE0421217025
:10D7B00010BD0000542A0020042100203021002048
:10D7C00038B50A4908480B688988426889005918A1
:10D7D0005388032404700020DB1C00909BB2044893
:10D7E000FFF7F8FE38BD0000542A00200421002075
:10D7F0003021002010B506494888091D02F0D2FFEB
:10D80000002802D0FFF7DCFF10BDFFF7B3FF10BD0B
:10D81000542A0020F0B51D481D490778024601250D
:10D8200002268C88203A3B00FDF781FF0805171778
:10D830001A212C2C16170189491C018100214180D5
:10D8400001730B01D35C002B08D000234418491C42
:10D8500089B2A3720229F4D30570F0BD0123F5E764
:10D8600042685288D21CA2188A800670F0BD458892
:10D870000B682D01AA1855680D60536014818E80C5
:10D88000062100E007210170F0BD0000542A0020AD
:10D8900004210020F0B504460088384D8DB0502892
:10D8A0001DD0522802D0542826D103E0A08800F0D1
:10D8B00009FF21E0062069460870A08800F0A6FB59
:10D8C00069464880A2888A8000F054F9A088002226
:10D8D000E978FEF787FD6846FFF722FB0CE0207B26
:10D8E000012809D1A07A012806D12089244988423B
:10D8F00002D1A08800F022FFA878FEF755FD00288D
:10D9000019D008A8FEF784FC142208A903A8FDF783
:10D9100013FC002403AE0BE060008719B888A978D7
:10D92000FEF74EFD002802D0B88800F0CBFE641C44
:10D930000398A042F0D86878FEF736FD002819D089
:10D9400008A8FEF765FC142208A903A8FDF7F4FB5C
:10D95000002403AE0BE060008719B8886978FEF7F1
:10D960002FFD002802D0B88800F0E8FE641C039860
:10D97000A042F0D803F08AF90DB0F0BD502000208D
:10D98000022900003EB50446408869464880207858
:10D99000002814D001281DD002280FD1207900289A
:10D9A0000CD0608800F066FA0E49884206D00E4915
:10D9B0000122C978FEF716FD03F068F93EBD00208C
:10D9C00008700846FFF7ACFA608800F053FA00F0E0
:10D9D00079FE3EBD012168460170A1888180FFF774
:10D9E0009FFA3EBDFFFF00005020002010B5044606
:10D9F000007801280DD1608800F064FE608800F096
:10DA00007DF9002805D0034960880122C978FEF716
:10DA1000E9FC10BD5020002010B5104C00202070F3
:10DA2000FEF7AAFC6070FEF7A7FCA070FEF7A4FC4E
:10DA3000E070FEF7A1FC2071617818290BD0A17865
:10DA4000182908D0E178182905D0182803D001201A
:10DA50002070002010BD032010BD000050200020C9
:10DA6000F0B585B000F09EF86846FEF7D1FB0024C3
:10DA70006D460C4F0EE060004619B08800F0C6FA03
:10DA8000B84205D10849B0880122C978FEF7AAFC3E
:10DA9000641CA4B20098A042EDD803F0F7F805B0DA
:10DAA000F0BD0000FFFF00005020002010B50178FD
:10DAB000072902D1408800F041FE10BD10B5044690
:10DAC0000A4841782046FEF77BFC00280CD0084825
:10DAD00000210C224A4312185288A24201D1C8B236
:10DAE00010BD491C0829F4D3FF2010BD6820002078
:10DAF0008424002070B5094D094E00240C20604399
:10DB0000401940887178FEF75BFC002804D0641C43
:10DB1000082CF3D3FF2070BDE0B270BD8424002038
:10DB200068200020F8B50746104E0125BD4030683A
:10DB3000FEF7C6F800280DD10D4C2069284207D108
:10DB4000384601F02FF90028E06804D0284303E0AC
:10DB5000A8432061F8BDA843E06020690022284363
:10DB60002061A1683068FEF767F8F8BD581D020013
:10DB7000B42000201CB5054A9168D268019200913A
:10DB80000022694601F086FC1CBD0000CC1C02008E
:10DB900003480021C94381800121017000207047A2
:10DBA0005C20002010B5044801F0A0FB03498880E8
:10DBB00003F098F810BD0000FFFF00005C2000207B
:10DBC000F1B582B0029800F021FA0024164903252D
:10DBD00001272646884209D06A46082101F030FC18
:10DBE000002803D1019886880568841D2B4632469B
:10DBF00021460298A9DF042804D0082804D00B2865
:10DC000007D002E0112000E00020002F00D10B20FF
:10DC1000FEBD0027A80701D50125E7E73443F6D06C
:10DC2000002426460325E1E7FFFF0000F1B582B09E
:10DC3000029800F0EBF907461B48874201D11B48C8
:10DC4000FEBD01252A466D1C0026ADB26B4608219B
:10DC5000384601F025FC040002D0072C21D021E039
:10DC6000019903230B600A1D891D0298AADF040095
:10DC700004D00C2C08D0052C08D008E00821384628
:10DC800001F0A8FC04460DE0012600E00024082174
:10DC9000384601F089FC002800D00324002ED1D1A1
:10DCA00000E00C242046FEBDFFFF00000230000013
:10DCB0001FB504460078012813D12079012810D11E
:10DCC000608802AA012101F0BBFB002809D10221D2
:10DCD0006846017061884180012101710549096828
:10DCE00088470448044908388088884201D002F0F7
:10DCF000F9FF1FBD64200020FFFF00001CB500F0ED
:10DD000085F96A46012101F09BFB002801D0002023
:10DD10001CBD019800781CBDF8B5074E074C084D96
:10DD20000746324661883846A7DFA84203D160889B
:10DD3000401C6080F5E7F8BDFFFF00005C2000207C
:10DD4000033000008188054A914204D000880028F1
:10DD500001D001207047002070470000FFFF000045
:10DD60003EB5044600780D46022815D10322611CF9
:10DD70006846FDF7E1F90322211D02A8FDF7DCF951
:10DD800001AA02A92846FDF76DFE032201A96846F3
:10DD9000FDF709FA002801D000203EBD01203EBD5C
:10DDA00010B50C46FFF78AFEFF280AD00C21484325
:10DDB0000549072241182046091DFDF7BDF900203D
:10DDC00010BD052010BD00008424002070B501881E
:10DDD00090B0102949D1011D2C2202A8FDF7ACF901
:10DDE0006846234E007B344602AD03282AD001F05A
:10DDF000F9FC6846007B00280ED001280CD00228D0
:10DE000020D118E00E99281D1131FDF7BBFC002828
:10DE100002D06846048815E00DAA6946072001F083
:10DE2000B7FC0028EED10DE00E99281D491CFFF724
:10DE300097FF0028EDD10DAA6946072001F0A8FC44
:10DE40000028F1D168460089291D00F037FEB44250
:10DE50000BD068460089214600F086F868460189A3
:10DE6000418001210170FFF761F810B070BD000022
:10DE7000FFFF0000084A00210C234B43D35A834282
:10DE800004D10C204143881840887047491C082958
:10DE9000F2D302487047000084240020FFFF0000F6
:10DEA00010B50E4C182060700D4A0E4900200C234E
:10DEB00043435B18401C5A800828F8D3FEF75CFAED
:10DEC0006070182804D00548C01C71DF002801D0FC
:10DED000032010BD01202070002010BD682000200C
:10DEE000FFFF00008424002070B504460D46401C4E
:10DEF00000F090F9002810D01022691C601CFDF77A
:10DF000052F900280AD00026294620461131113046
:10DF1000FDF738FC01463046084370BD0126F3E7A3
:10DF20000188002903D142189278002A01D00120EB
:10DF30007047491C0829F6D30020704710B50C46DD
:10DF40000346FFF7EDFF00280BD018882188884290
:10DF500006D10822A11C981CFDF725F9002801D044
:10DF6000002010BD012010BD10B501F0F7FD10BD5F
:10DF700010B50446007888B0002826D120790728FB
:10DF800023D1608801AA072101F05AFA00281CD188
:10DF900001F028FC1BE0694660880988884216D099
:10DFA00004990298FFF7A0FF002810D06088FFF7BF
:10DFB00061FF01466846C1820021017561880183C5
:10DFC0000188418305A8FEF7B1FF08B010BD03AA80
:10DFD0006946072001F0DCFB0028DCD1F5E70000F2
:10DFE00070B50446FFF746FF0546204601F02DFABE
:10DFF000054904468D4204D0002C02D1284601F088
:10E00000ADFD204670BD0000FFFF000010B5FFF71A
:10E0100055FDFF2804D00C2148430249085A10BD81
:10E02000014810BD84240020FFFF00003EB50446D7
:10E0300001F0D8FB10E0019920464631FFF77EFF42
:10E04000002806D1019920462A31FFF777FF0028E2
:10E0500002D0684600893EBD6A4602A9072001F049
:10E0600097FB0028E7D101483EBD0000FFFF0000FC
:10E07000F8B50F46002804D00120FFF78BF90120E6
:10E08000F8BD397900290AD00026254D01290BD089
:10E09000244C022920681FD003293BD125E001F040
:10E0A0000FF80121397133E000200101695C022978
:10E0B0000BD0401C80B20228F7D30220FFF784F96E
:10E0C0000120FFF767F91848F8BD0401601940689E
:10E0D00000F0E8FF2E551BE0014600230122134803
:10E0E000FFF7D2F90221A18011E000F0DBFF0C491B
:10E0F0002368203149880A01094951184D68256073
:10E100004B60A3880B810221A18005498E543E718A
:10E110000028D9D00120FFF73DF90E20F8BD0000FE
:10E12000342A0020042100201D1D00003021002081
:10E13000F8B51E4C2078002836D0E068002600286C
:10E140000CD00025607800282ED1684652DF0528C3
:10E1500006D0002806D0FDF713FD0BE00125F1E7FE
:10E16000012607E0009800F049FD2169002901D04F
:10E1700000988847002D13D16078002814D160885A
:10E1800069460880A06861DF052804D0002804D013
:10E19000FDF7F6FC04E0012502E0E168A06888478D
:10E1A000002ECFD0002DE5D0F8BD000010210020BA
:10E1B000418805480288914204D34088814201D8B1
:10E1C0000120704700207047402000201048018C3B
:10E1D000C9B2012917D1818C090714D1018D090613
:10E1E0000A0F03D1828D1206120F0ED0090F0129DA
:10E1F00003D1828D1206120F07D0032903D1808D1F
:10E200000006000F01D00020704701207047000079
:10E21000C00F00F00021425C002A01D001207047AD
:10E22000491C1029F7D300207047800701D0002037
:10E23000704701207047000010B50448017AC907F3
:10E2400002D00078FEF7DEFA10BD0000EC1F0020BF
:10E25000FFB5244D81B0287A1F460E46084304D0EE
:10E26000039A002E04D0002104E0052005B0F0BD83
:10E270001C491031019802F09DFF0446014600221E
:10E280000198FFF7A9F8002F03D021460198FEF767
:10E290002DFE0D2C0DD006DC002C0AD0042C16D03F
:10E2A000082C05D105E0112C05D00F48C44200D040
:10E2B00003242046DAE73246E9780198FEF792F81F
:10E2C000A978039A0198FEF78DF80024F1E7324609
:10E2D000E9780198FEF786F8A978039A0198FEF785
:10E2E00081F8E6E79C200020FECFFFFFFEB5174631
:10E2F0000C00064604D02078C00704D0012003E0BB
:10E3000000217EDFFEBD0220694608713046FFF71E
:10E310007DFE17490546884208D001A800902B468B
:10E320003A462146304600F025F806E0207821469E
:10E33000C007304603D000F081F804460BE07EDFD2
:10E34000044600200090002C08D00022012329461A
:10E35000304602F043FC002C02D006E00122F5E733
:10E3600068460179304602F05FFC2046FEBD0000A1
:10E37000FFFF0000FFB585B000252E4601AA07214A
:10E380000E9F089801F05CF8040008D1029D44201B
:10E39000405D1835C607F60F01D0029D3435079849
:10E3A000204312D1002D10D0002E05D12846123066
:10E3B000FFF7B6FD002808D029462A4612310598F5
:10E3C00085DF04460020387023E0002C01D0052CA6
:10E3D0001FD106980078C0070DD003AB012207219A
:10E3E000089801F05DF804000AD10721089801F0AF
:10E3F00055F9040004D1069905987EDF040008D081
:10E400000721089801F0D0F8002802D0052800D094
:10E410000324002000903878002801D0012300E078
:10E420000023002C07D000220899059802F0D6FBA3
:10E43000204609B0F0BD0122F6E70000FEB50F4608
:10E44000064600F0F1FF05461848854220D001AB92
:10E4500001220721284601F023F804000AD10721F0
:10E46000284601F01BF9040004D1394630467EDF0E
:10E47000040008D00721284601F096F8002802D0B1
:10E48000052800D0032401200090002C0BD002E0CE
:10E49000032400200090002201232946304602F088
:10E4A0009DFB2046FEBD0122F6E70000FFFF0000B5
:10E4B000F7B5114D0F46164629780098FDF780FFF5
:10E4C000002812D00098FFF7A1FD04460B488442B3
:10E4D0000BD069780098FDF773FF002806D033460B
:10E4E0003A462146009800F075FEFEBD3246394698
:10E4F0000098FEF79DFCFEBD98200020FFFF000065
:10E50000F1B586B00698FDF74FFF002821D0684688
:10E51000FDF77EFE00246E4618E060008519A8888D
:10E520000699FDF74DFF00280FD00B4FA888B9784A
:10E53000FDF746FF0590A888F978FDF741FF0146F1
:10E54000A8880123059AFFF783FE641C0098A04267
:10E55000E3D807B0F0BD00009C200020F0B5284CA7
:10E560002146103948688B68227886469C46CF78C9
:10E57000667836E0182353436168521CC918A378A3
:10E58000D2B2934200D100220B78022B02D0032B8F
:10E5900027D123E003464D68194603E0A94204D081
:10E5A0000B46C96900291CD0F8E7002919D08B4215
:10E5B00008D1C069002805D1124F0125BD60002592
:10E5C000AC4601270D68C969D961002909D00B68DB
:10E5D0005B190B6005E00174C06900E000210028B0
:10E5E000F9D19642C6D10649624610398A60486020
:10E5F000CF70704501D00120F0BD0020F0BD0000BB
:10E60000D820002000100140F8B52C4E0446706858
:10E610000025009041E0002C02D02046E46920E073
:10E62000264818231030017842684B43491CC9B270
:10E63000D21801708378994200D105701178506822
:10E6400001292CD1017C002929D191684160D16830
:10E6500081601169C16051698161F178002900D040
:10E6600045604368B268164F991A0902090AB9420F
:10E6700002D28268891806E0D11A09028268090A62
:10E680008A4202D9511A016000E00560456001210B
:10E6900085600174C56102F045FF002CBBD10748BD
:10E6A0001030017840788142BAD171680098814277
:10E6B00001D00120F8BD0020F8BD0000C8200020D6
:10E6C000FFFF7F00FEB504461948002684422DD086
:10E6D0002046FFF775FA050012D00B2D14D0112D2E
:10E6E00010D01448C5421BD009216846017020464D
:10E6F000FFF78CFC014668464180848002950DE05E
:10E70000022102E001260BE0032168460170204649
:10E71000FFF77CFC0146684641808480FEF700FCE0
:10E720000548324681782046FDF75CFEFEBD0000BC
:10E73000FFFF0000FECFFFFF50200020FEB5044683
:10E740000026FFF773FA05460C281AD004DC002DCA
:10E7500013D0042D05D127E0112D10D01348C54248
:10E760001BD00921684601702046FFF74FFC014687
:10E7700068464180848002950DE0012102E0012677
:10E780000BE007216846017084802046FFF73EFCBD
:10E79000014668464180FEF7C3FB05483246417892
:10E7A0002046FDF71FFEFEBD0821EBE7FECFFFFF71
:10E7B00050200020F8B5054600780C46002620427F
:10E7C0000FD10020694608706846FDF78DFA287859
:10E7D000204202D120432870012668460078FDF7C8
:10E7E000A1FA3046F8BD0000002398B0394A05214F
:10E7F0001846FDF7E7F9002801D0FDF7C1F9364AC0
:10E8000036490320FDF7AEFF002801D0FDF7B8F927
:10E8100069460020FDF77CFE002801D0FDF7B0F925
:10E820006846007802284CD0002168460171FDF747
:10E8300037FE6846007901F0A5F901200146103144
:10E84000684601730F2226A103A87CDF002801D0AF
:10E85000FDF796F900240094502168460194018048
:10E86000A0214180FF2184809131C1807ADF00287E
:10E8700001D0FDF785F9FCF7DFFD382101A8FCF791
:10E8800074FC06216846C17120210FA8FCF76DFCBD
:10E89000012108A8C17716481390B420149001A84C
:10E8A00000F060F8134B0FAA002101A80094FDF7B7
:10E8B000D3FA002801D0FDF763F90320FDF7DCFB54
:10E8C00002E00121B1E748DF0028FCD0FDF758F94C
:10E8D000F9E7000040210020BDC60100CD0C00007A
:10E8E0004E6F726469635F54656D706C617465002E
:10E8F000B80B0000A7EE0100F0B50B30C108C9004D
:10E90000144F0026144A0FE003688B420BD38B424E
:10E9100005D95C1A4318456830C3083B00E04368DA
:10E92000136002C004E0021D10680028ECD13046DC
:10E93000002803D13868002801D00020F0BD064A25
:10E9400006481060064A121AD208D20044C00120BC
:10E950003860D7E72C210020282100205C2F0020E0
:10E960005837002010B5124B04460FCBA4B00793C4
:10E9700004AB07C300200090019002900390694609
:10E9800004A8FDF72DF80A49642210310BA8FCF702
:10E99000D3FB69460BA8FCF7F3FB592069460884B2
:10E9A00010200A91888408A8606224B010BD00007D
:10E9B000141C020070B5144682880E460546208855
:10E9C000111D4118921C994201D8FE2A01D90C2030
:10E9D00070BD521C32542088FF21401C80B2208020
:10E9E00031542088401C80B220808119288802F090
:10E9F000CCFE2188401880B22080AA88002A09D045
:10EA0000A968002908D08019FCF796FB2088A988FE
:10EA100040182080002070BD072070BDF8B50F465B
:10EA2000017814460546012902D16878002806D0ED
:10EA30002088821C9A422DD8012902D006E00720A6
:10EA4000F8BD69784118891C994223D8181A801E8C
:10EA500086B2684606802188B81C081869467DDFA2
:10EA60000028EDD12878022805D169460988B142ED
:10EA700001D809210AE00821012805D16878B042AF
:10EA800002D86A46108001E0684606806846008821
:10EA9000FE2801D90C20F8BD2288401CB8542088DB
:10EAA000401C80B22080395420886946401C208058
:10EAB0000988401820800020F8BD0000F8B5FF2428
:10EAC0000F46054600291FD0104EB5421CD01048F5
:10EAD000012241782846FDF785FC2846FEF7EEFF27
:10EAE0000446FF2804D1FFF705F80446FF280BD0A1
:10EAF0000C21484307490246401845808E520722A0
:10EB00003946001DFCF718FB2046F8BDFFFF00004A
:10EB1000682000208424002070B50B4D0E46A842CA
:10EB200001D1002000E0401C84B209E021463046BB
:10EB300001F020FA002801D0204670BD641CA4B268
:10EB4000FF2CF3D9284670BDFFFF00000121890783
:10EB500040180068002800D00120704700280FD01E
:10EB60000849094A096800BF00BF00BF00BF00BFD5
:10EB700000BF00BF00BF914200D000BF401EF2D1D5
:10EB800070470000242100200024F40010B50C4C34
:10EB90002078002801D0852010BD0020A060606092
:10EBA0002061E060032100F02FF802F059FC012100
:10EBB000002801D1034881612170002010BD0000B0
:10EBC000B02800200005004038B5002069460870D4
:10EBD0006846FDF789F8084C2078002801D1FFF736
:10EBE000D5FFE068401CE0600120A0706846007816
:10EBF000FDF798F838BD0000B028002010B50028B7
:10EC000001D1FDF793FF10BD8207D30EFF229A407A
:10EC10008907090E10B5994000280BDA03071B0F6E
:10EC2000083B9C080C4BA400E318DC6994430C439C
:10EC3000DC6107E08408094BA400E41823689343CF
:10EC40000B432360C106C90E0120884004490860B7
:10EC50000449086010BD000000ED00E000E400E0A1
:10EC600080E200E000E100E0F3B581B00F460198DA
:10EC700000F0C4FF012400281D4E019817D0FDF7B5
:10EC800013FF80192030007F8009032802D001285B
:10EC900006D007E01748006901998C40204201D155
:10ECA000022100E00321019800F0CEF8FEBD00F043
:10ECB000B1FF0028FAD00198FDF7F6FE0546810065
:10ECC000C81D0D4AF93089180A6980B222430A61C9
:10ECD00000F0CAF8002FE9D00198FDF7E5FE8000AA
:10ECE00030580028E2D00548AC404460FEBD00002A
:10ECF000C42800200005005000650040006300406B
:10ED0000FEB5044623480E4600192021415600272F
:10ED1000C8171346401C01D0082738E0F27819467E
:10ED20002046FDF79DFE0546401C2FD0B0780028F8
:10ED300007D01948A100091808680222904308600A
:10ED400007E000217378204600910A46019100F007
:10ED500069F8F078002810D01048AA00101831780F
:10ED600002690F4B1A400261E206D20C8907890B37
:10ED70000A4301690A43026109E0064832784019F2
:10ED80002030017F92011143017700E004273846CB
:10ED9000FEBD0000C42800200007005000650040B0
:10EDA000FFE0FCFF03490969C140C807C00F00D05C
:10EDB000012070470005005070B5144D28790028D7
:10EDC00001D0082070BD114900204039421E0B18A7
:10EDD0002033401CC0B21A702028F8D300242046EB
:10EDE000FDF730FE641CE4B2082CF8D303210620A2
:10EDF000FFF70AFFFF207D3000F036F801200449BC
:10EE0000C007486001202871002070BD042900203F
:10EE10000063004002480079002800D001207047BC
:10EE20000429002030B552000A439900039C0A438C
:10EE30002102049D0A4329040A4302498000401824
:10EE4000026030BD000700508200064810180268BA
:10EE500003231B049A430260026809040A43026008
:10EE6000704700000007005002494018002101606F
:10EE70007047000000600040034940180068012806
:10EE800000D000207047000000600040405800287B
:10EE900000D0012070470322120280184068084009
:10EEA00000D00120704710B5002809D0032806D1F2
:10EEB0000220FDF749FC002801D0FCF761FE10BDDF
:10EEC00002F01CF810BD000010B50446008888B0A0
:10EED0003A2821D009DC022824D0102811D011288A
:10EEE0000DD10020FDF730FC19E051281ED0552827
:10EEF00005D1A088132176DF11E0FCF741FE08B0B0
:10EF000010BD0720FDF720FC002801D0FCF738FEDB
:10EF10001549A0880880F2E7A088132176DF002831
:10EF2000EBD1ECE7A088002167DFF8E71022A11DF4
:10EF300004A8FCF701F96846017C0029DFD0007EB7
:10EF4000042803D0062801D00528D8D1022908D0EA
:10EF5000012069460870FF2083308880A088A8DFE0
:10EF6000DDE70220F5E70000E81F002010B5134A96
:10EF700000215170017A012911D002290ED1818915
:10EF8000491C8181C189491C89B2C181028A91428F
:10EF900004D1002101F056FE01F092FA10BD838ADF
:10EFA000C28A991AFF2901DC89B201E0FF210131EF
:10EFB000511889B2C1829942EBD010BD0C210020BA
:10EFC000F7B51C4D0E4601466A6F002082B0032A39
:10EFD0002DD82C4678340827636CBF1BBB4226D83B
:10EFE000286F10188007800F1C2250434019FCF72F
:10EFF000A3F8686F401C6867002E17D0216C606C06
:10F0000040184007800E00190023009009E0049882
:10F01000D9000A1806CA009806C06846FDF75CFDCC
:10F020005B1CB342F3D3606C80196064012005B0AF
:10F03000F0BD0000742900200389CA1C9A180281BF
:10F040004289511AC91E418170470000F7B50D462B
:10F05000012189024718044600260834022028802E
:10F0600012E02046FEF76EFE002817D00C48A1687B
:10F070004268914200D94160608881000C1929885A
:10F080000818C01C28800C34BC4202D22068401CE6
:10F09000E7D10298002800D00670FEBD0126EBE7FC
:10F0A000F420002008B50021009101460223024A05
:10F0B0000248FEF78FFA08BD6C1D020030210020C7
:10F0C00008B500200090044802230168034A044860
:10F0D000FEF780FA08BD000004210020641D020034
:10F0E00030210020F8B50025354F2C462E460095DE
:10F0F0003448B102006840180168B94205D1324A6B
:10F100004168891830D001290CD000218A0082582A
:10F110000346521C36D003202C4922018854641C1B
:10F12000A4B21BE0009900290CD0284B0222210137
:10F130005A54274A1368254A891802224B60641CD6
:10F140000A81A4B2224900220860091DFFF77EFF50
:10F150001F488088022831D008200543761CB6B2AB
:10F16000032EC5D3E8B2F8BD1849002322018B5401
:10F1700051180A4648600E320831FFF767FF022037
:10F180000543CCE7491CFF29C0D911490A68002A68
:10F190000CD00E4A02212301D1549A1850600B481A
:10F1A000118120304480641CA4B204E002200B6072
:10F1B00088800120009001200543CFE70420CCE7A0
:10F1C000DEC0ADDE3021002002FEE10E342A002038
:10F1D0000421002070B5184D0E46044623CD86B09C
:10F1E0000295009001916846448082808371134D9E
:10F1F0002046A978FDF7E4F8002803D03046FEF752
:10F20000EFFE0FE00721304600F0CEF9002809D0CC
:10F21000052807D1092269460A73CC81049003A806
:10F22000FDF7A6FE002229782046FDF7DBF86846A8
:10F23000FDF79EFE06B070BD3C1D02009820002028
:10F24000F0B585B00746FDF7AFF8002814D0684642
:10F25000FCF7DEFF00246D460BE060004619B08825
:10F260003946FDF7ADF8002802D0B08802F042F828
:10F27000641C0098A042F0D805B0F0BD70B5054DF3
:10F2800006460024A000295830468847641C052CF7
:10F29000F8D370BDEC1C02003EB50F4D00241420C5
:10F2A0006043401902F04CFB641C082CF7D3082182
:10F2B000502001910A490124C2000290074B00949A
:10F2C000881800F0E2FC002801D003203EBD03486E
:10F2D000447000203EBD00008427002080200020D4
:10F2E000F424002010B500F04BFA10BD10B500F06A
:10F2F0004BFA10BDF0B5002585B00095019502953B
:10F3000003950446418868464180217901712E4663
:10F310002179608802F0EEFA22780421404F130030
:10F32000FCF705FA0A0606361C1C383E43484B4DCE
:10F3300000280DD0417CC9070AD002F013FB6846B3
:10F3400006702078012800D00020694608722AE063
:10F35000012069460870A068029024E000280ED0C1
:10F360008268A3689A420AD1427CD30707D07B689F
:10F3700052085B1C52000A437B6042741FE002206B
:10F3800069460870E06803900DE0FFF777FF16E02C
:10F39000032006E068460170E06802906846F4E7E2
:10F3A0000520694608700846EFE7062069460870A0
:10F3B000E068D1E701250720F3E7E068029078686C
:10F3C000002824D0174E0024142027464743B8199C
:10F3D000417C4A0703D48907C90F29421CD0817890
:10F3E000F05B00F0F7F8002816D014214C43325B94
:10F3F00069464A80B9198A7869460A71042808D092
:10F4000009216A46117002906846FFF737FF05B080
:10F41000F0BD08200870F7E7641C082CD4D3F6E789
:10F42000802000208427002010B500F071FA10BD64
:10F4300008B513889B0000936B4600F0DBF908BD0C
:10F4400010B5002300F0D6F910BD38B505460024EC
:10F4500020460AE08178284600F0A6F8002802D06D
:10F46000052800D003240098401C009069462846D7
:10F4700002F052FA0028EDD1002C07D1284600F006
:10F480004FFA002802D0072802D00324204638BDB6
:10F490000724FBE710B51346002200F0E3F910BD86
:10F4A000FFB581B0049815460E46002804D0072EFB
:10F4B00005D0082E19D102E00E2005B0F0BD002DB8
:10F4C00013D0082D11D8019800F035FA00280CD07F
:10F4D000002000903146019802F00CFA041E26D05C
:10F4E000E068A84212D2002709E00720E5E7207C67
:10F4F000C019C1B22A4800F000FC7F1CFFB2E068CE
:10F50000B842F4D8204602F01BFA10E0A84217D9FE
:10F51000EFB207E0207CC019C1B2214800F0EDFB3A
:10F520007F1CFFB2E068B842F4D8002C08D1FF215C
:10F530001C48019F02F0DEF9041E05D00780A6706A
:10F54000207CFF2802D00AE01120B6E729461448A3
:10F5500000F06CFB2074FF2813D001200090E560C0
:10F56000217C0F4800F0B2FB02000ED0ABB2314656
:10F57000049800F071FA009800280FD0082E06D0E9
:10F580000CE0204602F0DCF9DEE7032095E7049862
:10F590000499008849688000801F888000208CE7DB
:10F5A00074270020FFFF000070B5002402F0A2F9CC
:10F5B00005000CD06868002804D000F0D8F90400D9
:10F5C00000D00324284602F0CDF9204670BD052066
:10F5D00070BD00007CB50D460646072903D0082DF6
:10F5E00001D007207CBD0020009001906846857006
:10F5F0002946304602F07EF9040004D0607CC00742
:10F6000003D000207CBD05207CBD217C214800F07A
:10F610005DFB020025D029466846E36800F0AFF99B
:10F62000684602F055F92346083369463046626859
:10F6300000F018F90246607C1749430704D5830798
:10F6400002D54B685B1E4B60FB25FD23002A0AD0C8
:10F65000112A0DD0042A14D0072A00D00322104604
:10F660007CBD03207CBD01210843284018400EE0EA
:10F670004A68521C4A600421084318406074002202
:10F68000EDE74B6828405B1C4B6002210843607427
:10F69000E5E7000074270020802000207CB50D469F
:10F6A000072903D0082D01D007207CBD002602F0D9
:10F6B00021F9040003D06068002802D01BE0052077
:10F6C0007CBD217C0E4800F001FB0246002000902A
:10F6D000019068468570002A0FD02946E36800F043
:10F6E0004EF9684602F0F4F8211D684600F027F94B
:10F6F0000646092801D030467CBD03207CBD0000B1
:10F70000742700200149096808470000E81C02002E
:10F7100070B588B01748FDF7DBFD002802D0032044
:10F7200008B070BDFDF710FD002801D00420F7E7F8
:10F7300000F0E8F90020104C0290E61F03900DE065
:10F74000694604A8FDF788FD00988088801B85B273
:10F7500004A8FDF73FFD284600F088F902AA04A995
:10F760002046FDF75EFD0028EAD00449012008701C
:10F770000020D5E799CF010007C0000074200020C9
:10F7800010B500F09DF910BD10B500F0A1F910BD45
:10F7900070B505460320800386B014460E4628182F
:10F7A00080B20F4A6946FDF73CFD002805D103A948
:10F7B0006846FDF751FD002802D0002006B070BD5C
:10F7C000A570039840882080049860600398808822
:10F7D000FDF7CEFD30806846FDF7FCFC0120EDE72B
:10F7E00078200020024800214160816070470000BD
:10F7F00074200020F0B587B01D46144607460E461B
:10F80000FF280CD8084600F017F9002807D003AAF3
:10F810003146384600F0F8F8002809D102E0072008
:10F8200007B0F0BD01A903A8FDF716FD002801D01F
:10F830000520F5E7A6700198002D408820800AD0A9
:10F8400082002868904204D802996068FBF774FC33
:10F8500003E00420E4E70298606003A8FDF7BAFC27
:10F860000020DDE77FB588B01D460C460646FF2820
:10F8700031D8A07800F0E0F800282CD0606806901D
:10F88000208869468883304600F076F9694608800A
:10F89000A0780321890340186946488006A8019092
:10F8A00001200881A17803AA304600F0ADF80528B0
:10F8B00013D00AA8FDF738FD694603A8FDF7EEFC52
:10F8C000002818D0072820D008281CD00E281AD0CD
:10F8D00003200CB070BD0720FBE70A98002805D074
:10F8E0000AAA694603A8FDF7E9FCE9E7694603A807
:10F8F000FDF7DEFCE4E7002D03D0294603A8FDF761
:10F90000A0FC0020E5E71120E3E70420E1E7000088
:10F9100010B5024800F0AAF810BD0000FFFF00007B
:10F9200010B5FF2801D9072010BD00F0A7F800F09E
:10F930002BF8002010BD10B500F0F8F810BD70B520
:10F9400004460D46807800F077F800280BD0218817
:10F950002846FDF7CFFC002804D0072805D0092849
:10F9600000D0032070BD072070BD042070BD01B51C
:10F970006846FDF7D9FC002800D0032008BD10B56B
:10F980009BB200F069F810BDF0B589B000261C4F9D
:10F9900004963846059603E0204600F083F820469A
:10F9A00000F08EF80446B84207D000F0E5F804AA4B
:10F9B00006A9FDF73EFC0A28EED0124DA8780028D3
:10F9C00019D1BC4217D00320800301272018AF7043
:10F9D00080B2FDF76FFB08280FD000280BD0AE7067
:10F9E000092269460A704C80FF220A710390029630
:10F9F0006846FFF787FE09B0F0BD6F70FBE70000B7
:10FA0000FFFF0000742000207CB5054616460C461A
:10FA1000084600F011F800200321009089030190AE
:10FA20006818611880B289B26B463246FDF7F2FB66
:10FA3000002800D005207CBD07280BD0012809D064
:10FA4000082807D0052805D0062803D0042801D0AF
:10FA5000002070470120704710B5502463439BB2CB
:10FA60008170DB1C99084260018010BD10B502490D
:10FA7000FDF73EF810BD00002428002010B5044614
:10FA80000648844207D006492046FDF731F8A042D7
:10FA900001D1012010BD002010BD0000FFFF0000BB
:10FAA0004428002010B50446044900F0F7FE03493D
:10FAB0002046203100F0F2FE10BD00002428002076
:10FAC00010B50249FFF728F810BD000044280020B7
:10FAD00070B50A49FFF720F80446094D08E000F028
:10FAE00031F8002807D005492046FFF715F80446ED
:10FAF000AC42F4D170BD204670BD00002428002027
:10FB0000FFFF000010B508484021FBF72EFBFF2443
:10FB100001342146044800F0FDF903482146203015
:10FB200000F0F8F910BD00002428002010B5FF28CF
:10FB300004D80146024800F01DFA10BD002010BD97
:10FB40002428002010B5FF2804D80146024800F000
:10FB500011FA10BD002010BD4428002010B50C463D
:10FB6000FDF7ACFFFF2803D00C21484301490C529C
:10FB700010BD00008424002003218903401880B2B6
:10FB8000704700001CB5044600F082F9002801D03F
:10FB9000FBF7F6FF002C05D000F088FB002801D011
:10FBA000FBF7EEFF002000900190684600780122EC
:10FBB00010438121084030304106490E68460170EB
:10FBC0000721417010218170C1780223114319432C
:10FBD000C170017911431943017100F09DFB0028A8
:10FBE00001D0FBF7CDFF044800F07EFB002801D0D8
:10FBF000FBF7C6FF1CBD000045FD010004490818C5
:10FC000020214156042901DB012070470020704764
:10FC1000C42800200449081820214156042901D293
:10FC20000120704700207047C4280020F8B50F4617
:10FC3000060028D03068002825D07068002822D01F
:10FC4000FF2400251CE02946706800F06BF90028AD
:10FC500008D0FF2C00D12C46281B401CB8420DD1E7
:10FC60002046F8BDFF2C06D108E02146304600F0C2
:10FC700044F8641CE4B2AC42F7D3FF246D1CEDB22F
:10FC8000B068A842DFD8FF20F8BDF8B50400069E92
:10FC9000089D079818D0002916D0002B14D00746CD
:10FCA0006F43974210D8C21DD208B2420CD8002828
:10FCB0000AD0002D08D0E560A0600AC481B21846C1
:10FCC00000F028F90020F8BD0720F8BD70B5040049
:10FCD0000D4610D0206800280DD0606800280AD09A
:10FCE000FF2D08D000F046F9002804D0E068216814
:10FCF0006843081870BD002070BD70B504000D4643
:10FD00000FD0206800280CD06068002809D0FF2D93
:10FD100007D000F02FF9002803D02946606800F0D2
:10FD200035F970BD10B501F007F910BD10B5044AE2
:10FD30001278002A02D001F035F910BD082010BD5C
:10FD40008820002008B501780B00FBF7F0FC0F09B4
:10FD50001209131E2532122C12322E3212341200C6
:10FD6000808800F0EBF9112803D0002801D0FBF7C0
:10FD700007FF08BD4189114AD142FAD140880121CB
:10FD8000FFF7D4FF0828F0D108BD0021009140887A
:10FD90006946FFF7C7FF08BDFDF7B2F90E28FAD094
:10FDA0000828F8D0E1E70020E1E70320FCF764F938
:10FDB000DBE78068D9E700F0A3F808BDFAEFFFFFA2
:10FDC00070B586B0044614216846FBF7CEF960880A
:10FDD00069468880FEF74EF86946488026780020FC
:10FDE0000822072105253300FBF7A1FC0A06060BB4
:10FDF0000D0F1416281A1D256B46197058721A72A9
:10FE000019E00D2009E00E2007E06A4611705072DB
:10FE1000157210E00F2000E01020694608700AE01B
:10FE20006846057007E0062168460170A0680290E8
:10FE3000A188684641806846FDF786F806B070BD27
:10FE400010B50446007886B000281AD0012816D1D3
:10FE50000E49608801224979FCF7C4FA14216846EA
:10FE6000FBF783F96088694648806088FEF7CEF822
:10FE700069468880002008706846FDF765F806B07E
:10FE800010BDE08800F04EF9F9E70000882000205E
:10FE900070B5FFF73DFC00282ED1FFF7FDF90028D3
:10FEA0002AD101F057F8002826D101F065F9002881
:10FEB00022D1FDF7B1FD00281ED1FDF769FE002813
:10FEC0001AD1FDF7EDFF002816D10C4C401EE08042
:10FED00000251820A56020716071FCF74DFA207193
:10FEE000182809D0FCF748FA6071182804D065700A
:10FEF00001202070002070BD032070BD88200020EC
:10FF000010B503480078002801D0FDF7A9FD10BD09
:10FF10008820002010B5002803D0C91DC908FBF7B0
:10FF200024F910BD10B5002809D04B075B0F012242
:10FF30009A40C908D2B208181146FEF73BFC10BD22
:10FF4000F8B50D46060013D0002401270EE0610726
:10FF5000490F38468840C1B2E0088019FEF72AFCF4
:10FF6000002801D02046F8BD641CA4B2AC42EED3F8
:10FF70002846F8BD002807D0CA08805C4A07520FFF
:10FF800001219140084000D001207047F8B5044697
:10FF90004805050E4907490F01208840C6B2002CCC
:10FFA0000ED0605D30420BD0002168460170FBF737
:10FFB0009BFE605DB043605568460078FBF7B2FE7B
:10FFC000F8BD000010B5044606480078002808D0A7
:10FFD0002046FDF7FBFE204600F0A4FF2046FDF77B
:10FFE00059FC10BD88200020F0B58BB004461421C8
:10FFF0006846FBF7BAF8608869468880FDF73AFFE3
:020000040002F8
:100000006946488027780120082207210026434DB1
:100010003B00FBF78CFB0A060E20353B435F8078E4
:100020007A806A4611702179117256720396907225
:100030006EE06A461170217911725672A1680391BF
:100040009072A868002863D0A168814260D1AE6038
:100050009088E88012E06846027021790172467249
:10006000A0680390E0680490A868002850D0A168B8
:1000700081424DD1AE60E868401EE860039647E0DB
:100080006A461170217911725072F7E769460A7059
:1000900022790A724872A068049039E00920694602
:1000A0000870A878002833D01D4C2046FFF71EF9B1
:1000B000A0422DD12046FFF715F9A04228D1AE70FD
:1000C000142105A8FBF751F80B216846017504833C
:1000D000C48214E00A2069460870A0680290A878DB
:1000E000002815D0AE70142105A8FBF73EF80C20AF
:1000F000694608750A480883C882A068079005A861
:10010000FCF722FF04E0052000E0062069460870A5
:100110006846FCF719FF0BB0F0BD000088200020F6
:10012000FFFF000010B504490978002902D0FDF74F
:1001300057FF10BD082010BD88200020F0B52D4CC1
:100140000646207887B0002808D02B498868C968FF
:10015000069105906078002803D00FE0082007B0D2
:10016000F0BD244900230C311A46881F00F046F8E0
:10017000002801D0052801D1012060706078A168B5
:10018000401E084301D0112531E0E0880027864257
:1001900019D1E068002816D0002514216846FAF726
:1001A000E4FF0721684601703046FDF763FE014613
:1001B00068464180868006210172477203978772E4
:1001C000FCF7C2FE13E0E0680A4A401CE060083217
:1001D00005A93046FFF75EF9050008D0A760E06882
:1001E000401EE060112D02D0042D00D003252846CA
:1001F000B5E7000088200020001D0200FFB5284858
:1002000085B00078002816D0264E3046FFF76EF8ED
:10021000009000200390244801AA0068019003A8E0
:10022000029006210098FFF703F900256C1E37465F
:10023000072803D016E0082009B0F0BD0520FBE731
:1002400000200390A84201D3009F0546A04201D29E
:10025000009E04460098FFF749F801AA0621009085
:10026000FFF7E6F8002817D00528E9D00D490098D7
:10027000884213D105990020002900D00F800699EB
:10028000002900D00D600799002900D00E80089940
:100290000029D1D00C60CFE70398D3E70320CBE748
:1002A00088200020FFFF0000001D020070B50C48F0
:1002B0000178002904D001210A4D8170284608E008
:1002C000082070BDFFF72EFF002801D0032070BD6D
:1002D0002046FFF70BF80446A842F3D1002070BD7A
:1002E00088200020FFFF000010B5094A117800297E
:1002F00004D0D178032903D3042010BD082010BDF9
:100300008B00044C491CE050D170002010BD00004F
:10031000882000206428002010B5044909780029AD
:1003200002D000F061FE10BD082010BD8820002022
:10033000F0B585B00446012614216846FAF715FF8A
:100340006088694648804B4F2078002539797A7952
:100350000300FBF7ECF90D828D081C30424C51591B
:10036000646A6C7E820001206A4610702079002841
:1003700001D0012200E00022012806D0002560887B
:10038000FCF730F860882A4611E00125F7E70220E3
:100390006A4610702079002801D0012000E0022078
:1003A000107260880122FCF71DF822796088797943
:1003B000FCF718F852E0032069460870608811467F
:1003C000FBF7FEFF002801D0012100E00221684672
:1003D0000172A1790173A18839E06088FBF7F0FF11
:1003E000002845D10220694608700D7236E00321CD
:1003F000684601700572ECE7072069460870A2881C
:100400008A8008724D7230E0082168460170A18828
:100410008180072101724572A068049025E00620C2
:10042000694608706068029018E0052012E0032019
:100430006946087060881146FBF7C2FF002801D0AA
:10044000012100E00221684601720B4905734181D8
:1004500004E004206946087000E000266088FDF78B
:10046000D5FD69468880002E02D06846FCF76CFDF9
:1004700005B0F0BD8820002001110000F8B5054648
:1004800064240E462046FEF737FA07462146FAF75F
:100490006CFE29463846FAF773FE31463846FAF7BD
:1004A0006FFE06A13846FAF76BFE39460020FBF7CF
:1004B00035F83846FCF7BEFFF8BD00000A00000022
:1004C0000848416E491E416604D10749FD230A7858
:1004D0001A400A70016E491C0166042901D10021ED
:1004E00001667047642A00200C21002070B50C4979
:1004F0000446486E042810D00A6E1218042A00D34D
:10050000121F401C486618204243551801462846D1
:10051000FAF72BFE0120256070BD002070BD0000A1
:10052000642A0020F0B52B4C1C22216F85B051436A
:100530000D192978284E00270B00FBF7F8F807194A
:100540000509090D0D1119002946FDF791FD09E076
:10055000294601F0A7FA05E02946FCF7C7FB01E0B0
:10056000FDF7AEF800282FD0B04202D1019710E07D
:100570000F2001902878022801D0032809D11548BE
:10058000AA7D7830016C89180164AA7D416C891AB2
:10059000416469462846FCF763FC6846FCF796FC14
:1005A000206F1C2148430019FAF7DFFD606F002817
:1005B0000CD0216F491C8907890F2167401E606795
:1005C00004D00020FFF7AEFF05B0F0BD0420FCF71B
:1005D000E1FEF9E7742900201D1D000010B5184840
:1005E0001822016E51430C18406E00281FD0207A4B
:1005F000012802D0022816D10FE0A18AE08A091A48
:10060000FF2901DC8AB201E0FF220132E1688000AB
:1006100023690918181829DF01E0A08928DF1128AB
:1006200006D0002803D00921204600F00BFB10BDA6
:100630000449FD220878104004221043087010BDC0
:10064000642A00200C21002010B5054800784007DE
:1006500005D40420FCF7B8FE0020FFF763FF10BDAF
:10066000F420002010B5054801784A07920F04D104
:10067000022211430170FFF7B1FF10BD0C210020D1
:10068000F8B507461D481C46007815460E468007FB
:1006900001D40220F8BD002D01D0002C28D1052066
:1006A000F8BD01011648405C00281ED116E0206804
:1006B000002F03D081883A8891420FD1002E03D0B9
:1006C00001883288914209D180682860206868607A
:1006D0000B482030008928810020F8BDA0882146E1
:1006E00000F060F80028E2D12060A088401CA080C3
:1006F000A0880228D5D30A20F8BD0000F4200020ED
:10070000342A0020F8B505464068244F00260C46E0
:10071000002828D022490A68824224D849688142A8
:1007200021D3FDF782FD00281DD028893989884210
:1007300019D103CD083D8A68904214D13A46002071
:10074000203A0125AD0203019B185B688B4204D25D
:100750005B198B4201D9208011E0401C80B2022835
:10076000F1D30020F8BD268000960AE000982968A1
:100770008068884205D10098686038892881012006
:10078000F8BD2088694600F00DF80028EED12088D9
:10079000401C80B220800228E6D3E2E7542A0020E1
:1007A00030210020F8B50E460A68124900014518AC
:1007B000002A04D05088800084180C3401E06C6852
:1007C00008340127BF026868C019A0420FD9206809
:1007D000401C0CD02046FDF7B5FA002802D00120BD
:1007E0003460F8BD6088800004190C34EBE7002009
:1007F000F8BD0000342A002008B500210091014610
:100800000123044A0448FCF7E5FE002800D00E202E
:1008100008BD0000601D0200302100200321890373
:10082000401AC0B27047000003218903401A0349EF
:10083000884201D80120704700207047FE3F000029
:1008400038B5044613480025436C002B08D0026CD1
:10085000D500521C52072D18520F5B1E43640264D0
:1008600000200090A08AAB88800041180A482A68BE
:10087000FCF7B0FEA18AAA888918A182A17D491E31
:100880000906090EA17501D101212174002800D0AB
:100890000E2038BDEC2900203021002010B50A467A
:1008A000FF2803D801461046FFF770FB10BD00007B
:1008B00070B501240B49600408600B494010886042
:1008C000094940398860094D6C602F20FEF746F9D0
:1008D000AC60074D00242F20AC60FEF73FF9AC70F0
:1008E00070BD000080E100E04013014000100140B5
:1008F000C820002030B5FF220523CD7D0024093219
:100900001B02C318002D8450986905D04B7ECA681D
:10091000D054487E401C487630BD1FB501246B463C
:100920001C701972019206C8684690471FBD0000EE
:1009300010B50446FAF718FF00280CD0A007C00E27
:10094000002C0ADA2107090F08398908144A89009E
:100950008918C96906E0134810BDA108124A890028
:1009600089180968C1400806800F042811D20028A0
:100970000FD002280DD00D494B68E206D20E01209F
:100980009040002B08D0620992008B5803438B5093
:1009900004E00448401C10BD05490860002010BD5B
:1009A00000ED00E00120000000E400E0EC20002069
:1009B00000E100E070B5049D002819D0002917D08F
:1009C000002A15D000246600865B9E4211D10020CB
:1009D0000123A3400AE0002D03D00C1826781E4303
:1009E00002E00C1826789E432670401C9042F2D3F9
:1009F00070BD641C082CE6D370BD000070B50546C0
:100A000000242146284600F00DF8002801D0204699
:100A100070BD641CA4B2082CF3D3014870BD000063
:100A2000FFFF000001228A40024201D001207047EE
:100A30000020704710B50C4603000CD00020410088
:100A4000595A914204D181B22046FFF7EBFF10BD05
:100A5000401C0828F3D3002010BDF7B5002086B055
:100A600017460D460090002913D000246E46A1B20F
:100A70003846FFF7D7FF002808D0009960004900EA
:100A8000285A891988800098401C0090641C082C02
:100A9000EDD3142269460698FAF74EFB09B0F0BD73
:100AA00008B5009313460122FFF784FF08BD00003C
:100AB000F0B5054687B00C3000270090FDF7B6FA78
:100AC0000646264C28886946C880A64203D1288855
