:020000040001F9
:10B0000088370020D5B00100EFB00100F1B0010099
:10B010000000000000000000000000000000000030
:10B02000000000000000000000000000F3B001007C
:10B030000000000000000000F5B00100F7B00100C2
:10B0400001B80100F9B00100EDBC0100F9B0010048
:10B05000F9B00100000000006DB60100F9B0010078
:10B06000F9B00100F9B00100F9B00100F9B0010038
:10B07000F9B00100F9B00100F9B00100F9B0010028
:10B08000F9B00100D9B90100F9B00100F9B001002F
:10B0900025BC0100F9B001002DBC0100F9B0010090
:10B0A000F9B00100F9B0010000000000000000004C
:10B0B0000000000000000000000000000000000090
:10B0C0000348854600F072FA0048004759F2010033
:10B0D000883700200321094802680A4302600848B3
:10B0E00002680A4302600748804707480047FEE7B6
:10B0F000FEE7FEE7FEE7FEE7FEE70000240500406E
:10B10000540500404DBC0100C1B0010030B50B46F4
:10B11000014600202022012409E00D46D5409D4231
:10B1200005D31D469540491B2546954040191546B7
:10B13000521E002DF1DC30BD70B5002425460028DC
:10B1400001DA01244042002901DA01254942FFF7D2
:10B15000DDFFAC4200D04042002C00D0494270BD1F
:10B1600003460B439B0703D009E008C9121F08C020
:10B17000042AFAD203E00B780370401C491C521ECB
:10B18000F9D27047D2B201E00270401C491EFBD2D6
:10B1900070470022F6E710B513460A4604461946E2
:10B1A000FFF7F0FF204610BD421E5378521C002BC3
:10B1B000FBD10B781370491C521C002BF9D170473E
:10B1C00030B504460020034600E05B1C934203D2E6
:10B1D000E05CCD5C401BF8D030BD03460A780270BD
:10B1E000401C491C002AF9D118467047F0B51FB41D
:10B1F00088B00B990998002448400999C00F49006C
:10B2000049080991C0070B990090490049080B9122
:10B2100009990898A64608431CD00B990A98084338
:10B2200018D0099801244000420D4800410D0998AA
:10B2300024050003000B204309900B980003000B2A
:10B2400020430B9050181C494018002201901446CE
:10B25000104605E0002001460DB0F0BD032801DADC
:10B26000034600E003239C46C11A0AAE0AE05F00D1
:10B2700008ADED5B4F00F75B7D430027AA187C41CA
:10B28000491C5B1E6145F2DD410004AB5A522104AA
:10B29000120C0A43240C401C0828DFDB01980290A2
:10B2A0000099704601910090059B049A07990698B1
:10B2B00000F064F8D0E700000DFCFFFF70B54B0014
:10B2C0005B0803430BD04B005C0D00263346654200
:10B2D000B341D417AD1AA34102DB0020014670BD73
:10B2E00012053018514170BD0EB50549029100217B
:10B2F00000910A460B46019100F040F803B000BDF2
:10B30000330400004A0009030123090B1B051943FC
:10B31000094B10B5520D9A4201DA002010BD064BC0
:10B3200034339A4203DC9A1A00F00AF810BD03493C
:10B330005118884010BD0000FF030000CDFBFFFF47
:10B3400010B5202A04DB0846203AD040002110BD69
:10B350000B46D340D0402024A21A914008431946FE
:10B3600010BD10B5002B08DA0024401C6141921872
:10B370005B411A4301D14008400010BDF0B51FB435
:10B3800082B005460C0003D0084600F038FE02E00B
:10B3900000F035FE2030024600902146284600F09D
:10B3A00017F9049B059A04460F46184311430843B6
:10B3B00014D0184610431BD0009840210A1A184692
:10B3C0000599FFF7BDFF05460E46009A05990498BA
:10B3D00000F0FEF8084305D0012004E0204639467D
:10B3E00007B0F0BD0020C11705430E432C4337437F
:10B3F00000990E986305401A7905E40A00220C436F
:10B40000FD0A0A3002D500200146E9E701051019BE
:10B4100069410C9C0D9D00196941FFF7A2FFDFE710
:10B42000F0B507460846584087B0C00F0490480062
:10B430000E46590040084908BC1A884105D23846D2
:10B4400031461E4617460B46024658004008104338
:10B450004CD0300D039040055900400D490D05902A
:10B46000401A0290402872DA18030121000B0905E6
:10B470000843019004980092002805D00199524297
:10B480000020884100920190029840210A1A0199F7
:10B49000009800F09DF805460C466B4607CB00F07F
:10B4A000A7F8C0197141039A0E0D0023D717564013
:10B4B0001A467A40164344D0049A002A2DD0029AA4
:10B4C000012A039A15DC1205C01A9141012636059E
:10B4D000001C7141D20F059ED20700930192029683
:10B4E0002A462346FFF74AFF07B0F0BD38463146EB
:10B4F000FAE71605224A0F46B218C01AB7410121D1
:10B500000905001C4F4100187F4111461818794168
:10B51000E20F10436D19644113E0E2076D08154313
:10B520006408C2071443039A01261205C01A914108
:10B530003605001C7141CE07400830434908C01849
:10B5400051412A462346FFF70CFFCDE7FFE7049859
:10B5500001224000C117121A00238B410498314682
:10B56000C417381AA141EEE730B40124E407634060
:10B5700030BC55E730B40124E407614030BC4FE7EC
:10B580000000E0FF10B5002904DB0124E40740427D
:10B590008C412146002B04DB1C460123DB07524271
:10B5A000A341994200D1904210BD0000064C0125F4
:10B5B000064E05E0E36807CC2B430C3C984710345B
:10B5C000B442F7D3FFF780FD64290200842902000A
:10B5D00010B5202A04DB0146203A9140002010BD1E
:10B5E000914020239C1A0346E3401943904010BD2C
:10B5F00010B5202A06DBCB170846203A1041C117A8
:10B600000B4306E00B461341D0402024A21A914080
:10B610000843194610BD70B58C180578401C6B079F
:10B620005B0F01D10378401C2A1106D10278401C1F
:10B6300003E006780E70401C491C5B1EF9D12B07F5
:10B6400005D40023521E0DD40B70491CFAE7037871
:10B65000401CCB1A921C03E01D780D70491C5B1C2A
:10B66000521EF9D5A142D8D3002070BDF0B50025F7
:10B67000FF268BB0013601242F460195304604F099
:10B6800057F9002807D048484068204203D0304688
:10B6900004F046F92543361D64007F1CB6B2042F22
:10B6A000ECD3FF247D34204604F042F9002807D073
:10B6B000204604F035F9600705433C4800690190D5
:10B6C0003B4C280714D0012700262F420CD03948C4
:10B6D000B200111808690969C004C00E8903A25894
:10B6E000890F002A00D090477F00761C042EECD3EF
:10B6F000002D57DA00200590401E4DE0A119403181
:10B7000008788506AD0E42B2521C39D00121A940FD
:10B71000089A0091114233D080090390284601F025
:10B72000D1FE800020580490002802D103980328FD
:10B7300026D103980099032802D105980843059063
:10B740001D4AA80080180068019A8003800F1142EA
:10B7500002D0022802D013E0032811D10399032953
:10B7600007D102281CD00221284604F0C9F87F1C0A
:10B77000FFB20498002803D0049A28460399904702
:10B78000761C042EBAD3002F0CD00848006901990A
:10B79000884207D00190059800273E460890ADE703
:10B7A0000321E1E70BB0F0BD00630040000500504D
:10B7B000F828002000650040000700508307FF22A2
:10B7C000DB0E9A408907090E994000280BDA000722
:10B7D000000F0838830808489B001818C369934372
:10B7E0000B43C3617047830804489B001B1818680B
:10B7F000904308431860704700ED00E000E400E06B
:10B80000F8B5FF20013003F0D7FE002401250E4ECD
:10B810000E4F002807D00E4804600120B0607D70F4
:10B82000002001F091FEFF20053003F0C5FE002846
:10B8300008D00748001D04600220B060BD700120E0
:10B8400001F082FEF8BD000000030040E428002063
:10B850000001004030B564258DB0002409A839DF0F
:10B8600008A80079022809D8AC4201D134A162E0CD
:10B87000022003F0A9FE641CE4B2EFE708A80279F5
:10B8800063003949002000F0F7F803210AA83ADFE5
:10B8900000200AA906AA02252B1ACB5C1354401CCF
:10B8A0000328F9D36946887E00904B7E0A7E2FA13B
:10B8B000002000F0E1F86946887E40214006400EF5
:10B8C00008436946887600904B7E0A7E2CA10020B2
:10B8D00000F0D2F80BAA06A9334802F0FFFD0322BC
:10B8E0000BA904A8FFF73CFC06A9032204AC481FDF
:10B8F000FFF736FC6846437D027DC17C807C039364
:10B900006B4607C369464B7C0A7C28A1002000F0E7
:10B91000B3F869460D77002107A8635C4218491CFB
:10B9200053700629F9D30146002070DF002801D0AA
:10B9300000F084FD25A1002000F09EF80DB030BD80
:10B94000556E61626C6520746F2067657420656E4A
:10B950006F7567682072616E646F6D206E756D62C1
:10B960006572730A000000000C2902007072616E9B
:10B97000645F6C65203A202578257825780A0000D8
:10B980007072616E645F6C652061667465722073AD
:10B99000657474696E672062697473203A20257833
:10B9A000257825780A0000008C27020047656E651F
:10B9B000726174656420525041203A2025782578C0
:10B9C00025782578257825780A00000052504120F6
:10B9D0007365740A0000000010B506490020086075
:10B9E00048608860C860034940390860486006F0D4
:10B9F00091FB10BD4011014070B5074B0646187809
:10BA000014460D46002801D100F07AF92246294655
:10BA1000304600F003F870BD102F002070B50E46C0
:10BA200018214843134914464518E86A1835002878
:10BA300004D001280FD0022805D113E0284600F0D9
:10BA400095F9A04201D2002411E022463146284651
:10BA500000F0B7FA0BE0284600F088F9A042F4D2D3
:10BA60000446F2E73146284600F07BFA04462046B9
:10BA700070BD0000102F00200FB408B504A900917C
:10BA80006A46039900F004F801B008BC04B01847F6
:10BA9000F7B598B007A802904020002504950390C0
:10BAA00018980C46059506902178641C002977D0DB
:10BAB000252907D002A800F035FA05980028F3DA06
:10BAC0001BB0F0BD01220021022713460826207872
:10BAD00023281BD02B2816D02D2802D0302806D1A1
:10BAE00001E0194300E03943641C002AEFD1002231
:10BAF00020780346303B0A2B0AD20A235A431218F5
:10BB0000303A641CF4E704200143EDE73143EBE7EE
:10BB10000023C7B22E2F0AD1641C20780746303F7D
:10BB20000A2F04D20A277B431B18303BF4E76C280A
:10BB30000DD068280BD0702852D00BDC25285AD0A5
:10BB400058282ED063280CD0642858D110E02078D3
:10BB5000641CECE7732832D0752817D078284ED1B2
:10BB60001FE01A981A9A0068011D1160017843E0DD
:10BB70001A981A9F0068061D3E60006801910092A5
:10BB800001460A2202A800F0FCF838E01A981A9F31
:10BB90000068061D3E600068009201910A2209E0DB
:10BBA0002FE01A981A9F0068061D3E6000680092F8
:10BBB00001911022014602A800F048F91FE01A98EE
:10BBC0001A9A0068011D116006683178761C0029F8
:10BBD00015D002A800F0A6F905980028F5DA0EE0C5
:10BBE0001A981A9A00680823011D11600168102232
:10BBF00000960195DFE7252102A800F093F9641C67
:10BC00005BE70598002800DC5AE70498002804D078
:10BC1000024607A91898FFF7EFFE04990598401807
:10BC200005904DE710B506F0D7F910BD10B50648E0
:10BC30004068002805D08047002801D000F0FEFBB6
:10BC400010BD02F0ADFF10BD1C21002010B502F0A8
:10BC5000F5FF002805D01F491D484860C8131E493C
:10BC600088611E48018CC9B201290BD1828C120750
:10BC700008D1028D1206120F042A03D1828D1206FA
:10BC8000120F0AD0012921D1818C09071ED1018D03
:10BC90000906090F0A2904D007E0114A0121916021
:10BCA000F5E7828D1206120F05D00D290ED1808D79
:10BCB0000006000F0AD10B480168012904D00A4987
:10BCC000016001680129FCD1C021416110BD000063
:10BCD000DFFF07C000050040006C0040C00F00F00F
:10BCE0000006004000EC06407593000010B50249C4
:10BCF000024806F078FA10BD4029002000200040DC
:10BD000010B5124C02202061606111A0A06113489F
:10BD1000E0610120800220620020A06260620CA12C
:10BD2000A1642146E0621039E16410212165A0651B
:10BD30006065E0650AA1E01DFFF74FFA09A1204602
:10BD4000FFF74BFA2020A07110BD0000102F00203B
:10BD50005465726D696E616C00000000002B00205C
:10BD60005254540053454747455200000269C16888
:10BD70008A4203D88068401A801800E0501A401E9A
:10BD80007047FFB583B00E4670420D9F0C9C00902B
:10BD9000002900DB0846012502E0FFF7CDF96D1C04
:10BDA00005998842F9DA0698A84200D90546002C80
:10BDB00004D0002E01DB780700D5641EB80702D539
:10BDC0000698002810D0F8070ED1002C0CD0A54200
:10BDD0000AD22021641E039800F0A4F80398C068DA
:10BDE0000028F2DA07B0F0BD0398C0680028F9DB3C
:10BDF000002E02DA2D21009E02E0780707D52B21C4
:10BE0000039800F08FF80398C0680028EADBB807B1
:10BE1000800F022810D1069800280DD1002C0BD0DD
:10BE2000A54209D23021641E039800F07BF80398E4
:10BE3000C0680028F2DAD5E7019700943146069BE6
:10BE4000059A039800F002F8CCE70000FFB581B036
:10BE500001261F4634460A9D029802E0FFF756F974
:10BE6000641C03998842F9D2A74200D93C460B983A
:10BE7000C00718D1002D16D00B98800701D5002FD0
:10BE800002D0202000900CE03020FBE76D1E0099CE
:10BE9000019800F047F80198C06800283DDB002DAC
:10BEA00001D0AC42F2D30198C068002835DB012FE5
:10BEB00001D97F1E06E031460298FFF727F9039962
:10BEC000884202D303984643F1E7154F3146029862
:10BED000FFF71CF90146029A7143511A0291395C2D
:10BEE000019800F01FF80198C068002805DB304673
:10BEF0000399FFF70BF90600E8D10B98C0070CD0A7
:10BF0000002D0AD0AC4208D220216D1E019800F00D
:10BF100009F80198C0680028F2DA05B0F0BD000009
:10BF2000FC28020010B5044680686368421C9342F6
:10BF300005D323681954A260E068401CE060A26841
:10BF40006068824209D121682069FFF755FDA16828
:10BF5000884203D00020C043E06010BD0020A060F4
:10BF600010BDF7B5064682B000200090F468174671
:10BF70003069A04201D9051B02E0B168201A0D1AF0
:10BF8000B0686D1E001BA84200D80546BD4200D314
:10BF90003D4670682A4600190399FFF7E1F80098BA
:10BFA0007F1B401900900398641940190390B068F2
:10BFB000A04200D10024F460002FD9D1009805B030
:10BFC000F0BDF7B5C668174604468068851B6068F3
:10BFD000BD4206D980190199FFF7C2F8F019E06057
:10BFE000FEBD2A4680190199FFF7BAF801987E1B19
:10BFF000411932466068FFF7B3F8E660FEBD2021C4
:10C00000020C01D010211046020A01D01046083956
:10C01000020901D01046091F820801D01046891E6E
:10C02000420801D0881E7047081A704730B4744621
:10C03000641E2578641CAB4200D21D46635D5B0024
:10C04000E31830BC184702E008C8121F08C1002AD4
:10C05000FAD170477047002001E001C1121F002A89
:10C06000FBD17047202804DA0121814003480142B6
:10C0700001D001207047002070470000FC06FFBC83
:10C0800010B500280CD000290AD002780B789A420B
:10C0900006D10622401C491CFFF792F8002801D067
:10C0A000002010BD012010BDF7B584B00646002564
:10C0B0001788158020300290407B1446002806D057
:10C0C0003A462146059800F00BFE050009D1B078EC
:10C0D000002823D0059886462088001DB84202D942
:10C0E0000C2007B0F0BD684679DF0028F9D121881F
:10C0F00003207246505420881921401C80B22080B1
:10C10000115420887146401C80B220804118684636
:10C11000008806F0FCF8218840182080F07800287C
:10C1200017D0218803230A46F356C91C0598B94243
:10C13000D6D80221815421880122491C89B221804C
:10C1400042542188491C89B2218043542088401CD4
:10C1500020807068002817D021880023C3560A4623
:10C16000C91C0598B942BBD80221815421880A22F2
:10C17000491C89B2218042542188491C89B22180FE
:10C1800043542088401C2080308900280AD0009425
:10C1900030460197062202210830059B06F0DEF8A2
:10C1A00005009ED1308A00280AD0009430460197BD
:10C1B000072203211030059B06F0D0F8050090D12E
:10C1C000308B00280AD000943046019715221421A4
:10C1D0001830059B06F0C2F8050082D1306A0028AD
:10C1E00006D03B462246059901F042FA0500D8D117
:10C1F000706A002806D03B462246059903F010F9E4
:10C200000500CED10298007B002807D03B4622468D
:10C210003046059905F062FB0500C2D13078002850
:10C2200007D03B4622463046059903F02DF905001C
:10C23000B7D1284655E70000174A0021535C002B70
:10C2400001D0012203E0491C0629F7D3002213493B
:10C25000012806D002280BD0032810D0042818D1BA
:10C2600012E04878002803D0002A01D0012070474E
:10C270008878002803D0002A01D002207047C878AF
:10C28000002801D0032070470879002801D004203D
:10C29000704700207047000031200020A0220020BD
:10C2A00010B501220221002000F094FE002801D0E8
:10C2B000072812D107220221012000F08BFE00285E
:10C2C00001D0072809D100210A22084600F082FE89
:10C2D000002801D0072800D1002010BD30B58DB056
:10C2E0000C46054630216846FEF753FF0B4B0FCB3B
:10C2F00003936B4607C31022294604A8FEF730FFBC
:10C3000068464DDF002801D000F098F81022204642
:10C3100008A9FEF725FF0DB030BD00007C27020004
:10C32000F0B50F468DB0002116466D460F24621AF7
:10C33000825C6A54491C1029F9D328460D2110301B
:10C34000FEF727FF0020221A395C5219401C117495
:10C350000328F8D368464DDF0020211A49192031FF
:10C3600009783154401C0328F7D30DB0F0BD00000C
:10C37000044842680121C9050B46934383600A4083
:10C38000C26070470005005070B50024064D06E0FD
:10C390006968E000085C012103F0B6F9641C2878A4
:10C3A0008442F5D3002070BDC0200020F8B51546AA
:10C3B0000C460646052A01D20720F8BD03F07AFA9A
:10C3C000002803D103F048FA0028F6D110490020D4
:10C3D0004E600C70C8608D6008610E4D0DE0E0008D
:10C3E00069688019009181786A46517000780A4A1C
:10C3F000694603F0D5F90028DFD12046641EE4B277
:10C400000028ECD1054A0021024800F02FF8F8BDC1
:10C41000C0200020E028020095E5010005D80100B9
:10C42000BFF34F8F04490348C860BFF34F8F00BF6D
:10C43000FDE700000400FA0500ED00E00EB5002164
:10C44000029000916A4601910148FFF7E9FF0EBD95
:10C4500001400000401A0002000A106000207047EE
:10C46000014840687047000000150140094B5B68B7
:10C47000002B07D0002A07D0002805D00068037CD5
:10C48000002B03D008207047072070474174426199
:10C4900000207047E4200020FFB5074690070025E4
:10C4A00081B01E461446002825D1002C23D004F06C
:10C4B0008DFF3046114EF0603046103005704570EB
:10C4C0000299817044607560357001240C48757064
:10C4D0002405046003211420FFF770F90948046063
:10C4E000094CA76003211120FFF768F96068B0606C
:10C4F000002005B0F0BD0720FBE70000D42000209D
:10C5000080E200E000E100E000150140FEB51F4BB5
:10C510005B68002B30D000282ED0052901D20720DF
:10C52000FEBD4369002B27D0437C012B26D000277A
:10C53000029104460025694616460D70684600F0D3
:10C540003DF801A805F0F4FE002819D00121017082
:10C550000F49446049688160029907614661C16082
:10C5600068460A49007948706846007800F044F847
:10C5700005F074FD2846FEBD0820FEBD0F46D7E736
:10C5800068460425007800F037F8F3E7E42000203F
:10C590000015014010B50849496800290AD0002853
:10C5A00008D04169002905D000210174022105F05D
:10C5B0007DFD10BD082010BDE420002030B5EFF354
:10C5C000108172B6094A54680123002C04D003700C
:10C5D000002900D162B630BD5360054B1D68054C83
:10C5E000254015601C6000220270F1E7F820002051
:10C5F00080E100E0FC06FFBC08494A68002A0CD034
:10C6000000280AD1EFF3108072B60A68044B1A6052
:10C6100000224A60002800D162B67047F82000204E
:10C6200000E100E0F0B504468BB0008800F0F4FAB9
:10C630000590208802F022FA0646A0680090657AEC
:10C64000684605741E4F20880022397800F034FBBC
:10C650000598002831D06079400710D50721304671
:10C6600003F014FD002813D0082269460A742288BA
:10C670004A828E82069004A801F0B4F908E020886E
:10C68000B97800F007FB002802D0304602F0E0F94C
:10C690000321684601712188C18060794007C10F7C
:10C6A00068460172A0794007C10F6846417201785F
:10C6B0008172C57201A801F095F90BB0F0BD0000C0
:10C6C000A4200020F0B50C4693B01F216A461180CB
:10C6D000072600279180002809D0C17849070DD589
:10C6E00002A9FFF7E1FC002809D102AD01E0002515
:10C6F0001780002C0ED0E078002802D0304613B00E
:10C70000F0BD01AA0AA92046FFF7CEFC0028F6D109
:10C710000AAA02E068460022878068468088C3B281
:10C7200068460088C1B2284672DFE8E7FFB581B0ED
:10C730001E460A9F1346040047D0002B45D0504D9B
:10C74000012028700020E870202219464D48FEF78D
:10C7500007FD00206F61C0432E6128812846072114
:10C760001830FEF716FD474838212030FEF711FD3E
:10C770004448217820300170A1788170E178C1703F
:10C78000617841703F4A65692369556311461363B7
:10C790002031E368A268CB608A603A49E369A26904
:10C7A000CB638A63616A00291AD001463831024698
:10C7B000443241628A60636A1B880B80616A436A03
:10C7C000898899800021436A07E00E2005B0F0BDFA
:10C7D000656AAD686D5C5554491C9D888D42F7D8DB
:10C7E000A16A00291CD0274A903211460C398A6070
:10C7F0008162A36A9B888B80A16A836A09881980F9
:10C800000021836A04E0A56AAD686D5C5554491C3B
:10C810009D888D42F7D82C210A5D1A4940310A7350
:10C82000216A002909D016490A310162226A528818
:10C830004A80216A026A098811806168002900D053
:10C840004160104A0E490020AF322031C3001B1A4C
:10C8500085009B180C68401C63510828F6DB094AC8
:10C860000020E732030185009B188C68401C63514F
:10C870000828F7DB034802992030FFF723FFA5E7DC
:10C8800018200020A022002010B50188134C102988
:10C8900015D0112919D01B2910D1007A00280DD1EB
:10C8A000E0780521401CFEF731FC084600F04EF808
:10C8B000002803D06169002900D0884710BD817D20
:10C8C0000129FBD18088208110BD00216171808801
:10C8D00021898842F8D10120E8E7000018200020D3
:10C8E00010B5022801D003280ED1084C607800282A
:10C8F0000AD000206070E07800F028F8002803D00B
:10C900006169002900D0884710BD00001820002070
:10C9100010B574DF0B4C012060710B490620C87004
:10C9200000210948FFF7CEFE002809D1E07800F089
:10C930000DF8002803D06169002900D08847002045
:10C9400010BD000018200020C0220020F1B53F4C8F
:10C9500088B0207800280AD00898E07006A801F076
:10C960003DFB06980125002804D065706AE0082088
:10C9700009B0F0BD3548002707211830FEF709FC43
:10C98000334E7078002802D0E078012807D0B078C4
:10C9900000280CD0E078012801D0022807D12169B5
:10C9A000002903D025710820884700E027710898E6
:10C9B000FFF742FCE0702169002909D0032801D06B
:10C9C000042805D13078002802D06079002811D0E1
:10C9D000A77118216846FEF7DCFB684607700772EE
:10C9E000E1781A480B001830FFF720FB052E080FDE
:10C9F000191D2000A57107208847EAE7A57001905E
:10CA0000684605704782078213E00221A1700190F9
:10CA100068460570B18941823189018209E0684622
:10CA200004F0A4FF02E0684604F0CCFFE0780028A0
:10CA300003D0684673DF00289AD12169002901D00C
:10CA4000A0788847002093E7A770F6E71820002019
:10CA5000A0220020F8B5214C0146028800261E487D
:10CA6000E589102A13D01E4F112A1FD0122A2BD06D
:10CA7000502A1AD1881DC988A94216D14189022994
:10CA800013D10C3000F06FF900280CD112E08A8825
:10CA900004464280104808220C301831FEF760FB33
:10CAA0006670002D01D100F027FEF8BD0021C943BA
:10CAB000418046703868FFF76DFD0028F5D0A16908
:10CAC0000029F2D08847F8BD034808220C3008310D
:10CAD000FEF746FBE7E7000048200020682400201E
:10CAE0004C28020010B503490A7D091D04F043FDDE
:10CAF00010BD000084240020034B10B50246D97DF0
:10CB0000181D04F025FD10BD84240020034B10B532
:10CB10000246197E181D04F01BFD10BD8424002060
:10CB2000F0B5044602883A488DB0014615310191AE
:10CB3000102A09D0112A50D01A2A4AD1217A09097B
:10CB400001294ED901234DE0027D417D05468A43EE
:10CB5000011D07A804F00FFD142207A902A8FEF783
:10CB6000FFFA00262A483746143008900AE0710080
:10CB700002A8081883881D220097281D089904F030
:10CB8000A7FC761C0298B042F1D8287DA688C04345
:10CB9000C0B204F0C1FC1F49884217D040004019C0
:10CBA000868001233246281D019904F007FD0123E8
:10CBB0003246281D089904F001FDA07D02280AD004
:10CBC00000231349A2881631281D1DE00420FFF719
:10CBD00035FC0DB0F0BD0123F3E70023A288001D52
:10CBE00012E000230A490546A2881731001D04F00F
:10CBF000E5FC207A0009022801D9012300E0002386
:10CC00000349A2881831281D04F0D8FCE1E7000090
:10CC100084240020FFFF000070B50B4E0546002461
:10CC2000317D2A46301D04F093FC002809D0B17DE7
:10CC30002A46301D04F08CFC002801D0022400E0BC
:10CC40000124204670BD00008424002010B500247B
:10CC5000204605F061FB002805D0641CE4B2182CC6
:10CC6000F6D3182010BD044801220168A2401143E8
:10CC70000160204610BD00008424002010B5044649
:10CC800005F04AFB002802D001480019407E10BD83
:10CC90008424002070B505460C46084605F03CFB90
:10CCA000002806D003482A460119497E001D04F0D9
:10CCB0004FFC70BD8424002070B5064615460C4616
:10CCC000084605F029FB002807D004482B46011927
:10CCD0003246001D193104F071FC70BD842400201F
:10CCE0007CB5054608880C460930904201D90C20D5
:10CCF0007CBD684671DF0028FAD12188082068547D
:10CD000020881B21401C80B220802954208800A943
:10CD1000401C80B22080401906220131FEF720FA23
:10CD200020886946801D80B220800978002900D0C3
:10CD3000012129542088401C208000207CBD10B592
:10CD40000446FFF7EDFE204603F098FE2046FFF76D
:10CD500081FE204600F070F8204602F011FE2046C9
:10CD6000FFF792FD10BD4178027808021043C0071A
:10CD7000C00F704700B5174887B040680590002382
:10CD80004822154905A805F0CDF8002801D0FFF785
:10CD900055FB6A460121002005F0ACF8002801D0BF
:10CDA000FFF74CFB684605F09BF8002801D0FFF721
:10CDB00045FB0A4805F08AF8002801D0FFF73EFB42
:10CDC000074805F0E1F8002801D0FFF737FB07B06E
:10CDD00000BD000074270200DC2100203FCD0100CF
:10CDE0009D1F02007CB5134E00250C4630600029C3
:10CDF00018D06946002000F0B5F8002819D101A923
:10CE0000012000F0AFF8002813D168460179002016
:10CE1000002901D0022004E069460978002900D0E9
:10CE20000B2020707068002802D1FFF739FA054600
:10CE300028467CBD1020002010B51C4C018860687D
:10CE400010290DD011290AD1401E606007D1FFF7CB
:10CE500027FA002803D02168002900D0884710BD98
:10CE600000281ED100210122084600F0B3F8002856
:10CE700001D0072811D107220221012000F0AAF8D1
:10CE8000002801D0072808D104220221002000F048
:10CE9000A1F8002805D0072803D02168002900D078
:10CEA00088476068401C606010BD000010200020B2
:10CEB00010B5032000F00CFA002801D0062800D19C
:10CEC000002010BDF8B507460024234802E0641C8A
:10CED000042C1AD2A2008258BA42F8D1042C14D2DF
:10CEE0001D481E4E0C38002929D001290ED00229D8
:10CEF0000BD16000201880194578002D05D0184806
:10CF00000169002901D028468847F8BD61006118F1
:10CF1000755C8E19717800290CD011490A22496874
:10CF2000806851430E4A521CFFF7F0FA002801D1E5
:10CF30000B4847700A48B17814300155DDE7806826
:10CF4000FFF728FB06486100611814308919005D5D
:10CF50008D78A842D1D0F8BD1C2802007422002090
:10CF6000F81F002004280CD2074A1269074B8000E2
:10CF70001B5C01209840904300D0012008700020E5
:10CF800070470020FAE70000000500501C2802004E
:10CF9000014610B50D480429008806D007290CD099
:10CFA0000A2901D104F038FD10BD132176DF09E014
:10CFB0000028F9D0FFF742FA10BD05498842FBD19D
:10CFC000FFF7A6FC0828F3D110BD0000E81F0020E1
:10CFD000FFFF000070B50023042811D2440004199B
:10CFE0000D4D012A02D101290DD0002246008019E1
:10CFF000094E801900290CD0012906D0022906D03B
:10D000000723184670BD0D30C2B22A55F9E74270A9
:10D01000F7E78270F5E700007422002010B5054A9A
:10D020000146127A0020D20702D0084600F054F8D8
:10D0300010BD0000F81F002070B50E4620490546BF
:10D040004E608D6000200A61A9071ED500240122D0
:10D0500011462046FFF7BEFF641C042C02D20028B4
:10D06000F5D012E0002810D1720804211548FFF70E
:10D070009DF9002809D1FFF787F9002805D111484B
:10D08000114A00211438FFF7F1F9E90706D00F2201
:10D090000E4952058A600023CB608A6100280DD1B9
:10D0A00008480B4A00211C38FFF7E0F9002805D199
:10D0B0000448084A01211838FFF7D8F970BD00006C
:10D0C000F81F00202C2802000DD30100000500509D
:10D0D000A9EC010071C30100FEB57A4D0722EB688F
:10D0E00092059A4302936B6800939C0006461B19B5
:10D0F00000200121019349050746734C3300FEF7D8
:10D1000095FF180D1515374755677C887F8891DE88
:10D110009E9E9E9E9EC8CED1D8DEDE140F21029A1E
:10D1200049059143A160E7602F70FEBDA260E760F2
:10D1300060680F2252055040800209D5A160E76067
:10D14000022E02D1E120C0000AE07D20400107E06C
:10D15000E160A760022E01D1C82001E0FF209130DC
:10D160002E706421FDF7D2FF0099414300223FE079
:10D17000A260E76060680F2252055040800204D52B
:10D18000A160E76019204001EAE7E160A760E3E7FA
:10D19000A260E76060680F2252055040800202D50D
:10D1A000A160E760D1E7E160A760D7E7A260E76030
:10D1B00060680F2252055040800202D5A160E760EE
:10D1C00001E0E160A7602E700098410000220FE0AE
:10D1D000A260E76060680F2252055040800202D5CD
:10D1E000A160E76001E0E160A7602E700099002275
:10D1F00036480068FFF78AF9FEBDA260E7601BE0D1
:10D2000061680120800502468A43A2600140E16016
:10D2100010E06068012189050A468243A260084047
:10D22000E060E3E76068012189050A468243A26065
:10D230000840E0600199C9E7E160A7602DE023485C
:10D240004068FFF7A7F911218A1B01D0002807D0F9
:10D250000F22E96852051140A160E760EF60FEBD52
:10D260000121C905E960012A0CD91046C8214843AB
:10D270006421FDF74BFF6968002241431348406871
:10D28000FFF744F90F22E96852051140E160A760F9
:10D29000FEBD0F214905A160E7602E70FEBD07228B
:10D2A0009205AAE70D214905A160E76001218905E2
:10D2B000C2E70321C905A160E7608910BCE70F211F
:10D2C0004905B9E7F81F00200005005010280200AA
:10D2D000F0B500210B4C0C4D03273F048A00A258E7
:10D2E00092005619326801238B40034000D003237B
:10D2F000BA431B0413433360491C0429EED30020B6
:10D30000F0BD00001C2802000007005010B5007896
:10D310000221FFF7D7FD10BDF8B5124D00242846B5
:10D3200002F052F9224610A10020FEF7A5FBFFF7FC
:10D3300097F80646FEF78EFAFFF792F86A463146EE
:10D34000FFF788F8002801D0FFF778F8009804F07C
:10D3500031FE02460AA10020FEF78EFB641C052C5C
:10D36000DDD3F8BD881300000A5465737420697416
:10D3700065726174696F6E203A2025750A0A000093
:10D380005250412067656E2074696D65203A2025F2
:10D3900075206D730A000000F8B54A002B4B520D42
:10D3A000D6182B4A0C460546142E2BDA002E12DA1C
:10D3B000284BFEF735F800221346FEF7E3F840D27B
:10D3C000002C03DA0124E40700253AE02046284334
:10D3D00037D0214C14E0214F0B46F7403B402B4304
:10D3E00031D01C4BFEF71CF800221346FEF7CAF89A
:10D3F00027D2002C03DD01200005F0400419BC43B6
:10D4000000251EE0332E1EDC33460027143BFF436D
:10D41000DF40384217D00F4BFEF7ACF8002213461E
:10D42000FEF7B0F80DD2002C0ADD142E0CD03420FB
:10D43000811B012088404019A84200D2641C054687
:10D44000BD4321462846F8BD641CF9E701FCFFFFF7
:10D450009C7500883CE4377E0000F03FFFFF0F0022
:10D460000022D243830004490428CA5002D308187A
:10D470002030027770470000F8280020F0B5002522
:10D48000ED43002A02D00023042601E004230826ED
:10D490000B4C04E09F00E7597F1C04D05B1CB34297
:10D4A000F8D32846F0BD26185DB2203635709E00B0
:10D4B000A151002AF5D1E11820310877F1E70000E9
:10D4C000F82800200249091820200856704700005B
:10D4D000F8280020002807D00449814204D80449D4
:10D4E000814201D90120704700207047342100207B
:10D4F00044210020044A0168914201D0083101E032
:10D500000149383901607047582A002070B50D4D27
:10D5100004460A462846AC4208D1FF24013421467D
:10D52000104603F069FAA0420AD070BDFF2CFCD867
:10D530002146104603F052FA002801D0204670BD63
:10D54000284670BDFFFF000070B5084C050009D0EB
:10D5500010342168002907D00868206049682846EF
:10D560008847F6E70834F4E770BD0000E42800209F
:10D57000F8B52348416800293ED00E6821494C681F
:10D5800087688078E11B0D022D0AED1C002814D15C
:10D5900001201D4A000450601B4A403A50601B495C
:10D5A000400008601A4908601A49012008602F20CD
:10D5B00002F024F8124901208870B54200D23546A5
:10D5C000E81900020F4B000A403318600D4A5168F9
:10D5D000001B091B0902090A0002000AC91C81423A
:10D5E00009D9506818602F2002F008F80120074977
:10D5F000400480390860F8BD03F0E8FEF8BD000083
:10D60000D4200020001501404013014080E200E0DA
:10D6100000E100E0001001400748064901600748AA
:10D620000022027002710122427181600449C160CE
:10D6300070470000983A0000EC1F002024220020D0
:10D6400040420F0007480649016007480122027066
:10D65000002202714271054A8260C1607047000079
:10D66000983A0000EC1F002024220020A086010030
:10D67000F8B50646108814468446801D0D4698422B
:10D6800001D90C20F8BD32880720062AFAD31927C1
:10D69000FF01184BBA4201D99A42F3D17188062989
:10D6A000F0D3B94201D99942ECD19A4203D09942C0
:10D6B00001D08A42E6D805216046295420881221EB
:10D6C000401C80B2208029542088401C80B22080D9
:10D6D0004119308804F01BFE2188401880B2208058
:10D6E0004119708804F013FE218840182080002022
:10D6F000F8BD0000FFFF0000F8B5164801F090FAF1
:10D70000144D00260C3D144C002807D061690029F7
:10D710001CD001206A461070684616E02878002860
:10D7200005D06169002911D0684606700DE068785F
:10D7300000280DD0A168094800220068FEF7E6FE27
:10D74000002803D0A169002900D088472E70F8BDB9
:10D750006168F0E754200020682400204C28020073
:10D76000F0B585B00C46002802D0012005B0F0BD10
:10D77000207900270126002806D01F4D012820D03F
:10D7800002282CD00F20F1E702970397E068019060
:10D79000694601A803F02EFD00280ED0029881886A
:10D7A000E18000882081029803F09EFD6946098887
:10D7B0000A01124951188E7300E00A2002212171DA
:10D7C000D4E70F4B6A460021A01D03F0D1FC0028CE
:10D7D00007D00B4908398F60CF600A28C6D1284688
:10D7E000C4E7019803F080FD054989880A010349CF
:10D7F00051188E73F1E700001D1D0000682A0020FB
:10D8000008210020F8B500260124154D23E06968A1
:10D81000F0004718387821462A698140114218D013
:10D820008A432A6102F00EF83A782146EB6891406B
:10D8300019400346934099420BD17978012901D0D0
:10D84000012100E000217B684140002B01D01046FF
:10D850009847761CF6B228788642D8D3F8BD0000E7
:10D86000C020002010B50E4900230A784C78A2424F
:10D8700012D0521CD2B20A70022A00D10B700A7860
:10D88000074B920018339A580260886810180002FB
:10D89000000A8860012010BD0360002010BD000058
:10D8A000D42000203EB5094D38CD00930295019457
:10D8B0006B46588099809A71054900220978FFF7D4
:10D8C000FBF9684600F08EF83EBD0000D02802004B
:10D8D000A420002010B5047800222300FEF7A6FB48
:10D8E000070605070D1D262C06000A7010BD012233
:10D8F0000A7002898A81828814E002220A700289F1
:10D900008A818288CA81C2688A60007C062802D027
:10D910000020087410BD0120FBE703220A70C288B2
:10D920008A810289CA81C068886010BD04230B7097
:10D93000C0888881CA8110BD0520087010BD000014
:10D9400070B5064D06460024A0002958002901D0D4
:10D9500030468847641C082CF6D370BD8829002007
:10D960000EB5002910D011290ED00022009202928B
:10D970006A46508001910D2907D0042907D009205B
:10D980001070104600F03CF80EBD0B20F8E70A209E
:10D99000F6E70000014909680847000064200020FC
:10D9A00070B5054D06460024A0002958304688472A
:10D9B000641C022CF8D370BD68280200F8B5074635
:10D9C0000024064E064D04E0A00031583846884732
:10D9D000641CE8788442F7DBF8BD0000982800203A
:10D9E0009420002070B5054D06460024A00029585B
:10D9F00030468847641C022CF8D370BD982802007A
:10DA00000149096808470000DC2802007FB5044688
:10DA1000406800280BD00020039020780026414D5C
:10DA20000300FEF703FB066D0606304E7B6D0120FA
:10DA3000F2E7A08900F0DCF9002804D1E08903F0C6
:10DA40006BFC00285CD0A08900F0CCF90146684648
:10DA50004180E08903F05AFC014668460171207854
:10DA60000128606807D0002809D0042069460870A2
:10DA70006068039020E00028F8D00320F6E701203A
:10DA8000F4E708463AE0A08900F0B2F9002804D192
:10DA9000E08903F041FC002832D0A08900F0A2F90F
:10DAA00069464880E08903F031FC69460871606886
:10DAB000002804D005200870A0680290E1E7022049
:10DAC000F9E7A08900F094F9002819D0E08900282E
:10DAD00016D1A08900F086F969464880E08903F0F4
:10DAE00015FCFF2069460871606800280FD00720E8
:10DAF00008706E70AE7002F0A3FC684602F05EFB28
:10DB00006878002802D06E7002F09AFC7FBD062172
:10DB100068460170408802F021FDEAE70820694666
:10DB20000870AEE78020002000B5104987B0097862
:10DB3000890702D4022007B000BD0D49884201D1F7
:10DB40000420F8E7052269460A7001220A71C8809C
:10DB500000221146684601F08FFF002803D003F031
:10DB6000ADFA0020E7E70820E5E7000000210020EB
:10DB7000FFFF000000B50F4887B00078800702D48F
:10DB8000022007B000BD0620694608700022114639
:10DB9000684601F071FF002809D007480178002984
:10DBA00001D00121017303F089FA0020E9E7082080
:10DBB000E7E7000000210020882A002000B58DB092
:10DBC00014216846FDF7E5FA1E480078810703D561
:10DBD0006846FFF7B5FE32E0C00730D1012000F003
:10DBE0002DF900F0A5F901F0D9FF00280ED0062884
:10DBF0000FD001216A4611750300FEF717FA0C19C0
:10DC00001119111918191819131613190B200DB021
:10DC100000BD022000F012F9012000F0F5F8D7E76E
:10DC2000002000E00320107602E00220FBE71176DE
:10DC30000022114605A801F01FFF03F03FFA002063
:10DC4000E5E700000021002038B5040014D0694643
:10DC500003F0D0FA002813D0684600880101094873
:10DC600009188889002809D0A27A002A06D0401E07
:10DC700088810020A07238BD052038BD062038BD3F
:10DC80000A2038BD682A00201FB501A9684603F0A4
:10DC90006FFA04B010BD07B513460A466946002066
:10DCA00003F066FA0EBD07B513460A460021684622
:10DCB00003F05EFA0EBD002805D0002903D00068ED
:10DCC00008600020704705207047000038B50D46F9
:10DCD000040017D0002D15D0694603F08BFA0028F8
:10DCE00012D06846008861680201084812189089BD
:10DCF000401C9081296060680C3068600120A0722F
:10DD0000002038BD052038BD0A2038BD682A002013
:10DD100010B5002804D00323002204F0F9FB10BD45
:10DD2000052010BD10B50223002204F0F1FB10BD48
:10DD300010B5002A03D0022304F0EAFB10BD052031
:10DD400010BD000010B5064A5178082906D08B0096
:10DD5000044C491CE0505170002010BD0C2010BD37
:10DD6000002100208829002038B504460A480D46C5
:10DD70000078800701D4022038BD002C0AD0694603
:10DD8000284604F0D1FC0028F6D169460988218094
:10DD9000658038BD052038BD0021002010B504463F
:10DDA0000E480078800701D4022010BD002C10D04E
:10DDB000218802290FD80A4A080180184289608800
:10DDC000121A032A07D404F0A5FC002020806080EA
:10DDD00010BD052010BD042010BD00000021002052
:10DDE000682A002003218903401A80B2704700008E
:10DDF00003218903401A0349884201D80120704752
:10DE000000207047FE3F000002490A7882430A70F2
:10DE1000704700000021002010B504460078182843
:10DE200002D1FEF713FF207010BD10B50446007834
:10DE3000182802D1FEF70AFF207010BD02490A78A7
:10DE400002430A70704700000021002070B50646AA
:10DE500000200546042906D0112902D0002903D04C
:10DE600070BD012500E001200E4C002A02460FD0B3
:10DE700061793046FEF720FF2A4621793046FEF7C9
:10DE80001BFF002261783046FEF716FF002204E0F7
:10DE900061783046FEF710FF2A4621783046FEF7BB
:10DEA0000BFF70BDA8200020F8B506461C481F4691
:10DEB000007815460C46C0070AD03046FFF70AFB2B
:10DEC000002807D0002C07D0A00507D00620F8BDF9
:10DED0000120F8BD0220F8BD0320F8BD3068A04243
:10DEE00004D8A80271680019884201D90520F8BD3C
:10DEF000002D10D0684603F033F800280DD00098AC
:10DF00000221C0C00170A101090C8180058103F0CC
:10DF1000E3F80020F8BD0420F8BD0720F8BD00009C
:10DF20001821002010B5084603F036F810BD000097
:10DF3000F0B52648264C001B0309264819464069BF
:10DF4000421C03D10120000740698002224A127856
:10DF50009646D2070CD00020F0BD1D4C15012C199F
:10DF60002568002D03D06468002C00D0491E521C87
:10DF70009A42F2D3002420E0E2B2002594462A46D9
:10DF80000FE0134E1701BE193768002F02D07768D3
:10DF9000002F05D1767BAE4202D93546D6B2B446C3
:10DFA000521C9A42EDD362461501094AAA185060E4
:10DFB000157BAD02401B641C10608C42DCD306480C
:10DFC0007146012211430170C5E700004421002081
:10DFD000342100200010001018210020002804D057
:10DFE0000349496E0160002070470320704700001C
:10DFF000982A0020F8B507461E481E4600781546A8
:10E000000C46C0070ED03846FFF764FA00280BD044
:10E01000002D0BD0002C09D028462043800707D0C4
:10E020000620F8BD0120F8BD0220F8BD0320F8BD90
:10E030003868A04204D8B10078680919884201D232
:10E040000520F8BD002E11D0684602F089FF002897
:10E050000ED0009806990760416001210172C560E9
:10E060000461868203F038F80020F8BD0420F8BD72
:10E070000720F8BD1821002070B5174B0446186E14
:10E08000182148431549C0180A78950715D5022C60
:10E0900002D0032C1CD102E001F0C4FC18E04A7845
:10E0A000521CD2B24A70032A12D900224A700821A7
:10E0B00003F056FB02F03EFF0AE0500708D5FB20B4
:10E0C00002400A70586E002802D0022002430A70F3
:10E0D00002F0BEFF70BD0000982A00201821002029
:10E0E00070B5002801D0012070BD164C0025207BA2
:10E0F000002801D0257301E000F09CF8207803008F
:10E10000FDF794FF081E05080B0E1E111A1E00F0E5
:10E110001BF870BD00F07EF870BD00F061F870BDB6
:10E1200000F038F870BD60880649000120394018B9
:10E13000406801F013FD70BD656001F01DFD70BD0C
:10E140000F2070BD882A002070B5104900208A1C5D
:10E150000D460346203D0C18A67A002E08D0A37267
:10E1600004016419A689002E02D1A47B012C08D0D9
:10E17000401C80B20228EED30B704B8004484B60E9
:10E1800070BD108000F046F870BD0000882A0020A5
:10E190001D1D000010B50F4C60880101204620387D
:10E1A0000818818900290BD0052020700A48022117
:10E1B00081800168002301220848FFF775FE10BD29
:10E1C0004168002301220548FFF76EFE04212170FB
:10E1D00010BD0000882A00201021002034210020DA
:10E1E00038B50A4908480B68898842688900591877
:10E1F0005388032404700020DB1C00909BB2044869
:10E20000FFF7F8FE38BD0000882A0020102100200A
:10E210003421002010B506494888091D03F03AF85A
:10E22000002802D0FFF7DCFF10BDFFF7B3FF10BDE1
:10E23000882A0020F0B51D481D49077802460125AF
:10E2400002268C88203A3B00FDF7F0FE08051717E0
:10E250001A212C2C16170189491C018100214180AB
:10E2600001730B01D35C002B08D000234418491C18
:10E2700089B2A3720229F4D30570F0BD0123F5E73A
:10E2800042685288D21CA2188A800670F0BD458868
:10E290000B682D01AA1855680D60536014818E809B
:10E2A000062100E007210170F0BD0000882A00204F
:10E2B00010210020F0B504460088384D8DB050285C
:10E2C0001DD0522802D0542826D103E0A08800F0A7
:10E2D00031FF21E0062069460870A08800F0CEFBDF
:10E2E00069464880A2888A8000F07CF9A0880022D4
:10E2F000E978FEF7E1FC6846FFF74CFB0CE0207B79
:10E30000012809D1A07A012806D120892449884210
:10E3100002D1A08800F04AFFA878FEF7AFFC0028E1
:10E3200019D008A8FEF7DEFB142208A903A8FCF701
:10E3300017FF002403AE0BE060008719B888A978A6
:10E34000FEF7A8FC002802D0B88800F0F3FE641C99
:10E350000398A042F0D86878FEF790FC002819D006
:10E3600008A8FEF7BFFB142208A903A8FCF7F8FED3
:10E37000002403AE0BE060008719B8886978FEF7C7
:10E3800089FC002802D0B88800F010FF641C0398B4
:10E39000A042F0D803F008FA0DB0F0BD5C200020D8
:10E3A000022900003EB5044640886946488020782E
:10E3B000002814D001281DD002280FD12079002870
:10E3C0000CD0608800F08EFA0E49884206D00E49C3
:10E3D0000122C978FEF770FC03F0E6F93EBD00208B
:10E3E00008700846FFF7D6FA608800F07BFA00F064
:10E3F000A1FE3EBD012168460170A1888180FFF722
:10E40000C9FA3EBDFFFF00005C20002010B50446A5
:10E41000007801280DD1608800F08CFE608800F043
:10E42000A5F9002805D0034960880122C978FEF7C4
:10E4300043FC10BD5C20002010B5104C0020207063
:10E44000FEF704FC6070FEF701FCA070FEF7FEFB17
:10E45000E070FEF7FBFB2071617818290BD0A178E2
:10E46000182908D0E178182905D0182803D00120F0
:10E470002070002010BD032010BD00005C20002093
:10E48000F0B585B000F0C6F86846FEF72BFB002417
:10E490006D460C4F0EE060004619B08800F0EEFAB1
:10E4A000B84205D10849B0880122C978FEF704FCBA
:10E4B000641CA4B20098A042EDD803F075F905B031
:10E4C000F0BD0000FFFF00005C20002010B50178C7
:10E4D000072902D1408800F069FE10BDF0B50F4653
:10E4E0008DB0002116466D460F24621A825C6A5474
:10E4F000491C1029F9D328460D211030FCF749FE9C
:10E500000020221A395C5219401C11740328F8D3D8
:10E5100068464DDF0020211A49192031097831540D
:10E52000401C0328F7D30DB0F0BD000010B5044621
:10E530000A4841782046FEF7ADFB00280CD0084879
:10E5400000210C224A4312185288A24201D1C8B2BB
:10E5500010BD491C0829F4D3FF2010BD74200020F1
:10E56000B824002070B5094D094E00240C206043EA
:10E57000401940887178FEF78DFB002804D0641C98
:10E58000082CF3D3FF2070BDE0B270BDB82400208A
:10E5900074200020F8B50746104E0125BD403068B4
:10E5A000FDF7F8FF00280DD10D4C2069284207D156
:10E5B000384601F047F90028E06804D0284303E01A
:10E5C000A8432061F8BDA843E060206900222843E9
:10E5D0002061A1683068FDF799FFF8BDE0280200CE
:10E5E000C02000201CB5054A9168D26801920091B4
:10E5F0000022694601F0AAFC1CBD0000542802005C
:10E6000003480021C9438180012101700020704727
:10E610006820002010B5044801F0C4FB034988803D
:10E6200003F0EEF810BD0000FFFF0000682000209E
:10E63000F1B582B0029800F021FA002416490325B2
:10E6400001272646884209D06A46082101F054FC79
:10E65000002803D1019886880568841D2B46324620
:10E6600021460298A9DF042804D0082804D00B28EA
:10E6700007D002E0112000E00020002F00D10B2085
:10E68000FEBD0027A80701D50125E7E73443F6D0F2
:10E69000002426460325E1E7FFFF0000F1B582B024
:10E6A000029800F0EBF907461B48874201D11B484E
:10E6B000FEBD01252A466D1C0026ADB26B46082121
:10E6C000384601F049FC040002D0072C21D021E09B
:10E6D000019903230B600A1D891D0298AADF04001B
:10E6E00004D00C2C08D0052C08D008E008213846AE
:10E6F00001F0CCFC04460DE0012600E000240821D6
:10E70000384601F0ADFC002800D00324002ED1D102
:10E7100000E00C242046FEBDFFFF00000230000098
:10E720001FB504460078012813D12079012810D1A3
:10E73000608802AA012101F0DFFB002809D1022133
:10E7400068460170618841800121017105490968AD
:10E7500088470448044908388088884201D003F07B
:10E760004FF81FBD70200020FFFF00001CB500F017
:10E7700085F96A46012101F0BFFB002801D0002085
:10E780001CBD019800781CBDF8B5074E074C084D1C
:10E790000746324661883846A7DFA84203D1608821
:10E7A000401C6080F5E7F8BDFFFF000068200020F6
:10E7B000033000008188054A914204D00088002877
:10E7C00001D001207047002070470000FFFF0000CB
:10E7D0003EB5044600780D46022815D10322611C7F
:10E7E0006846FCF7BDFC0322211D02A8FCF7B8FC1B
:10E7F00001AA02A92846FDF793FD032201A9684654
:10E80000FCF7DEFC002801D000203EBD01203EBD0B
:10E8100010B50C46FFF78AFEFF280AD00C214843AA
:10E820000549072241182046091DFCF799FC0020E4
:10E8300010BD052010BD0000B824002070B501886F
:10E8400090B0102949D1011D2C2202A8FCF788FCA8
:10E850006846234E007B344602AD03282AD001F0DF
:10E860001DFD6846007B00280ED001280CD0022830
:10E8700020D118E00E99281D1131FDF701FC002868
:10E8800002D06846048815E00DAA6946072001F009
:10E89000DBFC0028EED10DE00E99281D491CFFF786
:10E8A00097FF0028EDD10DAA6946072001F0CCFCA6
:10E8B0000028F1D168460089291D00F035FEB442D8
:10E8C0000BD068460089214600F086F86846018929
:10E8D000418001210170FFF763F810B070BD0000A6
:10E8E000FFFF0000084A00210C234B43D35A834208
:10E8F00004D10C204143881840887047491C0829DE
:10E90000F2D3024870470000B8240020FFFF000047
:10E9100010B50E4C182060700D4A0E4900200C23D3
:10E9200043435B18401C5A800828F8D3FEF78EF941
:10E930006070182804D00548C01C71DF002801D081
:10E94000032010BD01202070002010BD7420002085
:10E95000FFFF0000B824002070B504460D46401C9F
:10E9600000F090F9002810D01022691C601CFCF700
:10E9700027FC00280AD000262946204611311130F4
:10E98000FDF77EFB01463046084370BD0126F3E7E4
:10E990000188002903D142189278002A01D0012071
:10E9A0007047491C0829F6D30020704710B50C4663
:10E9B0000346FFF7EDFF00280BD018882188884216
:10E9C00006D10822A11C981CFCF7FAFB002801D0F4
:10E9D000002010BD012010BD10B501F01BFE10BDC0
:10E9E00010B50446007888B0002826D12079072881
:10E9F00023D1608801AA072101F07EFA00281CD1EA
:10EA000001F04CFC1BE0694660880988884216D0FA
:10EA100004990298FFF7A0FF002810D06088FFF744
:10EA200061FF01466846C18200210175618801834A
:10EA30000188418305A8FEF7B3FF08B010BD03AA03
:10EA40006946072001F000FC0028DCD1F5E7000052
:10EA500070B50446FFF746FF0546204601F051FA1F
:10EA6000054904468D4204D0002C02D1284601F00D
:10EA7000D1FD204670BD0000FFFF000010B5FFF77C
:10EA800055FDFF2804D00C2148430249085A10BD07
:10EA9000014810BDB8240020FFFF00003EB5044629
:10EAA00001F0FCFB10E0019920464631FFF77EFFA4
:10EAB000002806D1019920462A31FFF777FF002868
:10EAC00002D0684600893EBD6A4602A9072001F0CF
:10EAD000BBFB0028E7D101483EBD0000FFFF00005E
:10EAE000F8B50F46002804D00120FFF78DF901206A
:10EAF000F8BD397900290AD00026254D01290BD00F
:10EB0000244C022920681FD003293BD125E001F0C5
:10EB100033F80121397133E000200101695C0229D9
:10EB20000BD0401C80B20228F7D30220FFF786F9F1
:10EB30000120FFF769F91848F8BD04016019406821
:10EB400001F00CF82E551BE001460023012213486A
:10EB5000FFF7AAF90221A18011E000F0FFFF0C49A4
:10EB60002368203149880A01094951184D682560F8
:10EB70004B60A3880B810221A18005498E543E7110
:10EB80000028D9D00120FFF73FF90E20F8BD000082
:10EB9000682A0020102100201D1D000034210020C3
:10EBA000F8B51E4C2078002836D0E06800260028F2
:10EBB0000CD00025607800282ED1684652DF052849
:10EBC00006D0002806D0FDF739FC0BE00125F1E75F
:10EBD000012607E0009800F061FD2169002901D0BD
:10EBE00000988847002D13D16078002814D16088E0
:10EBF00069460880A06861DF052804D0002804D099
:10EC0000FDF71CFC04E0012502E0E168A0688847EC
:10EC1000002ECFD0002DE5D0F8BD00001C21002033
:10EC2000418805480288914204D34088814201D836
:10EC300001207047002070474C2000201048018CB4
:10EC4000C9B2012917D1818C090714D1018D090698
:10EC50000A0F03D1828D1206120F0ED0090F01295F
:10EC600003D1828D1206120F07D0032903D1808DA4
:10EC70000006000F01D000207047012070470000FF
:10EC8000C00F00F00021425C002A01D00120704733
:10EC9000491C1029F7D300207047800701D00020BD
:10ECA000704701207047000010B50448017AC90779
:10ECB00002D00078FEF710FA10BD0000F81F002007
:10ECC000FFB5244D81B0287A1F460E46084304D074
:10ECD000039A002E04D0002104E0052005B0F0BD09
:10ECE0001C491031019802F0F3FF0446014600224E
:10ECF0000198FFF7ABF8002F03D021460198FEF7EB
:10ED00002FFE0D2C0DD006DC002C0AD0042C16D0C2
:10ED1000082C05D105E0112C05D00F48C44200D0C5
:10ED200003242046DAE73246E9780198FDF7C4FF6C
:10ED3000A978039A0198FDF7BFFF0024F1E7324656
:10ED4000E9780198FDF7B8FFA978039A0198FDF7D3
:10ED5000B3FFE6E7A8200020FECFFFFFFEB5174671
:10ED60000C00064604D02078C00704D0012003E040
:10ED700000217EDFFEBD0220694608713046FFF7A4
:10ED80007DFE17490546884208D001A800902B4611
:10ED90003A462146304600F025F806E02078214624
:10EDA000C007304603D000F081F804460BE07EDF58
:10EDB000044600200090002C08D0002201232946A0
:10EDC000304602F099FC002C02D006E00122F5E763
:10EDD00068460179304602F0B5FC2046FEBD0000D1
:10EDE000FFFF0000FFB585B000252E4601AA0721D0
:10EDF0000E9F089801F080F8040008D1029D44207D
:10EE0000405D1835C607F60F01D0029D34350798CE
:10EE1000204312D1002D10D0002E05D128461230EB
:10EE2000FFF7B6FD002808D029462A46123105987A
:10EE300085DF04460020387023E0002C01D0052C2B
:10EE40001FD106980078C0070DD003AB012207211F
:10EE5000089801F081F804000AD10721089801F010
:10EE600079F9040004D1069905987EDF040008D0E2
:10EE70000721089801F0F4F8002802D0052800D0F6
:10EE80000324002000903878002801D0012300E0FE
:10EE90000023002C07D000220899059802F02CFCD2
:10EEA000204609B0F0BD0122F6E70000FEB50F468E
:10EEB000064601F015F805461848854220D001ABFA
:10EEC00001220721284601F047F804000AD1072152
:10EED000284601F03FF9040004D1394630467EDF70
:10EEE000040008D00721284601F0BAF8002802D013
:10EEF000052800D0032401200090002C0BD002E054
:10EF0000032400200090002201232946304602F00D
:10EF1000F3FB2046FEBD0122F6E70000FFFF0000E4
:10EF2000F7B5114D0F46164629780098FDF7B2FE49
:10EF3000002812D00098FFF7A1FD04460B48844238
:10EF40000BD069780098FDF7A5FE002806D033465F
:10EF50003A462146009800F099FEFEBD32463946F9
:10EF60000098FEF79FFCFEBDA4200020FFFF0000DC
:10EF7000F1B586B00698FDF781FE002821D06846DD
:10EF8000FDF7B0FD00246E4618E060008519A888E2
:10EF90000699FDF77FFE00280FD00B4FA888B9789F
:10EFA000FDF778FE0590A888F978FDF773FE014615
:10EFB000A8880123059AFFF783FE641C0098A042ED
:10EFC000E3D807B0F0BD0000A8200020F0B5284C21
:10EFD0002146103948688B68227886469C46CF784F
:10EFE000667836E0182353436168521CC918A37829
:10EFF000D2B2934200D100220B78022B02D0032B15
:10F0000027D123E003464D68194603E0A94204D006
:10F010000B46C96900291CD0F8E7002919D08B429A
:10F0200008D1C069002805D1124F0125BD60002517
:10F03000AC4601270D68C969D961002909D00B6860
:10F040005B190B6005E00174C06900E00021002835
:10F05000F9D19642C6D10649624610398A604860A5
:10F06000CF70704501D00120F0BD0020F0BD000040
:10F07000E420002000100140F8B52C4E04467068D2
:10F080000025009041E0002C02D02046E46920E0F9
:10F09000264818231030017842684B43491CC9B2F6
:10F0A000D21801708378994200D1057011785068A8
:10F0B00001292CD1017C002929D191684160D168B6
:10F0C00081601169C16051698161F178002900D0C6
:10F0D00045604368B268164F991A0902090AB94295
:10F0E00002D28268891806E0D11A09028268090AE8
:10F0F0008A4202D9511A016000E005604560012191
:10F1000085600174C56102F0B1FF002CBBD10748D6
:10F110001030017840788142BAD1716800988142FC
:10F1200001D00120F8BD0020F8BD0000D42000204F
:10F13000FFFF7F00FEB504461948002684422DD00B
:10F140002046FFF775FA050012D00B2D14D0112DB3
:10F1500010D01448C5421BD00921684601702046D2
:10F16000FFF78CFC014668464180848002950DE0E3
:10F17000022102E001260BE00321684601702046CF
:10F18000FFF77CFC0146684641808480FEF702FC64
:10F190000548324681782046FDF78EFDFEBD000011
:10F1A000FFFF0000FECFFFFF5C200020FEB50446FD
:10F1B0000026FFF773FA05460C281AD004DC002D50
:10F1C00013D0042D05D127E0112D10D01348C542CE
:10F1D0001BD00921684601702046FFF74FFC01460D
:10F1E00068464180848002950DE0012102E00126FD
:10F1F0000BE007216846017084802046FFF73EFC43
:10F20000014668464180FEF7C5FB05483246417815
:10F210002046FDF751FDFEBD0821EBE7FECFFFFFC5
:10F220005C200020F8B5054600780C4600262042F8
:10F230000FD10020694608706846FDF7BFF92878AD
:10F24000204202D120432870012668460078FDF74D
:10F25000D3F93046F8BD0000002398B04A4A052192
:10F260001846FDF719F9002801D0FDF7E7F8474ADD
:10F2700000214748FDF7FAF8002801D0FDF7DEF835
:10F2800044A10020FCF7F8FB464A47490320FDF75C
:10F29000D3FE002801D0FDF7D1F869460020FDF724
:10F2A000A1FD002801D0FDF7C9F8684600780228C2
:10F2B00067D0002168460171FDF75CFD02F06AFF2E
:10F2C0006846007901F0BAF901200146103168461C
:10F2D00001730F2235A103A87CDF002801D0FDF7C0
:10F2E000ADF8002400945021684601940180A021CB
:10F2F0004180FF2184809131C1807ADF002801D0D4
:10F30000FDF79CF8382101A8FBF743FF062168466A
:10F31000C17120210FA8FBF73CFF012108A8C1778C
:10F320007D2000011390B420149001A800F050F843
:10F33000224B0FAA002101A80094FDF7F7F900283D
:10F3400001D0FDF77BF8124819210022490400681A
:10F35000FDF7DCF8002801D0FDF770F818A10020B7
:10F36000FCF78AFB0320FDF7F1FA002801D0FDF736
:10F3700065F8FDF7D1FF48DF0028FCD0FDF75EF807
:10F38000F9E7012196E7000064210020F520020042
:10F390007427020054696D6572204372656174655B
:10F3A000640A000091CF0100CD0C00004E6F726422
:10F3B00069635F54656D706C617465005FF901008D
:10F3C00054696D657220537461727465640A0A0031
:10F3D00010B5124B04460FCBA4B0079304AB07C380
:10F3E00000200090019002900390694604A8FCF769
:10F3F00075FF0A49642210310BA8FBF7B1FE69467C
:10F400000BA8FBF7D1FE59206946088410200A9109
:10F41000888408A8606224B010BD00009C27020008
:10F4200070B5144682880E4605462088111D411885
:10F43000921C994201D8FE2A01D90C2070BD521CA1
:10F4400032542088FF21401C80B220803154208813
:10F45000401C80B220808119288802F058FF218842
:10F46000401880B22080AA88002A09D0A968002903
:10F4700008D08019FBF774FE2088A98840182080E6
:10F48000002070BD072070BDF8B50F460178144606
:10F490000546012902D16878002806D02088821C00
:10F4A0009A422DD8012902D006E00720F8BD6978DC
:10F4B0004118891C994223D8181A801E86B26846C2
:10F4C00006802188B81C081869467DDF0028EDD128
:10F4D0002878022805D169460988B14201D8092156
:10F4E0000AE00821012805D16878B04202D86A46AE
:10F4F000108001E06846068068460088FE2801D931
:10F500000C20F8BD2288401CB8542088401C80B2D2
:10F510002080395420886946401C20800988401882
:10F5200020800020F8BD0000F8B5FF240F460546F6
:10F5300000291FD0104EB5421CD01048012241783E
:10F540002846FDF7B9FB2846FEF7F0FF0446FF28E2
:10F5500004D1FFF707F80446FF280BD00C214843DD
:10F5600007490246401845808E5207223946001D41
:10F57000FBF7F6FD2046F8BDFFFF000074200020D9
:10F58000B824002070B50B4D0E46A84201D10020D2
:10F5900000E0401C84B209E02146304601F046FA02
:10F5A000002801D0204670BD641CA4B2FF2CF3D902
:10F5B000284670BDFFFF0000012189074018006840
:10F5C000002800D0012070477D21C90048430FD09A
:10F5D0000849094A096800BF00BF00BF00BF00BF5B
:10F5E00000BF00BF00BF914200D000BF401EF2D15B
:10F5F00070470000302100200024F40000280FD0C4
:10F600000849094A096800BF00BF00BF00BF00BF2A
:10F6100000BF00BF00BF914200D000BF401EF2D12A
:10F6200070470000302100200024F40010B50C4C7D
:10F630002078002801D0852010BD0020A0606060E7
:10F640002061E060032100F02FF802F097FC012117
:10F65000002801D1034881612170002010BD000005
:10F66000E42800200005004038B5002069460870F5
:10F670006846FCF7A3FF084C2078002801D1FFF76B
:10F68000D5FFE068401CE0600120A070684600786B
:10F69000FCF7B2FF38BD0000E428002010B50028B8
:10F6A00001D1FDF751FF10BD8207D30EFF229A4012
:10F6B0008907090E10B5994000280BDA03071B0FC4
:10F6C000083B9C080C4BA400E318DC6994430C43F2
:10F6D000DC6107E08408094BA400E4182368934325
:10F6E0000B432360C106C90E01208840044908600D
:10F6F0000449086010BD000000ED00E000E400E0F7
:10F7000080E200E000E100E0F3B581B00F4601982F
:10F7100000F0D0FF012400281D4E019817D0FDF7FE
:10F72000D1FE80192030007F8009032802D00128F3
:10F7300006D007E01748006901998C40204201D1AA
:10F74000022100E00321019800F0DAF8FEBD00F08C
:10F75000BDFF0028FAD00198FDF7B4FE05468100F0
:10F76000C81D0D4AF93089180A6980B222430A611E
:10F7700000F0D6F8002FE9D00198FDF7A3FE800035
:10F7800030580028E2D00548AC404460FEBD00007F
:10F79000F82800200005005000650040006300408C
:10F7A000FEB5044623480E46001920214156002785
:10F7B000C8171346401C01D0082738E0F2781946D4
:10F7C0002046FDF75BFE0546401C2FD0B078002890
:10F7D00007D01948A1000918086802229043086060
:10F7E00007E000217378204600910A46019100F05D
:10F7F00075F8F078002810D01048AA001018317859
:10F8000002690F4B1A400261E206D20C8907890B8C
:10F810000A4301690A43026109E006483278401947
:10F820002030017F92011143017700E00427384620
:10F83000FEBD0000F82800200007005000650040D1
:10F84000FFE0FCFF03490969C140C807C00F00D0B1
:10F85000012070470005005070B5144D287900282C
:10F8600001D0082070BD114900204039421E0B18FC
:10F870002033401CC0B21A702028F8D30024204640
:10F88000FDF7EEFD641CE4B2082CF8D3032106203A
:10F89000FFF70AFFFF207D3000F042F80120044905
:10F8A000C007486001202871002070BD3829002061
:10F8B0000063004002480079002800D00120704712
:10F8C0003829002010B5001F012805D801F068FD77
:10F8D000002801D0FCF7B2FD10BD000030B5520089
:10F8E0000A439900039C0A432102049D0A43290408
:10F8F0000A43024980004018026030BD00070050F2
:10F90000820006481018026803231B049A43026011
:10F91000026809040A4302607047000000070050B3
:10F92000024940180021016070470000006000405B
:10F93000034940180068012800D0002070470000EB
:10F94000006000404058002800D00120704703228A
:10F95000120280184068084000D00120704710B59E
:10F96000002809D0032806D10220FDF757FB002804
:10F9700001D0FCF763FD10BD02F04EF810BD000091
:10F9800010B50446008888B03A2821D009DC022846
:10F9900024D0102811D011280DD10020FDF73EFBF6
:10F9A00019E051281ED0552805D1A088132176DFF3
:10F9B00011E0FCF743FD08B010BD0720FDF72EFB5A
:10F9C000002801D0FCF73AFD1549A0880880F2E72D
:10F9D000A088132176DF0028EBD1ECE7A088002176
:10F9E00067DFF8E71022A11D04A8FBF7B9FB684602
:10F9F000017C0029DFD0007E042803D0062801D036
:10FA00000528D8D1022908D0012069460870FF20B6
:10FA100083308880A088A8DFDDE70220F5E70000BA
:10FA2000E81F002010B5134A00215170017A012906
:10FA300011D002290ED18189491C8181C189491CBB
:10FA400089B2C181028A914204D1002101F088FE6D
:10FA500001F070FA10BD838AC28A991AFF2901DC6D
:10FA600089B201E0FF210131511889B2C182994266
:10FA7000EBD010BD18210020F7B51C4D0E460146F5
:10FA80006A6F002082B0032A2DD82C4678340827CC
:10FA9000636CBF1BBB4226D8286F10188007800FED
:10FAA0001C2250434019FBF75BFB686F401C6867E2
:10FAB000002E17D0216C606C40184007800E001992
:10FAC0000023009009E00498D9000A1806CA00989B
:10FAD00006C06846FDF70EFD5B1CB342F3D3606CB5
:10FAE00080196064012005B0F0BD0000A829002045
:10FAF0000389CA1C9A1802814289511AC91E418180
:10FB000070470000F7B50D460121890247180446E9
:10FB1000002608340220288012E02046FEF74AFE24
:10FB2000002817D00C48A1684268914200D9416072
:10FB3000608881000C1929880818C01C28800C34A2
:10FB4000BC4202D22068401CE7D10298002800D0B5
:10FB50000670FEBD0126EBE70021002008B500215C
:10FB6000009101460223024A0248FEF743FA08BD0B
:10FB7000F42802003421002008B500200090044839
:10FB800002230168034A0448FEF734FA08BD000066
:10FB900010210020EC28020034210020F8B50025B7
:10FBA000354F2C462E4600953448B1020068401867
:10FBB0000168B94205D1324A4168891830D001291B
:10FBC0000CD000218A0082580346521C36D00320F4
:10FBD0002C4922018854641CA4B21BE0009900291E
:10FBE0000CD0284B022221015A54274A1368254A77
:10FBF000891802224B60641C0A81A4B222490022A7
:10FC00000860091DFFF77EFF1F488088022831D059
:10FC100008200543761CB6B2032EC5D3E8B2F8BD62
:10FC20001849002322018B5451180A4648600E32AD
:10FC30000831FFF767FF02200543CCE7491CFF2985
:10FC4000C0D911490A68002A0CD00E4A02212301AA
:10FC5000D1549A1850600B48118120304480641CA4
:10FC6000A4B204E002200B608880012000900120F3
:10FC70000543CFE70420CCE7DEC0ADDE3421002011
:10FC800002FEE10E682A00201021002070B5184DF8
:10FC90000E46044623CD86B0029500900191684639
:10FCA000448082808371134D2046A978FCF7F2FFCF
:10FCB000002803D03046FEF7CBFE0FE00721304688
:10FCC00000F0CEF9002809D0052807D1092269469D
:10FCD0000A73CC81049003A8FDF784FE00222978E2
:10FCE0002046FCF7E9FF6846FDF77CFE06B070BDD4
:10FCF000C4280200A4200020F0B585B00746FCF718
:10FD0000BDFF002814D06846FCF7ECFE00246D46C9
:10FD10000BE060004619B0883946FCF7BBFF0028AD
:10FD200002D0B08802F074F8641C0098A042F0D8A9
:10FD300005B0F0BD70B5054D06460024A000295859
:10FD400030468847641C052CF8D370BD7428020027
:10FD50003EB50F4D002414206043401902F0B2FB61
:10FD6000641C082CF7D30821502001910A49012472
:10FD7000C2000290074B0094881800F0E2FC0028B3
:10FD800001D003203EBD0348447000203EBD00006A
:10FD9000B82700208C2000202825002010B500F076
:10FDA0004BFA10BD10B500F04BFA10BDF0B50025B0
:10FDB00085B00095019502950395044641886846F3
:10FDC0004180217901712E462179608802F054FB2F
:10FDD00022780421404F1300FCF728F90A06063662
:10FDE0001C1C383E43484B4D00280DD0417CC907B0
:10FDF0000AD002F079FB684606702078012800D00E
:10FE00000020694608722AE0012069460870A0684F
:10FE1000029024E000280ED08268A3689A420AD19A
:10FE2000427CD30707D07B6852085B1C52000A4310
:10FE30007B6042741FE0022069460870E06803900E
:10FE40000DE0FFF777FF16E0032006E0684601703B
:10FE5000E06802906846F4E70520694608700846A5
:10FE6000EFE7062069460870E068D1E70125072022
:10FE7000F3E7E06802907868002824D0174E002449
:10FE8000142027464743B819417C4A0703D4890701
:10FE9000C90F29421CD08178F05B00F0F7F80028E8
:10FEA00016D014214C43325B69464A80B9198A78CE
:10FEB00069460A71042808D009216A461170029027
:10FEC0006846FFF737FF05B0F0BD08200870F7E778
:10FED000641C082CD4D3F6E78C200020B82700201F
:10FEE00010B500F071FA10BD08B513889B0000939F
:10FEF0006B4600F0DBF908BD10B5002300F0D6F921
:10FF000010BD38B50546002420460AE08178284611
:10FF100000F0A6F8002802D0052800D0032400989D
:10FF2000401C00906946284602F0B8FA0028EDD13E
:10FF3000002C07D1284600F04FFA002802D00728ED
:10FF400002D00324204638BD0724FBE710B5134632
:10FF5000002200F0E3F910BDFFB581B0049815460A
:10FF60000E46002804D0072E05D0082E19D102E035
:10FF70000E2005B0F0BD002D13D0082D11D801982A
:10FF800000F035FA00280CD000200090314601988E
:10FF900002F072FA041E26D0E068A84212D20027AE
:10FFA00009E00720E5E7207CC019C1B22A4800F02B
:10FFB00000FC7F1CFFB2E068B842F4D8204602F093
:10FFC00081FA10E0A84217D9EFB207E0207CC019EF
:10FFD000C1B2214800F0EDFB7F1CFFB2E068B842DF
:10FFE000F4D8002C08D1FF211C48019F02F044FAEC
:10FFF000041E05D00780A670207CFF2802D00AE0EE
:020000040002F8
:100000001120B6E72946144800F06CFB2074FF2845
:1000100013D001200090E560217C0F4800F0B2FB76
:1000200002000ED0ABB23146049800F071FA00988D
:1000300000280FD0082E06D00CE0204602F042FA2D
:10004000DEE7032095E7049804990088496880005A
:10005000801F888000208CE7A8270020FFFF000079
:1000600070B5002402F008FA05000CD0686800287A
:1000700004D000F0D8F9040000D00324284602F090
:1000800033FA204670BD052070BD00007CB50D46DA
:100090000646072903D0082D01D007207CBD00208B
:1000A00000900190684685702946304602F0E4F9D8
:1000B000040004D0607CC00703D000207CBD052074
:1000C0007CBD217C214800F05DFB020025D0294643
:1000D0006846E36800F0AFF9684602F0BBF92346D2
:1000E000083369463046626800F018F90246607CC1
:1000F0001749430704D5830702D54B685B1E4B6045
:10010000FB25FD23002A0AD0112A0DD0042A14D081
:10011000072A00D0032210467CBD03207CBD0121AC
:100120000843284018400EE04A68521C4A600421E7
:100130000843184060740022EDE74B6828405B1CC0
:100140004B60022108436074E5E70000A827002007
:100150008C2000207CB50D46072903D0082D01D046
:1001600007207CBD002602F087F9040003D06068F8
:10017000002802D01BE005207CBD217C0E4800F049
:1001800001FB024600200090019068468570002A1D
:100190000FD02946E36800F04EF9684602F05AF99C
:1001A000211D684600F027F90646092801D030468F
:1001B0007CBD03207CBD0000A82700200149096800
:1001C000084700007028020070B588B01748FDF796
:1001D000B9FD002802D0032008B070BDFDF7EEFC89
:1001E000002801D00420F7E700F0E8F90020104CC7
:1001F0000290E61F03900DE0694604A8FDF766FD36
:1002000000988088801B85B204A8FDF71DFD284654
:1002100000F088F902AA04A92046FDF73CFD002859
:10022000EAD00449012008700020D5E70DDA01006A
:1002300007C000008020002010B500F09DF910BD1F
:1002400010B500F0A1F910BD70B50546032080037C
:1002500086B014460E46281880B20F4A6946FDF74C
:100260001AFD002805D103A96846FDF72FFD0028D7
:1002700002D0002006B070BDA57003984088208091
:100280000498606003988088FDF7ACFD3080684674
:10029000FDF7DAFC0120EDE7842000200248002170
:1002A000416081607047000080200020F0B587B079
:1002B0001D46144607460E46FF280CD8084600F097
:1002C00017F9002807D003AA3146384600F0F8F89D
:1002D000002809D102E0072007B0F0BD01A903A85A
:1002E000FDF7F4FC002801D00520F5E7A670019881
:1002F000002D408820800AD082002868904204D8CF
:1003000002996068FAF72CFF03E00420E4E7029802
:10031000606003A8FDF798FC0020DDE77FB588B09A
:100320001D460C460646FF2831D8A07800F0E0F8BC
:1003300000282CD060680690208869468883304663
:1003400000F076F969460880A078032189034018F7
:100350006946488006A8019001200881A17803AA77
:10036000304600F0ADF8052813D00AA8FDF716FDB9
:10037000694603A8FDF7CCFC002818D0072820D038
:1003800008281CD00E281AD003200CB070BD0720FE
:10039000FBE70A98002805D00AAA694603A8FDF7DA
:1003A000C7FCE9E7694603A8FDF7BCFCE4E7002DBC
:1003B00003D0294603A8FDF77EFC0020E5E71120C5
:1003C000E3E70420E1E7000010B5024800F0AAF8D6
:1003D00010BD0000FFFF000010B5FF2801D9072065
:1003E00010BD00F0A7F800F02BF8002010BD10B5EC
:1003F00000F0F8F810BD70B504460D46807800F0A6
:1004000077F800280BD021882846FDF7ADFC00289E
:1004100004D0072805D0092800D0032070BD07208C
:1004200070BD042070BD01B56846FDF7B7FC00281B
:1004300000D0032008BD10B59BB200F069F810BDD4
:10044000F0B589B000261C4F04963846059603E0A7
:10045000204600F083F8204600F08EF80446B842AB
:1004600007D000F0E5F804AA06A9FDF71CFC0A284D
:10047000EED0124DA878002819D1BC4217D0032025
:10048000800301272018AF7080B2FDF74DFB0828CC
:100490000FD000280BD0AE70092269460A704C803C
:1004A000FF220A71039002966846FFF787FE09B0A3
:1004B000F0BD6F70FBE70000FFFF00008020002010
:1004C0007CB5054616460C46084600F011F800209B
:1004D00003210090890301906818611880B289B2E5
:1004E0006B463246FDF7D0FB002800D005207CBDCE
:1004F00007280BD0012809D0082807D0052805D0E7
:10050000062803D0042801D000207047012070473E
:1005100010B5502463439BB28170DB1C9908426084
:10052000018010BD10B50249FCF7F0FF10BD0000BE
:100530005828002010B504460648844207D00649D2
:100540002046FCF7E3FFA04201D1012010BD0020AE
:1005500010BD0000FFFF00007828002010B5044601
:10056000044900F013FF03492046203100F00EFF3C
:1005700010BD00005828002010B50249FFF702F80E
:1005800010BD00007828002070B50A49FEF7FAFF78
:100590000446094D08E000F031F8002807D005496D
:1005A0002046FEF7EFFF0446AC42F4D170BD204672
:1005B00070BD000058280020FFFF000010B508485B
:1005C0004021FAF7E6FDFF2401342146044800F0FB
:1005D000FDF903482146203000F0F8F910BD000075
:1005E0005828002010B5FF2804D80146024800F022
:1005F0001DFA10BD002010BD5828002010B5FF289E
:1006000004D80146024800F011FA10BD002010BDC8
:100610007828002010B50C46FDF788FFFF2803D08E
:100620000C21484301490C5210BD0000B8240020A1
:1006300003218903401880B2704700001CB50446AE
:1006400000F082F9002801D0FBF7F8FE002C05D05D
:1006500000F088FB002801D0FBF7F0FE002000909E
:100660000190684600780122104381210840303013
:100670004106490E684601700721417010218170C2
:10068000C178022311431943C17001791143194301
:10069000017100F09DFB002801D0FBF7CFFE04485C
:1006A00000F07EFB002801D0FBF7C8FE1CBD000057
:1006B000FD0702000449081820214156042901DBE6
:1006C0000120704700207047F828002004490818CE
:1006D00020214156042901D2012070470020704793
:1006E000F8280020F8B50F46060028D0306800280A
:1006F00025D07068002822D0FF2400251CE0294660
:10070000706800F06BF9002808D0FF2C00D12C464F
:10071000281B401CB8420DD12046F8BDFF2C06D145
:1007200008E02146304600F044F8641CE4B2AC42D4
:10073000F7D3FF246D1CEDB2B068A842DFD8FF20CC
:10074000F8BDF8B50400069E089D079818D000294A
:1007500016D0002B14D007466F43974210D8C21D05
:10076000D208B2420CD800280AD0002D08D0E5608B
:10077000A0600AC481B2184600F028F90020F8BD34
:100780000720F8BD70B504000D4610D02068002881
:100790000DD0606800280AD0FF2D08D000F046F97F
:1007A000002804D0E06821686843081870BD002064
:1007B00070BD70B504000D460FD0206800280CD025
:1007C0006068002809D0FF2D07D000F02FF900281D
:1007D00003D02946606800F035F970BD10B501F00E
:1007E00039F910BD10B5044A1278002A02D001F080
:1007F00067F910BD082010BD9420002008B50178CD
:100800000B00FBF713FC0F091209131E2532122CE3
:1008100012322E3212341200808800F0EBF91128C7
:1008200003D0002801D0FBF709FE08BD4189114A19
:10083000D142FAD140880121FFF7D4FF0828F0D136
:1008400008BD0021009140886946FFF7C7FF08BD39
:10085000FDF790F90E28FAD00828F8D0E1E700203B
:10086000E1E70320FCF772F8DBE78068D9E700F0E6
:10087000A3F808BDFAEFFFFF70B586B00446142157
:100880006846FAF786FC608869468880FEF72AF891
:100890006946488026780020082207210525330074
:1008A000FBF7C4FB0A06060B0D0F1416281A1D25AC
:1008B0006B46197058721A7219E00D2009E00E206B
:1008C00007E06A4611705072157210E00F2000E0C8
:1008D0001020694608700AE06846057007E00621A6
:1008E00068460170A0680290A18868464180684609
:1008F000FDF764F806B070BD10B50446007886B008
:1009000000281AD0012816D10E49608801224979A1
:10091000FCF7D2F914216846FAF73BFC6088694677
:1009200048806088FEF7AAF8694688800020087031
:100930006846FDF743F806B010BDE08800F04EF9B8
:10094000F9E700009420002070B5FFF73DFC002877
:100950002ED1FFF7FDF900282AD101F089F80028EF
:1009600026D101F097F9002822D1FDF765FD002876
:100970001ED1FDF745FE00281AD1FDF7C9FF00285A
:1009800016D10C4C401EE08000251820A560207177
:100990006071FCF75BF92071182809D0FCF756F953
:1009A0006071182804D0657001202070002070BD8F
:1009B000032070BD9420002010B503480078002863
:1009C00001D0FDF75DFD10BD9420002010B500287A
:1009D00003D0C91DC908FAF7DCFB10BD10B500280B
:1009E00009D04B075B0F01229A40C908D2B2081800
:1009F0001146FEF717FC10BDF8B50D46060013D0E2
:100A0000002401270EE06107490F38468840C1B233
:100A1000E0088019FEF706FC002801D02046F8BD4A
:100A2000641CA4B2AC42EED32846F8BD002807D01F
:100A3000CA08805C4A07520F01219140084000D04B
:100A400001207047F8B504464805050E4907490FCF
:100A500001208840C6B2002C0ED0605D30420BD021
:100A6000002168460170FBF7A9FD605DB043605549
:100A700068460078FBF7C0FDF8BD000010B50446DD
:100A800006480078002808D02046FDF7D7FE20460B
:100A900000F0D6FF2046FDF70DFC10BD942000208D
:100AA000F0B58BB0044614216846FAF772FB6088F3
:100AB00069468880FDF716FF69464880277801203F
:100AC000082207210026434D3B00FBF7AFFA0A0638
